{
  "transactions": [
    {
      "hash": "0x7f26e2525ad7044bc6a2a29f5c9ec2891a601d881f4cc6e3c89f69913c9e94e2",
      "transactionType": "CALL",
      "contractName": null,
      "contractAddress": "0x6bb03c85599f99f0542693c171cec7944e0ac563",
      "function": "setPriceFeeds(address[],address[])",
      "arguments": [
        "[0x2f2a2543B76A4166549F7aaB2e75Bef0aefC5B0f]",
        "[0x6ce185860a4963106506C203335A2910413708e9]"
      ],
      "transaction": {
        "from": "0xdafed9a0a40f810fcb5c3dfcd0cb3486036414eb",
        "to": "0x6bb03c85599f99f0542693c171cec7944e0ac563",
        "gas": "0x14d37",
        "value": "0x0",
        "input": "0x92aeb53a0000000000000000000000000000000000000000000000000000000000000040000000000000000000000000000000000000000000000000000000000000008000000000000000000000000000000000000000000000000000000000000000010000000000000000000000002f2a2543b76a4166549f7aab2e75bef0aefc5b0f00000000000000000000000000000000000000000000000000000000000000010000000000000000000000006ce185860a4963106506c203335a2910413708e9",
        "nonce": "0x15b",
        "chainId": "0xa4b1"
      },
      "additionalContracts": [],
      "isFixedGasLimit": false
    },
    {
      "hash": "0x4aef2428a860f1f22dcf82318459d5d4083ad1ed3339960f2216f025e9c71a27",
      "transactionType": "CALL",
      "contractName": null,
      "contractAddress": "0x6bb03c85599f99f0542693c171cec7944e0ac563",
      "function": "setHeartbeats(address[],uint256[])",
      "arguments": [
        "[0x6ce185860a4963106506C203335A2910413708e9]",
        "[86400]"
      ],
      "transaction": {
        "from": "0xdafed9a0a40f810fcb5c3dfcd0cb3486036414eb",
        "to": "0x6bb03c85599f99f0542693c171cec7944e0ac563",
        "gas": "0x14718",
        "value": "0x0",
        "input": "0x98319bd10000000000000000000000000000000000000000000000000000000000000040000000000000000000000000000000000000000000000000000000000000008000000000000000000000000000000000000000000000000000000000000000010000000000000000000000006ce185860a4963106506c203335a2910413708e900000000000000000000000000000000000000000000000000000000000000010000000000000000000000000000000000000000000000000000000000015180",
        "nonce": "0x15c",
        "chainId": "0xa4b1"
      },
      "additionalContracts": [],
      "isFixedGasLimit": false
    },
    {
      "hash": "0x37057e65ceb3533cc48c7a80ab71d997f8af7e1afb13dc658792eb3c1dd3dbe1",
      "transactionType": "CREATE",
      "contractName": "BeaconProxy",
      "contractAddress": "0x55d9615c3befe4b991d864892db2aaa6bcefc16c",
      "function": null,
      "arguments": [
        "0x19E6Dc367b4DbCa5ee38de32DB6C74b731ed755E",
        "0xcb706309000000000000000000000000dafed9a0a40f810fcb5c3dfcd0cb3486036414eb000000000000000000000000af88d065e77c8cc2239327c5edb3a432268e583100000000000000000000000000000000000000000000000000000000000000000000000000000000000000000000000000000000000000000011c37937e080000000000000000000000000000000000000000000000000000011c37937e0800000000000000000000000000000000000000000000000000000000000000000e00000000000000000000000000000000000000000000000000000000000000140000000000000000000000000000000000000000000000000000000000000002d4c6f6761726974686d20426173697320555344432d574254432048797065726c69717569642028416c706861290000000000000000000000000000000000000000000000000000000000000000000000000000000000000000000000000000146c6f672d622d757364632d776274632d686c2d61000000000000000000000000"
      ],
      "transaction": {
        "from": "0xdafed9a0a40f810fcb5c3dfcd0cb3486036414eb",
        "gas": "0x9b8a1",
        "value": "0x0",
        "input": "0x60a080604052610491803803809161001782856102a9565b833981016040828203126101eb5761002e826102e0565b602083015190926001600160401b0382116101eb570181601f820112156101eb5780519061005b826102f4565b9261006960405194856102a9565b828452602083830101116101eb575f5b82811061029457505060205f9183010152813b15610273577fa3f0ad74e5423aebfd80d3ef4346578335a9a72aeaee59ff6cb3582b35133d5080546001600160a01b0319166001600160a01b038416908117909155604051635c60da1b60e01b8152909190602081600481865afa9081156101f7575f91610239575b50803b156102195750817f1cf3b03a6cf19fa2baba4df148e9dcabedea7f8a5c07840e207e5c089be95d3e5f80a280511561020257602060049260405193848092635c60da1b60e01b82525afa9182156101f7575f926101b2575b50905f8083602061018e95519101845af43d156101aa573d91610172836102f4565b9261018060405194856102a9565b83523d5f602085013e61030f565b505b608052604051610123908161036e82396080518160180152f35b60609161030f565b91506020823d6020116101ef575b816101cd602093836102a9565b810103126101eb575f806101e361018e946102e0565b935050610150565b5f80fd5b3d91506101c0565b6040513d5f823e3d90fd5b505034156101905763b398979f60e01b5f5260045ffd5b634c9c8ce360e01b5f9081526001600160a01b0391909116600452602490fd5b90506020813d60201161026b575b81610254602093836102a9565b810103126101eb57610265906102e0565b5f6100f5565b3d9150610247565b50631933b43b60e21b5f9081526001600160a01b0391909116600452602490fd5b80602080928401015182828701015201610079565b601f909101601f19168101906001600160401b038211908210176102cc57604052565b634e487b7160e01b5f52604160045260245ffd5b51906001600160a01b03821682036101eb57565b6001600160401b0381116102cc57601f01601f191660200190565b90610333575080511561032457805190602001fd5b630a12f52160e11b5f5260045ffd5b81511580610364575b610344575090565b639996b31560e01b5f9081526001600160a01b0391909116600452602490fd5b50803b1561033c56fe60806040819052635c60da1b60e01b81526020906004817f00000000000000000000000000000000000000000000000000000000000000006001600160a01b03165afa801560a2575f901560d1575060203d602011609c575b601f19601f820116608001906080821067ffffffffffffffff83111760885760849160405260800160ad565b60d1565b634e487b7160e01b5f52604160045260245ffd5b503d6058565b6040513d5f823e3d90fd5b602090607f19011260cd576080516001600160a01b038116810360cd5790565b5f80fd5b5f8091368280378136915af43d5f803e1560e9573d5ff35b3d5ffdfea264697066735822122007093cdf920fcab71bd63b1088382f067ee9907b794386da93b88aa8e955b16864736f6c634300081c003300000000000000000000000019e6dc367b4dbca5ee38de32db6c74b731ed755e00000000000000000000000000000000000000000000000000000000000000400000000000000000000000000000000000000000000000000000000000000184cb706309000000000000000000000000dafed9a0a40f810fcb5c3dfcd0cb3486036414eb000000000000000000000000af88d065e77c8cc2239327c5edb3a432268e583100000000000000000000000000000000000000000000000000000000000000000000000000000000000000000000000000000000000000000011c37937e080000000000000000000000000000000000000000000000000000011c37937e0800000000000000000000000000000000000000000000000000000000000000000e00000000000000000000000000000000000000000000000000000000000000140000000000000000000000000000000000000000000000000000000000000002d4c6f6761726974686d20426173697320555344432d574254432048797065726c69717569642028416c706861290000000000000000000000000000000000000000000000000000000000000000000000000000000000000000000000000000146c6f672d622d757364632d776274632d686c2d6100000000000000000000000000000000000000000000000000000000000000000000000000000000",
        "nonce": "0x15d",
        "chainId": "0xa4b1"
      },
      "additionalContracts": [],
      "isFixedGasLimit": false
    },
    {
      "hash": "0x6448b9e41829ddbde2e6f23e958b383436fdec4e3b62511664f586a83a3c27f9",
      "transactionType": "CREATE",
      "contractName": "BeaconProxy",
      "contractAddress": "0xd9feee8a509a0ecafd93e7661ff42eddaaa49692",
      "function": null,
      "arguments": [
        "0x462668198F8a8c3A4410A0b45a47f432C77749aF",
        "0x6322b513000000000000000000000000c1a8f7419c2680f4ba2a730d5a5d7abfdcc1efda0000000000000000000000002f2a2543b76a4166549f7aab2e75bef0aefc5b0f00000000000000000000000055d9615c3befe4b991d864892db2aaa6bcefc16c0000000000000000000000006bb03c85599f99f0542693c171cec7944e0ac563000000000000000000000000f4a4493b788b94f5090aaf182cb78be72208809f00000000000000000000000000000000000000000000000053444835ec58000000000000000000000000000000000000000000000000000029a2241af62c00000000000000000000000000000000000000000000000000007ce66c50e2840000000000000000000000000000000000000000000000000001158e460913d00000"
      ],
      "transaction": {
        "from": "0xdafed9a0a40f810fcb5c3dfcd0cb3486036414eb",
        "gas": "0xadf16",
        "value": "0x0",
        "input": "0x60a080604052610491803803809161001782856102a9565b833981016040828203126101eb5761002e826102e0565b602083015190926001600160401b0382116101eb570181601f820112156101eb5780519061005b826102f4565b9261006960405194856102a9565b828452602083830101116101eb575f5b82811061029457505060205f9183010152813b15610273577fa3f0ad74e5423aebfd80d3ef4346578335a9a72aeaee59ff6cb3582b35133d5080546001600160a01b0319166001600160a01b038416908117909155604051635c60da1b60e01b8152909190602081600481865afa9081156101f7575f91610239575b50803b156102195750817f1cf3b03a6cf19fa2baba4df148e9dcabedea7f8a5c07840e207e5c089be95d3e5f80a280511561020257602060049260405193848092635c60da1b60e01b82525afa9182156101f7575f926101b2575b50905f8083602061018e95519101845af43d156101aa573d91610172836102f4565b9261018060405194856102a9565b83523d5f602085013e61030f565b505b608052604051610123908161036e82396080518160180152f35b60609161030f565b91506020823d6020116101ef575b816101cd602093836102a9565b810103126101eb575f806101e361018e946102e0565b935050610150565b5f80fd5b3d91506101c0565b6040513d5f823e3d90fd5b505034156101905763b398979f60e01b5f5260045ffd5b634c9c8ce360e01b5f9081526001600160a01b0391909116600452602490fd5b90506020813d60201161026b575b81610254602093836102a9565b810103126101eb57610265906102e0565b5f6100f5565b3d9150610247565b50631933b43b60e21b5f9081526001600160a01b0391909116600452602490fd5b80602080928401015182828701015201610079565b601f909101601f19168101906001600160401b038211908210176102cc57604052565b634e487b7160e01b5f52604160045260245ffd5b51906001600160a01b03821682036101eb57565b6001600160401b0381116102cc57601f01601f191660200190565b90610333575080511561032457805190602001fd5b630a12f52160e11b5f5260045ffd5b81511580610364575b610344575090565b639996b31560e01b5f9081526001600160a01b0391909116600452602490fd5b50803b1561033c56fe60806040819052635c60da1b60e01b81526020906004817f00000000000000000000000000000000000000000000000000000000000000006001600160a01b03165afa801560a2575f901560d1575060203d602011609c575b601f19601f820116608001906080821067ffffffffffffffff83111760885760849160405260800160ad565b60d1565b634e487b7160e01b5f52604160045260245ffd5b503d6058565b6040513d5f823e3d90fd5b602090607f19011260cd576080516001600160a01b038116810360cd5790565b5f80fd5b5f8091368280378136915af43d5f803e1560e9573d5ff35b3d5ffdfea264697066735822122007093cdf920fcab71bd63b1088382f067ee9907b794386da93b88aa8e955b16864736f6c634300081c0033000000000000000000000000462668198f8a8c3a4410a0b45a47f432c77749af000000000000000000000000000000000000000000000000000000000000004000000000000000000000000000000000000000000000000000000000000001246322b513000000000000000000000000c1a8f7419c2680f4ba2a730d5a5d7abfdcc1efda0000000000000000000000002f2a2543b76a4166549f7aab2e75bef0aefc5b0f00000000000000000000000055d9615c3befe4b991d864892db2aaa6bcefc16c0000000000000000000000006bb03c85599f99f0542693c171cec7944e0ac563000000000000000000000000f4a4493b788b94f5090aaf182cb78be72208809f00000000000000000000000000000000000000000000000053444835ec58000000000000000000000000000000000000000000000000000029a2241af62c00000000000000000000000000000000000000000000000000007ce66c50e2840000000000000000000000000000000000000000000000000001158e460913d0000000000000000000000000000000000000000000000000000000000000",
        "nonce": "0x15e",
        "chainId": "0xa4b1"
      },
      "additionalContracts": [],
      "isFixedGasLimit": false
    },
    {
      "hash": "0x5779936e7e63bb4b9cb0bd26d41991b6545ce70893edb879795dd9710021e7bb",
      "transactionType": "CALL",
      "contractName": "BeaconProxy",
      "contractAddress": "0x55d9615c3befe4b991d864892db2aaa6bcefc16c",
      "function": null,
      "arguments": null,
      "transaction": {
        "from": "0xdafed9a0a40f810fcb5c3dfcd0cb3486036414eb",
        "to": "0x55d9615c3befe4b991d864892db2aaa6bcefc16c",
        "gas": "0x8d35",
        "value": "0x0",
        "input": "0x33a100ca000000000000000000000000d9feee8a509a0ecafd93e7661ff42eddaaa49692",
        "nonce": "0x15f",
        "chainId": "0xa4b1"
      },
      "additionalContracts": [],
      "isFixedGasLimit": false
    },
    {
      "hash": "0x63f5abb6d7e70e15a01f32b7097464e7de17c84a2a19e828dc75ade4938d11b0",
      "transactionType": "CREATE",
      "contractName": "BeaconProxy",
      "contractAddress": "0x46c86dd2c8a2a5013861a13761b48c5992b96f1e",
      "function": null,
      "arguments": [
        "0xd530B7769eB06d2c47178dB7f7a37f9A24e46837",
        "0x77a24f36000000000000000000000000dafed9a0a40f810fcb5c3dfcd0cb3486036414eb000000000000000000000000d9feee8a509a0ecafd93e7661ff42eddaaa4969200000000000000000000000000000000000000000000000000000000000000600000000000000000000000000000000000000000000000000000000000000005000000000000000000000000af88d065e77c8cc2239327c5edb3a432268e5831000000000000000000000000c6962004f452be9203591991d15f6b388e09e8d000000000000000000000000082af49447d8a07e3bd95bd0d56f35241523fbab10000000000000000000000002f5e87c9312fa29aed5c179e456625d79015299c0000000000000000000000002f2a2543b76a4166549f7aab2e75bef0aefc5b0f"
      ],
      "transaction": {
        "from": "0xdafed9a0a40f810fcb5c3dfcd0cb3486036414eb",
        "gas": "0xda94a",
        "value": "0x0",
        "input": "0x60a080604052610491803803809161001782856102a9565b833981016040828203126101eb5761002e826102e0565b602083015190926001600160401b0382116101eb570181601f820112156101eb5780519061005b826102f4565b9261006960405194856102a9565b828452602083830101116101eb575f5b82811061029457505060205f9183010152813b15610273577fa3f0ad74e5423aebfd80d3ef4346578335a9a72aeaee59ff6cb3582b35133d5080546001600160a01b0319166001600160a01b038416908117909155604051635c60da1b60e01b8152909190602081600481865afa9081156101f7575f91610239575b50803b156102195750817f1cf3b03a6cf19fa2baba4df148e9dcabedea7f8a5c07840e207e5c089be95d3e5f80a280511561020257602060049260405193848092635c60da1b60e01b82525afa9182156101f7575f926101b2575b50905f8083602061018e95519101845af43d156101aa573d91610172836102f4565b9261018060405194856102a9565b83523d5f602085013e61030f565b505b608052604051610123908161036e82396080518160180152f35b60609161030f565b91506020823d6020116101ef575b816101cd602093836102a9565b810103126101eb575f806101e361018e946102e0565b935050610150565b5f80fd5b3d91506101c0565b6040513d5f823e3d90fd5b505034156101905763b398979f60e01b5f5260045ffd5b634c9c8ce360e01b5f9081526001600160a01b0391909116600452602490fd5b90506020813d60201161026b575b81610254602093836102a9565b810103126101eb57610265906102e0565b5f6100f5565b3d9150610247565b50631933b43b60e21b5f9081526001600160a01b0391909116600452602490fd5b80602080928401015182828701015201610079565b601f909101601f19168101906001600160401b038211908210176102cc57604052565b634e487b7160e01b5f52604160045260245ffd5b51906001600160a01b03821682036101eb57565b6001600160401b0381116102cc57601f01601f191660200190565b90610333575080511561032457805190602001fd5b630a12f52160e11b5f5260045ffd5b81511580610364575b610344575090565b639996b31560e01b5f9081526001600160a01b0391909116600452602490fd5b50803b1561033c56fe60806040819052635c60da1b60e01b81526020906004817f00000000000000000000000000000000000000000000000000000000000000006001600160a01b03165afa801560a2575f901560d1575060203d602011609c575b601f19601f820116608001906080821067ffffffffffffffff83111760885760849160405260800160ad565b60d1565b634e487b7160e01b5f52604160045260245ffd5b503d6058565b6040513d5f823e3d90fd5b602090607f19011260cd576080516001600160a01b038116810360cd5790565b5f80fd5b5f8091368280378136915af43d5f803e1560e9573d5ff35b3d5ffdfea264697066735822122007093cdf920fcab71bd63b1088382f067ee9907b794386da93b88aa8e955b16864736f6c634300081c0033000000000000000000000000d530b7769eb06d2c47178db7f7a37f9a24e468370000000000000000000000000000000000000000000000000000000000000040000000000000000000000000000000000000000000000000000000000000012477a24f36000000000000000000000000dafed9a0a40f810fcb5c3dfcd0cb3486036414eb000000000000000000000000d9feee8a509a0ecafd93e7661ff42eddaaa4969200000000000000000000000000000000000000000000000000000000000000600000000000000000000000000000000000000000000000000000000000000005000000000000000000000000af88d065e77c8cc2239327c5edb3a432268e5831000000000000000000000000c6962004f452be9203591991d15f6b388e09e8d000000000000000000000000082af49447d8a07e3bd95bd0d56f35241523fbab10000000000000000000000002f5e87c9312fa29aed5c179e456625d79015299c0000000000000000000000002f2a2543b76a4166549f7aab2e75bef0aefc5b0f00000000000000000000000000000000000000000000000000000000",
        "nonce": "0x160",
        "chainId": "0xa4b1"
      },
      "additionalContracts": [],
      "isFixedGasLimit": false
    },
    {
      "hash": "0x4393d39f1193cf6f1c1257d5ab3707be8a899a925acf805957710732349eb13d",
      "transactionType": "CALL",
      "contractName": "BeaconProxy",
      "contractAddress": "0xd9feee8a509a0ecafd93e7661ff42eddaaa49692",
      "function": null,
      "arguments": null,
      "transaction": {
        "from": "0xdafed9a0a40f810fcb5c3dfcd0cb3486036414eb",
        "to": "0xd9feee8a509a0ecafd93e7661ff42eddaaa49692",
        "gas": "0x8d44",
        "value": "0x0",
        "input": "0x817f040a00000000000000000000000046c86dd2c8a2a5013861a13761b48c5992b96f1e",
        "nonce": "0x161",
        "chainId": "0xa4b1"
      },
      "additionalContracts": [],
      "isFixedGasLimit": false
    },
    {
      "hash": "0x5f4f4be83c909292371a8759bae3b5f5645bd8f44f62511c1a66568dfe2e1ed7",
      "transactionType": "CREATE",
      "contractName": "BeaconProxy",
      "contractAddress": "0x2f95aa93cd710d672e80dadd7064ea4002184bd3",
      "function": null,
      "arguments": [
        "0x8656C2b6ADF31812B3C37BAc58AdC8917c83d8f8",
        "0xfc5b5fda00000000000000000000000083845524e0f82bbdb288875ee0d14a9892b7f3b1000000000000000000000000d9feee8a509a0ecafd93e7661ff42eddaaa49692000000000000000000000000195fa26fb43d15567c3a99049f57b8db992643d60000000000000000000000006bb03c85599f99f0542693c171cec7944e0ac5630000000000000000000000000000000000000000000000000000000000000000"
      ],
      "transaction": {
        "from": "0xdafed9a0a40f810fcb5c3dfcd0cb3486036414eb",
        "gas": "0x80f44",
        "value": "0x0",
        "input": "0x60a080604052610491803803809161001782856102a9565b833981016040828203126101eb5761002e826102e0565b602083015190926001600160401b0382116101eb570181601f820112156101eb5780519061005b826102f4565b9261006960405194856102a9565b828452602083830101116101eb575f5b82811061029457505060205f9183010152813b15610273577fa3f0ad74e5423aebfd80d3ef4346578335a9a72aeaee59ff6cb3582b35133d5080546001600160a01b0319166001600160a01b038416908117909155604051635c60da1b60e01b8152909190602081600481865afa9081156101f7575f91610239575b50803b156102195750817f1cf3b03a6cf19fa2baba4df148e9dcabedea7f8a5c07840e207e5c089be95d3e5f80a280511561020257602060049260405193848092635c60da1b60e01b82525afa9182156101f7575f926101b2575b50905f8083602061018e95519101845af43d156101aa573d91610172836102f4565b9261018060405194856102a9565b83523d5f602085013e61030f565b505b608052604051610123908161036e82396080518160180152f35b60609161030f565b91506020823d6020116101ef575b816101cd602093836102a9565b810103126101eb575f806101e361018e946102e0565b935050610150565b5f80fd5b3d91506101c0565b6040513d5f823e3d90fd5b505034156101905763b398979f60e01b5f5260045ffd5b634c9c8ce360e01b5f9081526001600160a01b0391909116600452602490fd5b90506020813d60201161026b575b81610254602093836102a9565b810103126101eb57610265906102e0565b5f6100f5565b3d9150610247565b50631933b43b60e21b5f9081526001600160a01b0391909116600452602490fd5b80602080928401015182828701015201610079565b601f909101601f19168101906001600160401b038211908210176102cc57604052565b634e487b7160e01b5f52604160045260245ffd5b51906001600160a01b03821682036101eb57565b6001600160401b0381116102cc57601f01601f191660200190565b90610333575080511561032457805190602001fd5b630a12f52160e11b5f5260045ffd5b81511580610364575b610344575090565b639996b31560e01b5f9081526001600160a01b0391909116600452602490fd5b50803b1561033c56fe60806040819052635c60da1b60e01b81526020906004817f00000000000000000000000000000000000000000000000000000000000000006001600160a01b03165afa801560a2575f901560d1575060203d602011609c575b601f19601f820116608001906080821067ffffffffffffffff83111760885760849160405260800160ad565b60d1565b634e487b7160e01b5f52604160045260245ffd5b503d6058565b6040513d5f823e3d90fd5b602090607f19011260cd576080516001600160a01b038116810360cd5790565b5f80fd5b5f8091368280378136915af43d5f803e1560e9573d5ff35b3d5ffdfea264697066735822122007093cdf920fcab71bd63b1088382f067ee9907b794386da93b88aa8e955b16864736f6c634300081c00330000000000000000000000008656c2b6adf31812b3c37bac58adc8917c83d8f8000000000000000000000000000000000000000000000000000000000000004000000000000000000000000000000000000000000000000000000000000000a4fc5b5fda00000000000000000000000083845524e0f82bbdb288875ee0d14a9892b7f3b1000000000000000000000000d9feee8a509a0ecafd93e7661ff42eddaaa49692000000000000000000000000195fa26fb43d15567c3a99049f57b8db992643d60000000000000000000000006bb03c85599f99f0542693c171cec7944e0ac563000000000000000000000000000000000000000000000000000000000000000000000000000000000000000000000000000000000000000000000000",
        "nonce": "0x162",
        "chainId": "0xa4b1"
      },
      "additionalContracts": [],
      "isFixedGasLimit": false
    },
    {
      "hash": "0x1be8626181dc029659c799fe6d83cc43557a49b149c40cc147e6953d515bd60c",
      "transactionType": "CALL",
      "contractName": "BeaconProxy",
      "contractAddress": "0xd9feee8a509a0ecafd93e7661ff42eddaaa49692",
      "function": null,
      "arguments": null,
      "transaction": {
        "from": "0xdafed9a0a40f810fcb5c3dfcd0cb3486036414eb",
        "to": "0xd9feee8a509a0ecafd93e7661ff42eddaaa49692",
        "gas": "0x8d44",
        "value": "0x0",
        "input": "0x3d4493810000000000000000000000002f95aa93cd710d672e80dadd7064ea4002184bd3",
        "nonce": "0x163",
        "chainId": "0xa4b1"
      },
      "additionalContracts": [],
      "isFixedGasLimit": false
    }
  ],
  "receipts": [
    {
      "status": "0x1",
      "cumulativeGasUsed": "0x1477ec",
      "logs": [
        {
          "address": "0x6bb03c85599f99f0542693c171cec7944e0ac563",
          "topics": [
            "0xa8abe0398416476db5b05737cd4da3b3cbde5012d978a6a6c3fd49d321753536"
          ],
          "data": "0x0000000000000000000000002f2a2543b76a4166549f7aab2e75bef0aefc5b0f0000000000000000000000006ce185860a4963106506c203335a2910413708e9",
          "blockHash": "0x563145abc19de9dd517b54fb140366371c8cf06ac705d7698b4cb674c01764c2",
          "blockNumber": "0x122ae682",
          "transactionHash": "0x7f26e2525ad7044bc6a2a29f5c9ec2891a601d881f4cc6e3c89f69913c9e94e2",
          "transactionIndex": "0x5",
          "logIndex": "0x3",
          "removed": false
        }
      ],
      "logsBloom": "0x00000000000000000000000000000000000000000000000000000000000000000200000000000000000000000000000000000000000000000000000000000000000000000080000000000000000000000000000000000000000000000000000000000000000000000000000000000000000000000000000000000400000000000000000000000000000000000000000000000000000000000000000000000000000000000000000000000000000000000000400000000000000000000000000000000020000000000080000000000000000000000000000000000000000000000000000000000000000000000000000000000000000000000000000000000000",
      "type": "0x2",
      "transactionHash": "0x7f26e2525ad7044bc6a2a29f5c9ec2891a601d881f4cc6e3c89f69913c9e94e2",
      "transactionIndex": "0x5",
      "blockHash": "0x563145abc19de9dd517b54fb140366371c8cf06ac705d7698b4cb674c01764c2",
      "blockNumber": "0x122ae682",
      "gasUsed": "0xf469",
      "effectiveGasPrice": "0x989680",
      "from": "0xdafed9a0a40f810fcb5c3dfcd0cb3486036414eb",
      "to": "0x6bb03c85599f99f0542693c171cec7944e0ac563",
      "contractAddress": null,
      "gasUsedForL1": "0x205a",
      "l1BlockNumber": "0x14cf360"
    },
    {
      "status": "0x1",
      "cumulativeGasUsed": "0x677fa",
      "logs": [
        {
          "address": "0x6bb03c85599f99f0542693c171cec7944e0ac563",
          "topics": [
            "0xa40c4f8f3f2e752ab36e989d38062be2e56a84ed82c5541b107bb81f119bfe5e"
          ],
          "data": "0x0000000000000000000000006ce185860a4963106506c203335a2910413708e90000000000000000000000000000000000000000000000000000000000015180",
          "blockHash": "0xf8d2c598117426a607fc93ad85870cd89dd99c8dc2e1d498e18be200041ed6ee",
          "blockNumber": "0x122ae685",
          "transactionHash": "0x4aef2428a860f1f22dcf82318459d5d4083ad1ed3339960f2216f025e9c71a27",
          "transactionIndex": "0x4",
          "logIndex": "0x4",
          "removed": false
        }
      ],
      "logsBloom": "0x00000000000000000000000000000000000000000000000000000000000000000200000000000000001000000000000000000000000000000000000000000000000000000000000000000000000000000000000000000000000000000000000000000000000000000000000000000000000000000000000000000000000000000000000000000000000000000000000000000000000000000000000000000000000000000000000000000000000000000000400000000000000000000000000000000020000000000000000000080000000000000000000000000000800000000000000000000000000000000000000000000000000000000000000000000000",
      "type": "0x2",
      "transactionHash": "0x4aef2428a860f1f22dcf82318459d5d4083ad1ed3339960f2216f025e9c71a27",
      "transactionIndex": "0x4",
      "blockHash": "0xf8d2c598117426a607fc93ad85870cd89dd99c8dc2e1d498e18be200041ed6ee",
      "blockNumber": "0x122ae685",
      "gasUsed": "0xf0c5",
      "effectiveGasPrice": "0x989680",
      "from": "0xdafed9a0a40f810fcb5c3dfcd0cb3486036414eb",
      "to": "0x6bb03c85599f99f0542693c171cec7944e0ac563",
      "contractAddress": null,
      "gasUsedForL1": "0x1e15",
      "l1BlockNumber": "0x14cf360"
    },
    {
      "status": "0x1",
      "cumulativeGasUsed": "0x74ffe",
      "logs": [
        {
          "address": "0x55d9615c3befe4b991d864892db2aaa6bcefc16c",
          "topics": [
            "0x1cf3b03a6cf19fa2baba4df148e9dcabedea7f8a5c07840e207e5c089be95d3e",
            "0x00000000000000000000000019e6dc367b4dbca5ee38de32db6c74b731ed755e"
          ],
          "data": "0x",
          "blockHash": "0x56849a5e6dc7cce26f7d8696032272b3da694141e1e9054edc7b9a59a0dc6f7b",
          "blockNumber": "0x122ae688",
          "transactionHash": "0x37057e65ceb3533cc48c7a80ab71d997f8af7e1afb13dc658792eb3c1dd3dbe1",
          "transactionIndex": "0x1",
          "logIndex": "0x0",
          "removed": false
        },
        {
          "address": "0x55d9615c3befe4b991d864892db2aaa6bcefc16c",
          "topics": [
            "0x8be0079c531659141344cd1fd0a4f28419497f9722a3daafe3b4186f6b6457e0",
            "0x0000000000000000000000000000000000000000000000000000000000000000",
            "0x000000000000000000000000dafed9a0a40f810fcb5c3dfcd0cb3486036414eb"
          ],
          "data": "0x",
          "blockHash": "0x56849a5e6dc7cce26f7d8696032272b3da694141e1e9054edc7b9a59a0dc6f7b",
          "blockNumber": "0x122ae688",
          "transactionHash": "0x37057e65ceb3533cc48c7a80ab71d997f8af7e1afb13dc658792eb3c1dd3dbe1",
          "transactionIndex": "0x1",
          "logIndex": "0x1",
          "removed": false
        },
        {
          "address": "0x55d9615c3befe4b991d864892db2aaa6bcefc16c",
          "topics": [
            "0x9d7a48441963aa3425b87ed3abc8ba1f46667f5b3bf7114f7ad42a2fa20973bd"
          ],
          "data": "0x000000000000000000000000dafed9a0a40f810fcb5c3dfcd0cb3486036414ebffffffffffffffffffffffffffffffffffffffffffffffffffffffffffffffff",
          "blockHash": "0x56849a5e6dc7cce26f7d8696032272b3da694141e1e9054edc7b9a59a0dc6f7b",
          "blockNumber": "0x122ae688",
          "transactionHash": "0x37057e65ceb3533cc48c7a80ab71d997f8af7e1afb13dc658792eb3c1dd3dbe1",
          "transactionIndex": "0x1",
          "logIndex": "0x2",
          "removed": false
        },
        {
          "address": "0x55d9615c3befe4b991d864892db2aaa6bcefc16c",
          "topics": [
            "0x53017628b1d5666a4e56030d0acb76a88d0c802c5da8728edba2985877c30ec0"
          ],
          "data": "0x000000000000000000000000dafed9a0a40f810fcb5c3dfcd0cb3486036414ebffffffffffffffffffffffffffffffffffffffffffffffffffffffffffffffff",
          "blockHash": "0x56849a5e6dc7cce26f7d8696032272b3da694141e1e9054edc7b9a59a0dc6f7b",
          "blockNumber": "0x122ae688",
          "transactionHash": "0x37057e65ceb3533cc48c7a80ab71d997f8af7e1afb13dc658792eb3c1dd3dbe1",
          "transactionIndex": "0x1",
          "logIndex": "0x3",
          "removed": false
        },
        {
          "address": "0x55d9615c3befe4b991d864892db2aaa6bcefc16c",
          "topics": [
            "0x6db5522382e049661c3415e5bc6fed59fee1054d960d07e772b763968ef1fd4e"
          ],
          "data": "0x000000000000000000000000dafed9a0a40f810fcb5c3dfcd0cb3486036414eb0000000000000000000000000000000000000000000000000011c37937e08000",
          "blockHash": "0x56849a5e6dc7cce26f7d8696032272b3da694141e1e9054edc7b9a59a0dc6f7b",
          "blockNumber": "0x122ae688",
          "transactionHash": "0x37057e65ceb3533cc48c7a80ab71d997f8af7e1afb13dc658792eb3c1dd3dbe1",
          "transactionIndex": "0x1",
          "logIndex": "0x4",
          "removed": false
        },
        {
          "address": "0x55d9615c3befe4b991d864892db2aaa6bcefc16c",
          "topics": [
            "0x21e5e6d8aeffff22c50c806a26be619de7fc39d1029e6fe5ad986036bb26f0f3"
          ],
          "data": "0x000000000000000000000000dafed9a0a40f810fcb5c3dfcd0cb3486036414eb0000000000000000000000000000000000000000000000000011c37937e08000",
          "blockHash": "0x56849a5e6dc7cce26f7d8696032272b3da694141e1e9054edc7b9a59a0dc6f7b",
          "blockNumber": "0x122ae688",
          "transactionHash": "0x37057e65ceb3533cc48c7a80ab71d997f8af7e1afb13dc658792eb3c1dd3dbe1",
          "transactionIndex": "0x1",
          "logIndex": "0x5",
          "removed": false
        },
        {
          "address": "0x55d9615c3befe4b991d864892db2aaa6bcefc16c",
          "topics": [
            "0xc7f505b2f371ae2175ee4913f4499e1f2633a7b5936321eed1cdaeb6115181d2"
          ],
          "data": "0x0000000000000000000000000000000000000000000000000000000000000001",
          "blockHash": "0x56849a5e6dc7cce26f7d8696032272b3da694141e1e9054edc7b9a59a0dc6f7b",
          "blockNumber": "0x122ae688",
          "transactionHash": "0x37057e65ceb3533cc48c7a80ab71d997f8af7e1afb13dc658792eb3c1dd3dbe1",
          "transactionIndex": "0x1",
          "logIndex": "0x6",
          "removed": false
        }
      ],
      "logsBloom": "0x00000200000008001000000000000400000000400000000000800000000000000000100080000000000000000000000000000000000000000000000000000000000000000001000000400000001000000001002000000010000000000000000000000000020000000000000000000800000000000000000000100000000000400000000000002400000800000000080000000000000080000002000000000000000000000000000000000000000000000000000000000000000000000000000000400000000000000000000000000000800000000004000000808001000020000000000000000000000000000000000000000000000000200000000000000008",
      "type": "0x2",
      "transactionHash": "0x37057e65ceb3533cc48c7a80ab71d997f8af7e1afb13dc658792eb3c1dd3dbe1",
      "transactionIndex": "0x1",
      "blockHash": "0x56849a5e6dc7cce26f7d8696032272b3da694141e1e9054edc7b9a59a0dc6f7b",
      "blockNumber": "0x122ae688",
      "gasUsed": "0x74ffe",
      "effectiveGasPrice": "0x989680",
      "from": "0xdafed9a0a40f810fcb5c3dfcd0cb3486036414eb",
      "to": null,
      "contractAddress": "0x55d9615c3befe4b991d864892db2aaa6bcefc16c",
      "gasUsedForL1": "0x912b",
      "l1BlockNumber": "0x14cf360"
    },
    {
      "status": "0x1",
      "cumulativeGasUsed": "0x8f046",
      "logs": [
        {
          "address": "0xd9feee8a509a0ecafd93e7661ff42eddaaa49692",
          "topics": [
            "0x1cf3b03a6cf19fa2baba4df148e9dcabedea7f8a5c07840e207e5c089be95d3e",
            "0x000000000000000000000000462668198f8a8c3a4410a0b45a47f432c77749af"
          ],
          "data": "0x",
          "blockHash": "0x70737b61c85bdc436e85309b19e958e8acc4aa1c720d34690ee6e9c006f1a198",
          "blockNumber": "0x122ae68b",
          "transactionHash": "0x6448b9e41829ddbde2e6f23e958b383436fdec4e3b62511664f586a83a3c27f9",
          "transactionIndex": "0x1",
          "logIndex": "0x0",
          "removed": false
        },
        {
          "address": "0xd9feee8a509a0ecafd93e7661ff42eddaaa49692",
          "topics": [
            "0x8be0079c531659141344cd1fd0a4f28419497f9722a3daafe3b4186f6b6457e0",
            "0x0000000000000000000000000000000000000000000000000000000000000000",
            "0x000000000000000000000000dafed9a0a40f810fcb5c3dfcd0cb3486036414eb"
          ],
          "data": "0x",
          "blockHash": "0x70737b61c85bdc436e85309b19e958e8acc4aa1c720d34690ee6e9c006f1a198",
          "blockNumber": "0x122ae68b",
          "transactionHash": "0x6448b9e41829ddbde2e6f23e958b383436fdec4e3b62511664f586a83a3c27f9",
          "transactionIndex": "0x1",
          "logIndex": "0x1",
          "removed": false
        },
        {
          "address": "0xd9feee8a509a0ecafd93e7661ff42eddaaa49692",
          "topics": [
            "0xfbe5b6cbafb274f445d7fed869dc77a838d8243a22c460de156560e8857cad03",
            "0x000000000000000000000000dafed9a0a40f810fcb5c3dfcd0cb3486036414eb",
            "0x000000000000000000000000f4a4493b788b94f5090aaf182cb78be72208809f"
          ],
          "data": "0x",
          "blockHash": "0x70737b61c85bdc436e85309b19e958e8acc4aa1c720d34690ee6e9c006f1a198",
          "blockNumber": "0x122ae68b",
          "transactionHash": "0x6448b9e41829ddbde2e6f23e958b383436fdec4e3b62511664f586a83a3c27f9",
          "transactionIndex": "0x1",
          "logIndex": "0x2",
          "removed": false
        },
        {
          "address": "0xd9feee8a509a0ecafd93e7661ff42eddaaa49692",
          "topics": [
            "0x19982f258a5a6333c515c00cc9c1cff71b8073634dd3514cda97a39c402b3a95",
            "0x000000000000000000000000dafed9a0a40f810fcb5c3dfcd0cb3486036414eb"
          ],
          "data": "0x00000000000000000000000000000000000000000000000053444835ec58000000000000000000000000000000000000000000000000000029a2241af62c00000000000000000000000000000000000000000000000000007ce66c50e2840000000000000000000000000000000000000000000000000001158e460913d00000",
          "blockHash": "0x70737b61c85bdc436e85309b19e958e8acc4aa1c720d34690ee6e9c006f1a198",
          "blockNumber": "0x122ae68b",
          "transactionHash": "0x6448b9e41829ddbde2e6f23e958b383436fdec4e3b62511664f586a83a3c27f9",
          "transactionIndex": "0x1",
          "logIndex": "0x3",
          "removed": false
        },
        {
          "address": "0xd9feee8a509a0ecafd93e7661ff42eddaaa49692",
          "topics": [
            "0xc7f505b2f371ae2175ee4913f4499e1f2633a7b5936321eed1cdaeb6115181d2"
          ],
          "data": "0x0000000000000000000000000000000000000000000000000000000000000001",
          "blockHash": "0x70737b61c85bdc436e85309b19e958e8acc4aa1c720d34690ee6e9c006f1a198",
          "blockNumber": "0x122ae68b",
          "transactionHash": "0x6448b9e41829ddbde2e6f23e958b383436fdec4e3b62511664f586a83a3c27f9",
          "transactionIndex": "0x1",
          "logIndex": "0x4",
          "removed": false
        }
      ],
      "logsBloom": "0x00000000000008000000000000000000000000001000000000800000000000000000000000000000000000000000000000000000000000000000000000000000000000000001000000000000001000000001000000000010000000000000000001000000020000000000200000000800002000000000000000000000000004400000000000800800000800000000080000010000000080000000000000002000010000000000000000000000000000000000000000000000000000000000000000000000000000000080000000000000000000000004000000800000000022001000000000000004000000000000800000000000000000000000000000000000",
      "type": "0x2",
      "transactionHash": "0x6448b9e41829ddbde2e6f23e958b383436fdec4e3b62511664f586a83a3c27f9",
      "transactionIndex": "0x1",
      "blockHash": "0x70737b61c85bdc436e85309b19e958e8acc4aa1c720d34690ee6e9c006f1a198",
      "blockNumber": "0x122ae68b",
      "gasUsed": "0x8f046",
      "effectiveGasPrice": "0x989680",
      "from": "0xdafed9a0a40f810fcb5c3dfcd0cb3486036414eb",
      "to": null,
      "contractAddress": "0xd9feee8a509a0ecafd93e7661ff42eddaaa49692",
      "gasUsedForL1": "0x9370",
      "l1BlockNumber": "0x14cf360"
    },
    {
      "status": "0x1",
      "cumulativeGasUsed": "0x1ca1e",
      "logs": [
        {
          "address": "0xaf88d065e77c8cc2239327c5edb3a432268e5831",
          "topics": [
            "0x8c5be1e5ebec7d5bd14f71427d1e84f3dd0314c0f7b2291e5b200ac8c7c3b925",
            "0x00000000000000000000000055d9615c3befe4b991d864892db2aaa6bcefc16c",
            "0x000000000000000000000000d9feee8a509a0ecafd93e7661ff42eddaaa49692"
          ],
          "data": "0xffffffffffffffffffffffffffffffffffffffffffffffffffffffffffffffff",
          "blockHash": "0x92ff73353f5e27926b90fdbb3defd8a0158d63fac2d6e63fd858c79f98ec24c5",
          "blockNumber": "0x122ae68e",
          "transactionHash": "0x5779936e7e63bb4b9cb0bd26d41991b6545ce70893edb879795dd9710021e7bb",
          "transactionIndex": "0x1",
          "logIndex": "0x0",
          "removed": false
        },
        {
          "address": "0x55d9615c3befe4b991d864892db2aaa6bcefc16c",
          "topics": [
            "0xe4cec16b1a7e6b7979e923da619a8b1e5fd0f0fb6e5c1cf647f350430ee61ca9"
          ],
          "data": "0x000000000000000000000000dafed9a0a40f810fcb5c3dfcd0cb3486036414eb000000000000000000000000d9feee8a509a0ecafd93e7661ff42eddaaa49692",
          "blockHash": "0x92ff73353f5e27926b90fdbb3defd8a0158d63fac2d6e63fd858c79f98ec24c5",
          "blockNumber": "0x122ae68e",
          "transactionHash": "0x5779936e7e63bb4b9cb0bd26d41991b6545ce70893edb879795dd9710021e7bb",
          "transactionIndex": "0x1",
          "logIndex": "0x1",
          "removed": false
        }
      ],
      "logsBloom": "0x00000200000000001000000000000000000800000000000000000000000000000000000000000080000000000000000000000101000000000000000000200000000000000000000000000000000000000000000000000000000000000000000000000000000000000000000000000000000000000000000000000000000000000000000000000000000000000000000000840000000000000000000000000000020002000000000000000000000000000000080000000000000000000000000000002000000000000000000000000100000000000000000000000000000000000010000000000000000000000001200000000000000000000000000000000008",
      "type": "0x2",
      "transactionHash": "0x5779936e7e63bb4b9cb0bd26d41991b6545ce70893edb879795dd9710021e7bb",
      "transactionIndex": "0x1",
      "blockHash": "0x92ff73353f5e27926b90fdbb3defd8a0158d63fac2d6e63fd858c79f98ec24c5",
      "blockNumber": "0x122ae68e",
      "gasUsed": "0x1ca1e",
      "effectiveGasPrice": "0x989680",
      "from": "0xdafed9a0a40f810fcb5c3dfcd0cb3486036414eb",
      "to": "0x55d9615c3befe4b991d864892db2aaa6bcefc16c",
      "contractAddress": null,
      "gasUsedForL1": "0x11c9",
      "l1BlockNumber": "0x14cf360"
    },
    {
      "status": "0x1",
      "cumulativeGasUsed": "0xcf393",
      "logs": [
        {
          "address": "0x46c86dd2c8a2a5013861a13761b48c5992b96f1e",
          "topics": [
            "0x1cf3b03a6cf19fa2baba4df148e9dcabedea7f8a5c07840e207e5c089be95d3e",
            "0x000000000000000000000000d530b7769eb06d2c47178db7f7a37f9a24e46837"
          ],
          "data": "0x",
          "blockHash": "0x3a3b1452e28b2e54df19c758d9ab95e9995700ac5bab10db61efd9ceb296c217",
          "blockNumber": "0x122ae691",
          "transactionHash": "0x63f5abb6d7e70e15a01f32b7097464e7de17c84a2a19e828dc75ade4938d11b0",
          "transactionIndex": "0x2",
          "logIndex": "0x1",
          "removed": false
        },
        {
          "address": "0x46c86dd2c8a2a5013861a13761b48c5992b96f1e",
          "topics": [
            "0x8be0079c531659141344cd1fd0a4f28419497f9722a3daafe3b4186f6b6457e0",
            "0x0000000000000000000000000000000000000000000000000000000000000000",
            "0x000000000000000000000000dafed9a0a40f810fcb5c3dfcd0cb3486036414eb"
          ],
          "data": "0x",
          "blockHash": "0x3a3b1452e28b2e54df19c758d9ab95e9995700ac5bab10db61efd9ceb296c217",
          "blockNumber": "0x122ae691",
          "transactionHash": "0x63f5abb6d7e70e15a01f32b7097464e7de17c84a2a19e828dc75ade4938d11b0",
          "transactionIndex": "0x2",
          "logIndex": "0x2",
          "removed": false
        },
        {
          "address": "0xaf88d065e77c8cc2239327c5edb3a432268e5831",
          "topics": [
            "0x8c5be1e5ebec7d5bd14f71427d1e84f3dd0314c0f7b2291e5b200ac8c7c3b925",
            "0x00000000000000000000000046c86dd2c8a2a5013861a13761b48c5992b96f1e",
            "0x000000000000000000000000d9feee8a509a0ecafd93e7661ff42eddaaa49692"
          ],
          "data": "0xffffffffffffffffffffffffffffffffffffffffffffffffffffffffffffffff",
          "blockHash": "0x3a3b1452e28b2e54df19c758d9ab95e9995700ac5bab10db61efd9ceb296c217",
          "blockNumber": "0x122ae691",
          "transactionHash": "0x63f5abb6d7e70e15a01f32b7097464e7de17c84a2a19e828dc75ade4938d11b0",
          "transactionIndex": "0x2",
          "logIndex": "0x3",
          "removed": false
        },
        {
          "address": "0x46c86dd2c8a2a5013861a13761b48c5992b96f1e",
          "topics": [
            "0xc7f505b2f371ae2175ee4913f4499e1f2633a7b5936321eed1cdaeb6115181d2"
          ],
          "data": "0x0000000000000000000000000000000000000000000000000000000000000001",
          "blockHash": "0x3a3b1452e28b2e54df19c758d9ab95e9995700ac5bab10db61efd9ceb296c217",
          "blockNumber": "0x122ae691",
          "transactionHash": "0x63f5abb6d7e70e15a01f32b7097464e7de17c84a2a19e828dc75ade4938d11b0",
          "transactionIndex": "0x2",
          "logIndex": "0x4",
          "removed": false
        }
      ],
      "logsBloom": "0x00000001000008000000000000000000000000000040000000800000000000000000000000000080000000000000000008000001000400004000000080200000000000000001000000000000001000000001000020000010000000000000000000000000020000000000000000000800000000000000000000000000000000400000000000000000000800000000080000000000000080000000000000000000020002000000000000000000000000000000000000000000000000000000000000002000000000000000000000000100000000000004000000800000000020000010000000000000000000000100200000000000000000000000000400000000",
      "type": "0x2",
      "transactionHash": "0x63f5abb6d7e70e15a01f32b7097464e7de17c84a2a19e828dc75ade4938d11b0",
      "transactionIndex": "0x2",
      "blockHash": "0x3a3b1452e28b2e54df19c758d9ab95e9995700ac5bab10db61efd9ceb296c217",
      "blockNumber": "0x122ae691",
      "gasUsed": "0xb1736",
      "effectiveGasPrice": "0x989680",
      "from": "0xdafed9a0a40f810fcb5c3dfcd0cb3486036414eb",
      "to": null,
      "contractAddress": "0x46c86dd2c8a2a5013861a13761b48c5992b96f1e",
      "gasUsedForL1": "0x94fd",
      "l1BlockNumber": "0x14cf360"
    },
    {
      "status": "0x1",
      "cumulativeGasUsed": "0x558ad",
      "logs": [
        {
          "address": "0xd9feee8a509a0ecafd93e7661ff42eddaaa49692",
          "topics": [
            "0xd95be3f58e228f591dc02325de1e49194cbc10cd10b209cb74ec68c4d0f5fec2",
            "0x000000000000000000000000dafed9a0a40f810fcb5c3dfcd0cb3486036414eb",
            "0x00000000000000000000000046c86dd2c8a2a5013861a13761b48c5992b96f1e"
          ],
          "data": "0x",
          "blockHash": "0xac29906cfb2844bd8fd76efaf9399a3ef0c5402d2dd59018636b1c06d8ba71e1",
          "blockNumber": "0x122ae693",
          "transactionHash": "0x4393d39f1193cf6f1c1257d5ab3707be8a899a925acf805957710732349eb13d",
          "transactionIndex": "0x4",
          "logIndex": "0x4",
          "removed": false
        }
      ],
      "logsBloom": "0x00000000000008000000000000000000000000001000000004000000000000000000000000000000000000000000000000000000000000004000000000000000000000000001000000000000000000000000000020000010000000000020000000000000000000000000000000000000000000000000000000000000000000000000000000000800000000000000000000000000000000000000000000000000000000000000000000000000000000000000000000000000000000000000000000000000000000000000000000000000400000000000000000000000000000001000000000000000000000000000000000000000000000000000000400000000",
      "type": "0x2",
      "transactionHash": "0x4393d39f1193cf6f1c1257d5ab3707be8a899a925acf805957710732349eb13d",
      "transactionIndex": "0x4",
      "blockHash": "0xac29906cfb2844bd8fd76efaf9399a3ef0c5402d2dd59018636b1c06d8ba71e1",
      "blockNumber": "0x122ae693",
      "gasUsed": "0x140b2",
      "effectiveGasPrice": "0x989680",
      "from": "0xdafed9a0a40f810fcb5c3dfcd0cb3486036414eb",
      "to": "0xd9feee8a509a0ecafd93e7661ff42eddaaa49692",
      "contractAddress": null,
      "gasUsedForL1": "0x11e8",
      "l1BlockNumber": "0x14cf360"
    },
    {
      "status": "0x1",
      "cumulativeGasUsed": "0x6bdbb",
      "logs": [
        {
          "address": "0x2f95aa93cd710d672e80dadd7064ea4002184bd3",
          "topics": [
            "0x1cf3b03a6cf19fa2baba4df148e9dcabedea7f8a5c07840e207e5c089be95d3e",
            "0x0000000000000000000000008656c2b6adf31812b3c37bac58adc8917c83d8f8"
          ],
          "data": "0x",
          "blockHash": "0x75af3fab4d4c93d3d845b02d38395475b8011a82db665f2d1948a35cc7f9a394",
          "blockNumber": "0x122ae696",
          "transactionHash": "0x5f4f4be83c909292371a8759bae3b5f5645bd8f44f62511c1a66568dfe2e1ed7",
          "transactionIndex": "0x1",
          "logIndex": "0x0",
          "removed": false
        },
        {
          "address": "0x2f95aa93cd710d672e80dadd7064ea4002184bd3",
          "topics": [
            "0x8be0079c531659141344cd1fd0a4f28419497f9722a3daafe3b4186f6b6457e0",
            "0x0000000000000000000000000000000000000000000000000000000000000000",
            "0x000000000000000000000000dafed9a0a40f810fcb5c3dfcd0cb3486036414eb"
          ],
          "data": "0x",
          "blockHash": "0x75af3fab4d4c93d3d845b02d38395475b8011a82db665f2d1948a35cc7f9a394",
          "blockNumber": "0x122ae696",
          "transactionHash": "0x5f4f4be83c909292371a8759bae3b5f5645bd8f44f62511c1a66568dfe2e1ed7",
          "transactionIndex": "0x1",
          "logIndex": "0x1",
          "removed": false
        },
        {
          "address": "0x2f95aa93cd710d672e80dadd7064ea4002184bd3",
          "topics": [
            "0xee7760cb405d3beb1072ae2e716857daa45a5dd52bc1383a21173199d32c7dee",
            "0x000000000000000000000000dafed9a0a40f810fcb5c3dfcd0cb3486036414eb",
            "0x000000000000000000000000195fa26fb43d15567c3a99049f57b8db992643d6"
          ],
          "data": "0x",
          "blockHash": "0x75af3fab4d4c93d3d845b02d38395475b8011a82db665f2d1948a35cc7f9a394",
          "blockNumber": "0x122ae696",
          "transactionHash": "0x5f4f4be83c909292371a8759bae3b5f5645bd8f44f62511c1a66568dfe2e1ed7",
          "transactionIndex": "0x1",
          "logIndex": "0x2",
          "removed": false
        },
        {
          "address": "0xaf88d065e77c8cc2239327c5edb3a432268e5831",
          "topics": [
            "0x8c5be1e5ebec7d5bd14f71427d1e84f3dd0314c0f7b2291e5b200ac8c7c3b925",
            "0x0000000000000000000000002f95aa93cd710d672e80dadd7064ea4002184bd3",
            "0x000000000000000000000000d9feee8a509a0ecafd93e7661ff42eddaaa49692"
          ],
          "data": "0xffffffffffffffffffffffffffffffffffffffffffffffffffffffffffffffff",
          "blockHash": "0x75af3fab4d4c93d3d845b02d38395475b8011a82db665f2d1948a35cc7f9a394",
          "blockNumber": "0x122ae696",
          "transactionHash": "0x5f4f4be83c909292371a8759bae3b5f5645bd8f44f62511c1a66568dfe2e1ed7",
          "transactionIndex": "0x1",
          "logIndex": "0x3",
          "removed": false
        },
        {
          "address": "0x2f95aa93cd710d672e80dadd7064ea4002184bd3",
          "topics": [
            "0xc7f505b2f371ae2175ee4913f4499e1f2633a7b5936321eed1cdaeb6115181d2"
          ],
          "data": "0x0000000000000000000000000000000000000000000000000000000000000001",
          "blockHash": "0x75af3fab4d4c93d3d845b02d38395475b8011a82db665f2d1948a35cc7f9a394",
          "blockNumber": "0x122ae696",
          "transactionHash": "0x5f4f4be83c909292371a8759bae3b5f5645bd8f44f62511c1a66568dfe2e1ed7",
          "transactionIndex": "0x1",
          "logIndex": "0x4",
          "removed": false
        }
      ],
      "logsBloom": "0x00000000000108000000004000000000000000040000000000800000000000000000000000000080000000000000000000000001000000000000000000200000000000000001000000000000001000000001000000000010000000000000000000000000020000000000000000000800100000000000000000000000880000400000000000900000000800000000080000000000000080000088000000000000020006000000000000020000000000000000000000000000000000000000000080002000000000000000000000000100000000000004000000800000000020000010000000000000000002000000200000000000000000000000000000000000",
      "type": "0x2",
      "transactionHash": "0x5f4f4be83c909292371a8759bae3b5f5645bd8f44f62511c1a66568dfe2e1ed7",
      "transactionIndex": "0x1",
      "blockHash": "0x75af3fab4d4c93d3d845b02d38395475b8011a82db665f2d1948a35cc7f9a394",
      "blockNumber": "0x122ae696",
      "gasUsed": "0x6bdbb",
      "effectiveGasPrice": "0x989680",
      "from": "0xdafed9a0a40f810fcb5c3dfcd0cb3486036414eb",
      "to": null,
      "contractAddress": "0x2f95aa93cd710d672e80dadd7064ea4002184bd3",
      "gasUsedForL1": "0x8a9a",
      "l1BlockNumber": "0x14cf360"
    },
    {
      "status": "0x1",
      "cumulativeGasUsed": "0x12933",
      "logs": [
        {
          "address": "0xd9feee8a509a0ecafd93e7661ff42eddaaa49692",
          "topics": [
            "0x0813bc74dde0091f04cdeeaae076c8731bd585a408ed95332319b650cfa48be8",
            "0x000000000000000000000000dafed9a0a40f810fcb5c3dfcd0cb3486036414eb",
            "0x0000000000000000000000002f95aa93cd710d672e80dadd7064ea4002184bd3"
          ],
          "data": "0x",
          "blockHash": "0x177dee01bce772102571c206f2b387a4e36f06c5abe8a82a4e1f054623954edd",
          "blockNumber": "0x122ae699",
          "transactionHash": "0x1be8626181dc029659c799fe6d83cc43557a49b149c40cc147e6953d515bd60c",
          "transactionIndex": "0x1",
          "logIndex": "0x0",
          "removed": false
        }
      ],
      "logsBloom": "0x00000000000008000000004000000000000000001000000000000000000000000000000000000000000000000000000000000000000000000000000000000000000000000001000000000000000000000000000000000030000000000000000000000000000000000000000000000000000000000000000000000000000000000000000000000800000000000000000000040000000000000000000000000000000004000000000000020000000000000000000000004000000000000000000000000000000000000000000000000000000000000000000000000000000000001000000000000000000000000000000000000000000000000000000000000000",
      "type": "0x2",
      "transactionHash": "0x1be8626181dc029659c799fe6d83cc43557a49b149c40cc147e6953d515bd60c",
      "transactionIndex": "0x1",
      "blockHash": "0x177dee01bce772102571c206f2b387a4e36f06c5abe8a82a4e1f054623954edd",
      "blockNumber": "0x122ae699",
      "gasUsed": "0x12933",
      "effectiveGasPrice": "0x989680",
      "from": "0xdafed9a0a40f810fcb5c3dfcd0cb3486036414eb",
      "to": "0xd9feee8a509a0ecafd93e7661ff42eddaaa49692",
      "contractAddress": null,
      "gasUsedForL1": "0x11e8",
      "l1BlockNumber": "0x14cf360"
    }
  ],
  "libraries": [],
  "pending": [],
  "returns": {},
  "timestamp": 1739240415,
  "chain": 42161,
  "commit": "241ae06"
}