{
  "transactions": [
    {
      "hash": "0x7e88d911c038cedd56b85527a205e6725088650b339081882ca04e336d499a82",
      "transactionType": "CALL",
      "contractName": null,
      "contractAddress": "0xff39c5eeeeff8e119e26065c4b5df15416a1b61f",
      "function": "setManualSwapPath(address[])",
      "arguments": [
        "[0x833589fCD6eDb6E08f4c7C32D4f71b54bdA02913, 0xd0b53D9277642d899DF5C87A3966A349A798F224, 0x4200000000000000000000000000000000000006, 0xE31c372a7Af875b3B5E0F3713B17ef51556da667, 0x0b3e328455c4059EEb9e3f84b5543F74E24e7E1b]"
      ],
      "transaction": {
        "from": "0xdafed9a0a40f810fcb5c3dfcd0cb3486036414eb",
        "to": "0xff39c5eeeeff8e119e26065c4b5df15416a1b61f",
        "gas": "0x4fb4f",
        "value": "0x0",
        "input": "0xae4a5af500000000000000000000000000000000000000000000000000000000000000200000000000000000000000000000000000000000000000000000000000000005000000000000000000000000833589fcd6edb6e08f4c7c32d4f71b54bda02913000000000000000000000000d0b53d9277642d899df5c87a3966a349a798f2240000000000000000000000004200000000000000000000000000000000000006000000000000000000000000e31c372a7af875b3b5e0f3713b17ef51556da6670000000000000000000000000b3e328455c4059eeb9e3f84b5543f74e24e7e1b",
        "nonce": "0x14",
        "chainId": "0x2105"
      },
      "additionalContracts": [],
      "isFixedGasLimit": false
    }
  ],
  "receipts": [
    {
      "status": "0x1",
      "cumulativeGasUsed": "0x357e517",
      "logs": [],
      "logsBloom": "0x00000000000000000000000000000000000000000000000000000000000000000000000000000000000000000000000000000000000000000000000000000000000000000000000000000000000000000000000000000000000000000000000000000000000000000000000000000000000000000000000000000000000000000000000000000000000000000000000000000000000000000000000000000000000000000000000000000000000000000000000000000000000000000000000000000000000000000000000000000000000000000000000000000000000000000000000000000000000000000000000000000000000000000000000000000000",
      "type": "0x2",
      "transactionHash": "0x7e88d911c038cedd56b85527a205e6725088650b339081882ca04e336d499a82",
      "transactionIndex": "0x5b",
      "blockHash": "0xeac4927fbf5af50342065532b8479ea4dd309adce5c8208fde9c713b41369cb9",
      "blockNumber": "0x1909109",
      "gasUsed": "0x36802",
      "effectiveGasPrice": "0x4f8837",
      "from": "0xdafed9a0a40f810fcb5c3dfcd0cb3486036414eb",
      "to": "0xff39c5eeeeff8e119e26065c4b5df15416a1b61f",
      "contractAddress": null,
      "l1BaseFeeScalar": "0x8dd",
      "l1BlobBaseFee": "0x21cb84445",
      "l1BlobBaseFeeScalar": "0x101c12",
      "l1Fee": "0x1775f1711ff",
      "l1GasPrice": "0x59afd34e",
      "l1GasUsed": "0xa76"
    }
  ],
  "libraries": [],
  "pending": [],
  "returns": {},
  "timestamp": 1739292521,
  "chain": 8453,
  "commit": "02aaeba"
}