{
  "transactions": [
    {
      "hash": "0x2ba858b291e20c6b8b26a8d9d5d4445a33114fca68517c1beaf74f4c926df6df",
      "transactionType": "CALL",
      "contractName": null,
      "contractAddress": "0x2bb34d36cc88c77f8057b4df1c14434bfa117673",
      "function": "authorize(address)",
      "arguments": [
        "0xE6317bB95fc9F69f72a0bDE8aBE23A01F76fC413"
      ],
      "transaction": {
        "from": "0xdafed9a0a40f810fcb5c3dfcd0cb3486036414eb",
        "to": "0x2bb34d36cc88c77f8057b4df1c14434bfa117673",
        "gas": "0x989af",
        "value": "0x0",
        "input": "0xb6a5d7de000000000000000000000000e6317bb95fc9f69f72a0bde8abe23a01f76fc413",
        "nonce": "0x18f",
        "chainId": "0xa4b1"
      },
      "additionalContracts": [],
      "isFixedGasLimit": false
    },
    {
      "hash": "0x503a6851382d63994234dc8a58552d5569716429ca5205505cfadf519c2c7a35",
      "transactionType": "CALL",
      "contractName": null,
      "contractAddress": "0x2bb34d36cc88c77f8057b4df1c14434bfa117673",
      "function": "authorize(address)",
      "arguments": [
        "0x369df603b4fb77632C38Aadc0DfE5c06CC0f2b9D"
      ],
      "transaction": {
        "from": "0xdafed9a0a40f810fcb5c3dfcd0cb3486036414eb",
        "to": "0x2bb34d36cc88c77f8057b4df1c14434bfa117673",
        "gas": "0x989af",
        "value": "0x0",
        "input": "0xb6a5d7de000000000000000000000000369df603b4fb77632c38aadc0dfe5c06cc0f2b9d",
        "nonce": "0x190",
        "chainId": "0xa4b1"
      },
      "additionalContracts": [],
      "isFixedGasLimit": false
    },
    {
      "hash": "0x57e53e712ed698178a33b7be3da3e8917ec71794c58a3246bc8c98415bbc8451",
      "transactionType": "CALL",
      "contractName": null,
      "contractAddress": "0x2bb34d36cc88c77f8057b4df1c14434bfa117673",
      "function": "registerDstMessenger(uint256,uint32,bytes32)",
      "arguments": [
        "8453",
        "30184",
        "0x00000000000000000000000078dce1bc2498a042035efd139567a6dc0a077c46"
      ],
      "transaction": {
        "from": "0xdafed9a0a40f810fcb5c3dfcd0cb3486036414eb",
        "to": "0x2bb34d36cc88c77f8057b4df1c14434bfa117673",
        "gas": "0xd2580",
        "value": "0x0",
        "input": "0xaeb3c756000000000000000000000000000000000000000000000000000000000000210500000000000000000000000000000000000000000000000000000000000075e800000000000000000000000078dce1bc2498a042035efd139567a6dc0a077c46",
        "nonce": "0x191",
        "chainId": "0xa4b1"
      },
      "additionalContracts": [],
      "isFixedGasLimit": false
    }
  ],
  "receipts": [
    {
      "status": "0x1",
      "cumulativeGasUsed": "0x1e96c1",
      "logs": [
        {
          "address": "0x2bb34d36cc88c77f8057b4df1c14434bfa117673",
          "topics": [
            "0x2873eaf2ca7367f81cecd586d0d13e9ec99b66d2fda05d66e2ae88133b532e03",
            "0x000000000000000000000000dafed9a0a40f810fcb5c3dfcd0cb3486036414eb",
            "0x000000000000000000000000e6317bb95fc9f69f72a0bde8abe23a01f76fc413",
            "0x0000000000000000000000000000000000000000000000000000000000000001"
          ],
          "data": "0x",
          "blockHash": "0x6df64b51932b82824a22c6cc46b0c49a2d7cadbf1a428dbf50c63265379f53e8",
          "blockNumber": "0x122dc8f2",
          "transactionHash": "0x2ba858b291e20c6b8b26a8d9d5d4445a33114fca68517c1beaf74f4c926df6df",
          "transactionIndex": "0x3",
          "logIndex": "0x4",
          "removed": false
        }
      ],
      "logsBloom": "0x00000000000008000000000000000000000000000000000000000010000000000000000000000000000000000000000000080000000000002000000000040000000000000001000000000000000800000000002000040010000000000000000000000000000000000000000000000000200000000000000000000000000000000000000000000000000000000000000000000000000000000000000000000000000000000000000000000000000002000000000000000000000000000000000000000000000000000000000000000000000000000000000000000000000040000000000000000000000200000000000000000000000000000000000000000400",
      "type": "0x2",
      "transactionHash": "0x2ba858b291e20c6b8b26a8d9d5d4445a33114fca68517c1beaf74f4c926df6df",
      "transactionIndex": "0x3",
      "blockHash": "0x6df64b51932b82824a22c6cc46b0c49a2d7cadbf1a428dbf50c63265379f53e8",
      "blockNumber": "0x122dc8f2",
      "gasUsed": "0x5afca",
      "effectiveGasPrice": "0x989680",
      "from": "0xdafed9a0a40f810fcb5c3dfcd0cb3486036414eb",
      "to": "0x2bb34d36cc88c77f8057b4df1c14434bfa117673",
      "contractAddress": null,
      "gasUsedForL1": "0x4f2fe",
      "l1BlockNumber": "0x14d02c3"
    },
    {
      "status": "0x1",
      "cumulativeGasUsed": "0x33f3a2",
      "logs": [
        {
          "address": "0x2bb34d36cc88c77f8057b4df1c14434bfa117673",
          "topics": [
            "0x2873eaf2ca7367f81cecd586d0d13e9ec99b66d2fda05d66e2ae88133b532e03",
            "0x000000000000000000000000dafed9a0a40f810fcb5c3dfcd0cb3486036414eb",
            "0x000000000000000000000000369df603b4fb77632c38aadc0dfe5c06cc0f2b9d",
            "0x0000000000000000000000000000000000000000000000000000000000000001"
          ],
          "data": "0x",
          "blockHash": "0xe594a647810456d7a0342a90fba59444d647879fae276b032b513ea756743a05",
          "blockNumber": "0x122dc8f9",
          "transactionHash": "0x503a6851382d63994234dc8a58552d5569716429ca5205505cfadf519c2c7a35",
          "transactionIndex": "0x3",
          "logIndex": "0x1",
          "removed": false
        }
      ],
      "logsBloom": "0x00000000000008000000000000000000000000000000000000000010000000000000000000000000000000000000000000080000000000000000000000040000000000000001000000000000000804000000000000040010000000000000000000000000000000000000000000000000200000000000000000000000000000000000000000000000000208000000000000000000000000000000000000000000000000000000000000000000000000000000000000000000000000000000000000000000000000000000000000000000000000000000000000000000000040000000000000000000000200000000000000000000000000000000000000000400",
      "type": "0x2",
      "transactionHash": "0x503a6851382d63994234dc8a58552d5569716429ca5205505cfadf519c2c7a35",
      "transactionIndex": "0x3",
      "blockHash": "0xe594a647810456d7a0342a90fba59444d647879fae276b032b513ea756743a05",
      "blockNumber": "0x122dc8f9",
      "gasUsed": "0x5afca",
      "effectiveGasPrice": "0x989680",
      "from": "0xdafed9a0a40f810fcb5c3dfcd0cb3486036414eb",
      "to": "0x2bb34d36cc88c77f8057b4df1c14434bfa117673",
      "contractAddress": null,
      "gasUsedForL1": "0x4f2fe",
      "l1BlockNumber": "0x14d02c4"
    },
    {
      "status": "0x1",
      "cumulativeGasUsed": "0x3d4945",
      "logs": [
        {
          "address": "0x2bb34d36cc88c77f8057b4df1c14434bfa117673",
          "topics": [
            "0xd50ff69c79b893c20f594eecca06c9393fd841168a3714f0effaa2fed2489c06",
            "0x000000000000000000000000dafed9a0a40f810fcb5c3dfcd0cb3486036414eb",
            "0x0000000000000000000000000000000000000000000000000000000000002105",
            "0x00000000000000000000000000000000000000000000000000000000000075e8"
          ],
          "data": "0x",
          "blockHash": "0x239703505da164dff370d54c5221940a5408970668e4ec29f8fada35f603f22e",
          "blockNumber": "0x122dc8ff",
          "transactionHash": "0x57e53e712ed698178a33b7be3da3e8917ec71794c58a3246bc8c98415bbc8451",
          "transactionIndex": "0x8",
          "logIndex": "0x17",
          "removed": false
        },
        {
          "address": "0x2bb34d36cc88c77f8057b4df1c14434bfa117673",
          "topics": [
            "0x1ebea6fd4593ac63ed0ff216dd74e38897c48d4e4ff7b6c31fc6cf89ba4f89ed",
            "0x000000000000000000000000dafed9a0a40f810fcb5c3dfcd0cb3486036414eb",
            "0x00000000000000000000000000000000000000000000000000000000000075e8"
          ],
          "data": "0x00000000000000000000000078dce1bc2498a042035efd139567a6dc0a077c46",
          "blockHash": "0x239703505da164dff370d54c5221940a5408970668e4ec29f8fada35f603f22e",
          "blockNumber": "0x122dc8ff",
          "transactionHash": "0x57e53e712ed698178a33b7be3da3e8917ec71794c58a3246bc8c98415bbc8451",
          "transactionIndex": "0x8",
          "logIndex": "0x18",
          "removed": false
        }
      ],
      "logsBloom": "0x00000000000048000000000000000000000000000000000000000000000000000000000000008000000000000000000000080000000000000001000010000000000000000001000000000000000800000000000000000010000020000000000000010000000000000000000000000000000000000000000000000000000000000000000000004000000000000000000000010000000000000000080020000000000000000000000000000000000000000000000000000000000000000000000000000000040000000000000000000000000000000000000001000000000000000000000000000000000000000000000000000000000000000000000000000400",
      "type": "0x2",
      "transactionHash": "0x57e53e712ed698178a33b7be3da3e8917ec71794c58a3246bc8c98415bbc8451",
      "transactionIndex": "0x8",
      "blockHash": "0x239703505da164dff370d54c5221940a5408970668e4ec29f8fada35f603f22e",
      "blockNumber": "0x122dc8ff",
      "gasUsed": "0x8341d",
      "effectiveGasPrice": "0x989680",
      "from": "0xdafed9a0a40f810fcb5c3dfcd0cb3486036414eb",
      "to": "0x2bb34d36cc88c77f8057b4df1c14434bfa117673",
      "contractAddress": null,
      "gasUsedForL1": "0x71806",
      "l1BlockNumber": "0x14d02c4"
    }
  ],
  "libraries": [],
  "pending": [],
  "returns": {},
  "timestamp": 1739288069,
  "chain": 42161,
  "commit": "aedfac0"
}