{
  "transactions": [
    {
      "hash": "0x2f509f92003348ff5370c0dc3bfc230efccbb511aa5fb23ec9f0e7d2978369d4",
      "transactionType": "CREATE",
      "contractName": "RescueStrategy",
      "contractAddress": "0xaa92ef35f866f0ede56cbd73331f9808eb71c8b8",
      "function": null,
      "arguments": null,
      "transaction": {
        "from": "0xd1dd21d53ec43c8fe378e51029aa3f380b229c98",
        "gas": "0xb602a",
        "value": "0x0",
        "input": "0x60a08060405234602857306080526105ac908161002d823960805181818160ff01526101e70152f35b5f80fdfe6080604081815260049182361015610015575f80fd5b5f3560e01c9081631fbe1979146103ba575080634f1ef2861461016357806352d1902d146100ec5763ad3cb1cc1461004b575f80fd5b346100e8575f3660031901126100e8578051918183019083821067ffffffffffffffff8311176100d557508152600582526020640352e302e360dc1b60208401528151928391602083528151918260208501525f5b8381106100bf5750505f83830185015250601f01601f19168101030190f35b81810183015187820187015286945082016100a0565b604190634e487b7160e01b5f525260245ffd5b5f80fd5b50346100e8575f3660031901126100e8577f00000000000000000000000000000000000000000000000000000000000000006001600160a01b0316300361015657602090517f360894a13ba1a3210667c828492db98dca3e2076cc3735a920a3ca505d382bbc8152f35b5163703e46dd60e11b8152fd5b5090816003193601126100e8576001600160a01b0391813583811691908281036100e85760249485359167ffffffffffffffff83116100e857366023840112156100e85782860135916101b5836104f7565b906101c2865192836104c1565b83825260209384830195368b83830101116100e857815f928c889301893784010152807f00000000000000000000000000000000000000000000000000000000000000001680301491821561038c575b505061037c5784516352d1902d60e01b8152838189818a5afa5f918161034d575b5061024e5750505050505191634c9c8ce360e01b8352820152fd5b9087878794938b7f360894a13ba1a3210667c828492db98dca3e2076cc3735a920a3ca505d382bbc918281036103385750853b15610324575080546001600160a01b031916821790558451907fbc7cd75a20ee27fd9adebab32041f755214dbc6bffa90cc0225b39da2e5c2d3b5f80a282511561030a5750505f6102fe9581925190845af4913d15610300573d6102f06102e7826104f7565b925192836104c1565b81525f81943d92013e610513565b005b5060609250610513565b945094505050503461031857005b63b398979f60e01b8152fd5b8651634c9c8ce360e01b8152808501849052fd5b8751632a87526960e21b815280860191909152fd5b9091508481813d8311610375575b61036581836104c1565b810103126100e85751905f610233565b503d61035b565b845163703e46dd60e11b81528790fd5b7f360894a13ba1a3210667c828492db98dca3e2076cc3735a920a3ca505d382bbc5416141590505f80610212565b8383346100e8575f3660031901126100e8576370a0823160e01b8352308284015260209173af88d065e77c8cc2239327c5edb3a432268e58318385602481845afa9485156104b7575f95610485575b50604484925f734f42fa2f07f81e6e1d348245ecb7ebffc5267be0938651988995869463a9059cbb60e01b865285015260248401525af190811561047c575061044e57005b81813d8311610475575b61046281836104c1565b810103126100e85751801515036100e857005b503d610458565b513d5f823e3d90fd5b919094508382813d83116104b0575b61049e81836104c1565b810103126100e8579051936044610409565b503d610494565b83513d5f823e3d90fd5b90601f8019910116810190811067ffffffffffffffff8211176104e357604052565b634e487b7160e01b5f52604160045260245ffd5b67ffffffffffffffff81116104e357601f01601f191660200190565b9061053a575080511561052857805190602001fd5b604051630a12f52160e11b8152600490fd5b8151158061056d575b61054b575090565b604051639996b31560e01b81526001600160a01b039091166004820152602490fd5b50803b1561054356fea2646970667358221220b4f9f33a8f88bee415d04fadfb558b3bf4177726c329fc9a259d31c9803914da64736f6c63430008190033",
        "nonce": "0x15a",
        "chainId": "0xa4b1"
      },
      "additionalContracts": [],
      "isFixedGasLimit": false
    },
    {
      "hash": "0xcb102c80e62e6d29521ce43714d674608348c2c11e932689ffd76728f5118020",
      "transactionType": "CALL",
      "contractName": null,
      "contractAddress": "0x8baab907986eb5d34e11b1a128f38e5085a9a24f",
      "function": "upgradeToAndCall(address,bytes)",
      "arguments": [
        "0xaA92eF35f866f0edE56cBd73331F9808eB71c8b8",
        "0x1fbe197900000000000000000000000000000000000000000000000000000000000000200000000000000000000000000000000000000000000000000000000000000000"
      ],
      "transaction": {
        "from": "0xd1dd21d53ec43c8fe378e51029aa3f380b229c98",
        "to": "0x8baab907986eb5d34e11b1a128f38e5085a9a24f",
        "gas": "0x14c46",
        "value": "0x0",
        "input": "0x4f1ef286000000000000000000000000aa92ef35f866f0ede56cbd73331f9808eb71c8b8000000000000000000000000000000000000000000000000000000000000004000000000000000000000000000000000000000000000000000000000000000441fbe19790000000000000000000000000000000000000000000000000000000000000020000000000000000000000000000000000000000000000000000000000000000000000000000000000000000000000000000000000000000000000000",
        "nonce": "0x15b",
        "chainId": "0xa4b1"
      },
      "additionalContracts": [],
      "isFixedGasLimit": false
    }
  ],
  "receipts": [
    {
      "status": "0x1",
      "cumulativeGasUsed": "0xd70bd",
      "logs": [],
      "logsBloom": "0x00000000000000000000000000000000000000000000000000000000000000000000000000000000000000000000000000000000000000000000000000000000000000000000000000000000000000000000000000000000000000000000000000000000000000000000000000000000000000000000000000000000000000000000000000000000000000000000000000000000000000000000000000000000000000000000000000000000000000000000000000000000000000000000000000000000000000000000000000000000000000000000000000000000000000000000000000000000000000000000000000000000000000000000000000000000",
      "type": "0x2",
      "transactionHash": "0x2f509f92003348ff5370c0dc3bfc230efccbb511aa5fb23ec9f0e7d2978369d4",
      "transactionIndex": "0x2",
      "blockHash": "0x830d011c1ecd02c63d625ab212bf718ec7d119b1fb54df105078ed214d62c6d2",
      "blockNumber": "0xe0f207d",
      "gasUsed": "0x850aa",
      "effectiveGasPrice": "0x989680",
      "from": "0xd1dd21d53ec43c8fe378e51029aa3f380b229c98",
      "to": null,
      "contractAddress": "0xaa92ef35f866f0ede56cbd73331f9808eb71c8b8",
      "gasUsedForL1": "0x2b832",
      "l1BlockNumber": "0x13704fa"
    },
    {
      "status": "0x1",
      "cumulativeGasUsed": "0x9aad6",
      "logs": [
        {
          "address": "0x8baab907986eb5d34e11b1a128f38e5085a9a24f",
          "topics": [
            "0xbc7cd75a20ee27fd9adebab32041f755214dbc6bffa90cc0225b39da2e5c2d3b",
            "0x000000000000000000000000aa92ef35f866f0ede56cbd73331f9808eb71c8b8"
          ],
          "data": "0x",
          "blockHash": "0x1e710054ce0bb1da79a9e5c2ea27e92102d3d13d53d01a17e8ee813838e271ea",
          "blockNumber": "0xe0f2094",
          "transactionHash": "0xcb102c80e62e6d29521ce43714d674608348c2c11e932689ffd76728f5118020",
          "transactionIndex": "0x2",
          "logIndex": "0x2",
          "removed": false
        },
        {
          "address": "0xaf88d065e77c8cc2239327c5edb3a432268e5831",
          "topics": [
            "0xddf252ad1be2c89b69c2b068fc378daa952ba7f163c4a11628f55a4df523b3ef",
            "0x0000000000000000000000008baab907986eb5d34e11b1a128f38e5085a9a24f",
            "0x0000000000000000000000004f42fa2f07f81e6e1d348245ecb7ebffc5267be0"
          ],
          "data": "0x0000000000000000000000000000000000000000000000000000000000000000",
          "blockHash": "0x1e710054ce0bb1da79a9e5c2ea27e92102d3d13d53d01a17e8ee813838e271ea",
          "blockNumber": "0xe0f2094",
          "transactionHash": "0xcb102c80e62e6d29521ce43714d674608348c2c11e932689ffd76728f5118020",
          "transactionIndex": "0x2",
          "logIndex": "0x3",
          "removed": false
        }
      ],
      "logsBloom": "0x00000000000000000000000080000000400000000000000000000000000000000010000000001000000000000000000000000001000000000000000200000000000000000000000000000008000002000000000000000000000000000000000000000000000000000000000000000000000000000400000000100010000000000000000000000000100000000000000000000000000000200000000000400000000000000000000000000000000000001000000000004000000000000000000000002022000000000000000000000000000000000000000000000000000000000000000000000000000000000000200000000000000000000000000000000000",
      "type": "0x2",
      "transactionHash": "0xcb102c80e62e6d29521ce43714d674608348c2c11e932689ffd76728f5118020",
      "transactionIndex": "0x2",
      "blockHash": "0x1e710054ce0bb1da79a9e5c2ea27e92102d3d13d53d01a17e8ee813838e271ea",
      "blockNumber": "0xe0f2094",
      "gasUsed": "0x16f16",
      "effectiveGasPrice": "0x989680",
      "from": "0xd1dd21d53ec43c8fe378e51029aa3f380b229c98",
      "to": "0x8baab907986eb5d34e11b1a128f38e5085a9a24f",
      "contractAddress": null,
      "gasUsedForL1": "0x8be3",
      "l1BlockNumber": "0x13704fa"
    }
  ],
  "libraries": [],
  "pending": [],
  "returns": {},
  "timestamp": 1721903361,
  "chain": 42161,
  "commit": "f03162a"
}