{
  "transactions": [
    {
      "hash": "0xb2d5fddac076359383e50c94a5d46665d927fab6c273cbf300d01e6279c122a2",
      "transactionType": "CREATE",
      "contractName": "RescueStrategy",
      "contractAddress": "0xaeb876858b377abd4c8653160fb5d76a3f282ed8",
      "function": null,
      "arguments": null,
      "transaction": {
        "from": "0xd1dd21d53ec43c8fe378e51029aa3f380b229c98",
        "gas": "0x9b597",
        "value": "0x0",
        "input": "0x60a080604052346028573060805261067c908161002d823960805181818160ff01526101e70152f35b5f80fdfe6080604081815260049182361015610015575f80fd5b5f3560e01c9081631fbe1979146103ba575080634f1ef2861461016357806352d1902d146100ec5763ad3cb1cc1461004b575f80fd5b346100e8575f3660031901126100e8578051918183019083821067ffffffffffffffff8311176100d557508152600582526020640352e302e360dc1b60208401528151928391602083528151918260208501525f5b8381106100bf5750505f83830185015250601f01601f19168101030190f35b81810183015187820187015286945082016100a0565b604190634e487b7160e01b5f525260245ffd5b5f80fd5b50346100e8575f3660031901126100e8577f00000000000000000000000000000000000000000000000000000000000000006001600160a01b0316300361015657602090517f360894a13ba1a3210667c828492db98dca3e2076cc3735a920a3ca505d382bbc8152f35b5163703e46dd60e11b8152fd5b5090816003193601126100e8576001600160a01b0391813583811691908281036100e85760249485359167ffffffffffffffff83116100e857366023840112156100e85782860135916101b5836105af565b906101c286519283610579565b83825260209384830195368b83830101116100e857815f928c889301893784010152807f00000000000000000000000000000000000000000000000000000000000000001680301491821561038c575b505061037c5784516352d1902d60e01b8152838189818a5afa5f918161034d575b5061024e5750505050505191634c9c8ce360e01b8352820152fd5b9087878794938b7f360894a13ba1a3210667c828492db98dca3e2076cc3735a920a3ca505d382bbc918281036103385750853b15610324575080546001600160a01b031916821790558451907fbc7cd75a20ee27fd9adebab32041f755214dbc6bffa90cc0225b39da2e5c2d3b5f80a282511561030a5750505f6102fe9581925190845af4913d15610300573d6102f06102e7826105af565b92519283610579565b81525f81943d92013e6105e3565b005b50606092506105e3565b945094505050503461031857005b63b398979f60e01b8152fd5b8651634c9c8ce360e01b8152808501849052fd5b8751632a87526960e21b815280860191909152fd5b9091508481813d8311610375575b6103658183610579565b810103126100e85751905f610233565b503d61035b565b845163703e46dd60e11b81528790fd5b7f360894a13ba1a3210667c828492db98dca3e2076cc3735a920a3ca505d382bbc5416141590505f80610212565b919050346100e8575f3660031901126100e8576370a0823160e01b80835230838501526020939073af88d065e77c8cc2239327c5edb3a432268e5831908585602481855afa94851561056f575f95610540575b50835186816044815f63a9059cbb60e01b97888352734f42fa2f07f81e6e1d348245ecb7ebffc5267be09b8c8b85015260248401525af1801561051957610523575b50835190815230838201527382af49447d8a07e3bd95bd0d56f35241523fbab1908681602481855afa908115610519579087949392915f916104e3575b50604492915f9187519889968795865285015260248401525af19081156104da57506104b457005b816102fe92903d106104d3575b6104cb8183610579565b8101906105cb565b503d6104c1565b513d5f823e3d90fd5b85819692509392933d8311610512575b6104fd8183610579565b810103126100e857925186939190604461048c565b503d6104f3565b85513d5f823e3d90fd5b61053990873d89116104d3576104cb8183610579565b505f61044f565b9094508581813d8311610568575b6105588183610579565b810103126100e85751935f61040d565b503d61054e565b84513d5f823e3d90fd5b90601f8019910116810190811067ffffffffffffffff82111761059b57604052565b634e487b7160e01b5f52604160045260245ffd5b67ffffffffffffffff811161059b57601f01601f191660200190565b908160209103126100e8575180151581036100e85790565b9061060a57508051156105f857805190602001fd5b604051630a12f52160e11b8152600490fd5b8151158061063d575b61061b575090565b604051639996b31560e01b81526001600160a01b039091166004820152602490fd5b50803b1561061356fea264697066735822122018b7c94bef036b3cc54c47584b09f2f03ad9fa15bc2a6c524c614e747c94caaf64736f6c63430008190033",
        "nonce": "0x1ce",
        "chainId": "0xa4b1"
      },
      "additionalContracts": [],
      "isFixedGasLimit": false
    },
    {
      "hash": "0x7814f92afc024758a92b0a69a75f42f43046572dbb1c49a3b54a810ed676a2fe",
      "transactionType": "CALL",
      "contractName": null,
      "contractAddress": "0xa05833a544b34ece44c0c2034ab2296090e5109c",
      "function": "upgradeToAndCall(address,bytes)",
      "arguments": [
        "0xaEb876858B377Abd4c8653160Fb5d76A3F282Ed8",
        "0x1fbe197900000000000000000000000000000000000000000000000000000000000000200000000000000000000000000000000000000000000000000000000000000000"
      ],
      "transaction": {
        "from": "0xd1dd21d53ec43c8fe378e51029aa3f380b229c98",
        "to": "0xa05833a544b34ece44c0c2034ab2296090e5109c",
        "gas": "0x216e3",
        "value": "0x0",
        "input": "0x4f1ef286000000000000000000000000aeb876858b377abd4c8653160fb5d76a3f282ed8000000000000000000000000000000000000000000000000000000000000004000000000000000000000000000000000000000000000000000000000000000441fbe19790000000000000000000000000000000000000000000000000000000000000020000000000000000000000000000000000000000000000000000000000000000000000000000000000000000000000000000000000000000000000000",
        "nonce": "0x1cf",
        "chainId": "0xa4b1"
      },
      "additionalContracts": [],
      "isFixedGasLimit": false
    }
  ],
  "receipts": [
    {
      "status": "0x1",
      "cumulativeGasUsed": "0x743f0",
      "logs": [],
      "logsBloom": "0x00000000000000000000000000000000000000000000000000000000000000000000000000000000000000000000000000000000000000000000000000000000000000000000000000000000000000000000000000000000000000000000000000000000000000000000000000000000000000000000000000000000000000000000000000000000000000000000000000000000000000000000000000000000000000000000000000000000000000000000000000000000000000000000000000000000000000000000000000000000000000000000000000000000000000000000000000000000000000000000000000000000000000000000000000000000",
      "type": "0x2",
      "transactionHash": "0xb2d5fddac076359383e50c94a5d46665d927fab6c273cbf300d01e6279c122a2",
      "transactionIndex": "0x1",
      "blockHash": "0xff3e73a6782cfc95600613a52b3d65b6ce5793644fb4cdfdee558d841d31ca58",
      "blockNumber": "0xebe45c6",
      "gasUsed": "0x743f0",
      "effectiveGasPrice": "0x989680",
      "from": "0xd1dd21d53ec43c8fe378e51029aa3f380b229c98",
      "to": null,
      "contractAddress": "0xaeb876858b377abd4c8653160fb5d76a3f282ed8",
      "gasUsedForL1": "0xfbc5",
      "l1BlockNumber": "0x13aaae2"
    },
    {
      "status": "0x1",
      "cumulativeGasUsed": "0x1b0f6",
      "logs": [
        {
          "address": "0xa05833a544b34ece44c0c2034ab2296090e5109c",
          "topics": [
            "0xbc7cd75a20ee27fd9adebab32041f755214dbc6bffa90cc0225b39da2e5c2d3b",
            "0x000000000000000000000000aeb876858b377abd4c8653160fb5d76a3f282ed8"
          ],
          "data": "0x",
          "blockHash": "0x2ceb55e5478ab04af81cec8873c901971d02925c440ac70243d5e36aa52a0bd0",
          "blockNumber": "0xebe45d7",
          "transactionHash": "0x7814f92afc024758a92b0a69a75f42f43046572dbb1c49a3b54a810ed676a2fe",
          "transactionIndex": "0x1",
          "logIndex": "0x0",
          "removed": false
        },
        {
          "address": "0xaf88d065e77c8cc2239327c5edb3a432268e5831",
          "topics": [
            "0xddf252ad1be2c89b69c2b068fc378daa952ba7f163c4a11628f55a4df523b3ef",
            "0x000000000000000000000000a05833a544b34ece44c0c2034ab2296090e5109c",
            "0x0000000000000000000000004f42fa2f07f81e6e1d348245ecb7ebffc5267be0"
          ],
          "data": "0x0000000000000000000000000000000000000000000000000000000009e41faa",
          "blockHash": "0x2ceb55e5478ab04af81cec8873c901971d02925c440ac70243d5e36aa52a0bd0",
          "blockNumber": "0xebe45d7",
          "transactionHash": "0x7814f92afc024758a92b0a69a75f42f43046572dbb1c49a3b54a810ed676a2fe",
          "transactionIndex": "0x1",
          "logIndex": "0x1",
          "removed": false
        },
        {
          "address": "0x82af49447d8a07e3bd95bd0d56f35241523fbab1",
          "topics": [
            "0xddf252ad1be2c89b69c2b068fc378daa952ba7f163c4a11628f55a4df523b3ef",
            "0x000000000000000000000000a05833a544b34ece44c0c2034ab2296090e5109c",
            "0x0000000000000000000000004f42fa2f07f81e6e1d348245ecb7ebffc5267be0"
          ],
          "data": "0x0000000000000000000000000000000000000000000000000000000000000001",
          "blockHash": "0x2ceb55e5478ab04af81cec8873c901971d02925c440ac70243d5e36aa52a0bd0",
          "blockNumber": "0xebe45d7",
          "transactionHash": "0x7814f92afc024758a92b0a69a75f42f43046572dbb1c49a3b54a810ed676a2fe",
          "transactionIndex": "0x1",
          "logIndex": "0x2",
          "removed": false
        }
      ],
      "logsBloom": "0x00000000000000000000000080008000400000000000000000000000000001000000000800000000000000000000000000004001400000000000000000000000000000010000000000000008200002000000000000000000000000000000000000000000000000000000000400000000000000000400000000000010000000000000000000000000000000000000000200000000000000000000000000000000000000000000000000000000000000000000000000000000000000000000000400002022000000000000000001000000000000000000000000000000000000000000000000000000000000000000200000000000000000000000000000000080",
      "type": "0x2",
      "transactionHash": "0x7814f92afc024758a92b0a69a75f42f43046572dbb1c49a3b54a810ed676a2fe",
      "transactionIndex": "0x1",
      "blockHash": "0x2ceb55e5478ab04af81cec8873c901971d02925c440ac70243d5e36aa52a0bd0",
      "blockNumber": "0xebe45d7",
      "gasUsed": "0x1b0f6",
      "effectiveGasPrice": "0x989680",
      "from": "0xd1dd21d53ec43c8fe378e51029aa3f380b229c98",
      "to": "0xa05833a544b34ece44c0c2034ab2296090e5109c",
      "contractAddress": null,
      "gasUsedForL1": "0x2db6",
      "l1BlockNumber": "0x13aaae2"
    }
  ],
  "libraries": [],
  "pending": [],
  "returns": {},
  "timestamp": 1724787375,
  "chain": 42161,
  "commit": "caae6d6"
}