{
  "transactions": [
    {
      "hash": "0x8fa8b14f5e556a6a073b252931b62cc8d737b56487b53cfdd7caff798a4a4db4",
      "transactionType": "CALL",
      "contractName": null,
      "contractAddress": "0x6bb03c85599f99f0542693c171cec7944e0ac563",
      "function": "setPriceFeeds(address[],address[])",
      "arguments": [
        "[0x82aF49447D8a07e3bd95BD0d56f35241523fBab1]",
        "[0x639Fe6ab55C921f74e7fac1ee960C0B6293ba612]"
      ],
      "transaction": {
        "from": "0xdafed9a0a40f810fcb5c3dfcd0cb3486036414eb",
        "to": "0x6bb03c85599f99f0542693c171cec7944e0ac563",
        "gas": "0x14ad8",
        "value": "0x0",
        "input": "0x92aeb53a00000000000000000000000000000000000000000000000000000000000000400000000000000000000000000000000000000000000000000000000000000080000000000000000000000000000000000000000000000000000000000000000100000000000000000000000082af49447d8a07e3bd95bd0d56f35241523fbab10000000000000000000000000000000000000000000000000000000000000001000000000000000000000000639fe6ab55c921f74e7fac1ee960c0b6293ba612",
        "nonce": "0x152",
        "chainId": "0xa4b1"
      },
      "additionalContracts": [],
      "isFixedGasLimit": false
    },
    {
      "hash": "0x3f339e0ca9b54002fccda3abdf6cea008a8b62cc6aa5b65a69c99f425f159c9e",
      "transactionType": "CALL",
      "contractName": null,
      "contractAddress": "0x6bb03c85599f99f0542693c171cec7944e0ac563",
      "function": "setHeartbeats(address[],uint256[])",
      "arguments": [
        "[0x639Fe6ab55C921f74e7fac1ee960C0B6293ba612]",
        "[86400]"
      ],
      "transaction": {
        "from": "0xdafed9a0a40f810fcb5c3dfcd0cb3486036414eb",
        "to": "0x6bb03c85599f99f0542693c171cec7944e0ac563",
        "gas": "0x146ab",
        "value": "0x0",
        "input": "0x98319bd1000000000000000000000000000000000000000000000000000000000000004000000000000000000000000000000000000000000000000000000000000000800000000000000000000000000000000000000000000000000000000000000001000000000000000000000000639fe6ab55c921f74e7fac1ee960c0b6293ba61200000000000000000000000000000000000000000000000000000000000000010000000000000000000000000000000000000000000000000000000000015180",
        "nonce": "0x153",
        "chainId": "0xa4b1"
      },
      "additionalContracts": [],
      "isFixedGasLimit": false
    },
    {
      "hash": "0xef780b74176227818e71bacaa85ff59c863f3ed2cc419ade1a8e4f07d8e7586f",
      "transactionType": "CREATE",
      "contractName": "BeaconProxy",
      "contractAddress": "0x9efcc72a6c6048f2aa2096c9e65b673ca87e1a84",
      "function": null,
      "arguments": [
        "0x19E6Dc367b4DbCa5ee38de32DB6C74b731ed755E",
        "0xcb706309000000000000000000000000dafed9a0a40f810fcb5c3dfcd0cb3486036414eb000000000000000000000000af88d065e77c8cc2239327c5edb3a432268e583100000000000000000000000000000000000000000000000000000000000000000000000000000000000000000000000000000000000000000011c37937e080000000000000000000000000000000000000000000000000000011c37937e0800000000000000000000000000000000000000000000000000000000000000000e00000000000000000000000000000000000000000000000000000000000000140000000000000000000000000000000000000000000000000000000000000002d4c6f6761726974686d20426173697320555344432d574554482048797065726c69717569642028416c706861290000000000000000000000000000000000000000000000000000000000000000000000000000000000000000000000000000146c6f672d622d757364632d776574682d686c2d61000000000000000000000000"
      ],
      "transaction": {
        "from": "0xdafed9a0a40f810fcb5c3dfcd0cb3486036414eb",
        "gas": "0x9b44c",
        "value": "0x0",
        "input": "0x60a080604052610491803803809161001782856102a9565b833981016040828203126101eb5761002e826102e0565b602083015190926001600160401b0382116101eb570181601f820112156101eb5780519061005b826102f4565b9261006960405194856102a9565b828452602083830101116101eb575f5b82811061029457505060205f9183010152813b15610273577fa3f0ad74e5423aebfd80d3ef4346578335a9a72aeaee59ff6cb3582b35133d5080546001600160a01b0319166001600160a01b038416908117909155604051635c60da1b60e01b8152909190602081600481865afa9081156101f7575f91610239575b50803b156102195750817f1cf3b03a6cf19fa2baba4df148e9dcabedea7f8a5c07840e207e5c089be95d3e5f80a280511561020257602060049260405193848092635c60da1b60e01b82525afa9182156101f7575f926101b2575b50905f8083602061018e95519101845af43d156101aa573d91610172836102f4565b9261018060405194856102a9565b83523d5f602085013e61030f565b505b608052604051610123908161036e82396080518160180152f35b60609161030f565b91506020823d6020116101ef575b816101cd602093836102a9565b810103126101eb575f806101e361018e946102e0565b935050610150565b5f80fd5b3d91506101c0565b6040513d5f823e3d90fd5b505034156101905763b398979f60e01b5f5260045ffd5b634c9c8ce360e01b5f9081526001600160a01b0391909116600452602490fd5b90506020813d60201161026b575b81610254602093836102a9565b810103126101eb57610265906102e0565b5f6100f5565b3d9150610247565b50631933b43b60e21b5f9081526001600160a01b0391909116600452602490fd5b80602080928401015182828701015201610079565b601f909101601f19168101906001600160401b038211908210176102cc57604052565b634e487b7160e01b5f52604160045260245ffd5b51906001600160a01b03821682036101eb57565b6001600160401b0381116102cc57601f01601f191660200190565b90610333575080511561032457805190602001fd5b630a12f52160e11b5f5260045ffd5b81511580610364575b610344575090565b639996b31560e01b5f9081526001600160a01b0391909116600452602490fd5b50803b1561033c56fe60806040819052635c60da1b60e01b81526020906004817f00000000000000000000000000000000000000000000000000000000000000006001600160a01b03165afa801560a2575f901560d1575060203d602011609c575b601f19601f820116608001906080821067ffffffffffffffff83111760885760849160405260800160ad565b60d1565b634e487b7160e01b5f52604160045260245ffd5b503d6058565b6040513d5f823e3d90fd5b602090607f19011260cd576080516001600160a01b038116810360cd5790565b5f80fd5b5f8091368280378136915af43d5f803e1560e9573d5ff35b3d5ffdfea264697066735822122007093cdf920fcab71bd63b1088382f067ee9907b794386da93b88aa8e955b16864736f6c634300081c003300000000000000000000000019e6dc367b4dbca5ee38de32db6c74b731ed755e00000000000000000000000000000000000000000000000000000000000000400000000000000000000000000000000000000000000000000000000000000184cb706309000000000000000000000000dafed9a0a40f810fcb5c3dfcd0cb3486036414eb000000000000000000000000af88d065e77c8cc2239327c5edb3a432268e583100000000000000000000000000000000000000000000000000000000000000000000000000000000000000000000000000000000000000000011c37937e080000000000000000000000000000000000000000000000000000011c37937e0800000000000000000000000000000000000000000000000000000000000000000e00000000000000000000000000000000000000000000000000000000000000140000000000000000000000000000000000000000000000000000000000000002d4c6f6761726974686d20426173697320555344432d574554482048797065726c69717569642028416c706861290000000000000000000000000000000000000000000000000000000000000000000000000000000000000000000000000000146c6f672d622d757364632d776574682d686c2d6100000000000000000000000000000000000000000000000000000000000000000000000000000000",
        "nonce": "0x154",
        "chainId": "0xa4b1"
      },
      "additionalContracts": [],
      "isFixedGasLimit": false
    },
    {
      "hash": "0x810541d6a721605fd41eface8c92289c7c5879efdda059c8e77c609f48596d5c",
      "transactionType": "CREATE",
      "contractName": "BeaconProxy",
      "contractAddress": "0xa4f8334720bd7361bee63fb417ca0ee68ead0b3b",
      "function": null,
      "arguments": [
        "0x462668198F8a8c3A4410A0b45a47f432C77749aF",
        "0x6322b513000000000000000000000000c1a8f7419c2680f4ba2a730d5a5d7abfdcc1efda00000000000000000000000082af49447d8a07e3bd95bd0d56f35241523fbab10000000000000000000000009efcc72a6c6048f2aa2096c9e65b673ca87e1a840000000000000000000000006bb03c85599f99f0542693c171cec7944e0ac563000000000000000000000000e7263f18e278ea0550fad97ddf898d134483efc600000000000000000000000000000000000000000000000053444835ec5800000000000000000000000000000000000000000000000000001bc16d674ec80000000000000000000000000000000000000000000000000000a688906bd8b00000000000000000000000000000000000000000000000000001158e460913d00000"
      ],
      "transaction": {
        "from": "0xdafed9a0a40f810fcb5c3dfcd0cb3486036414eb",
        "gas": "0xac565",
        "value": "0x0",
        "input": "0x60a080604052610491803803809161001782856102a9565b833981016040828203126101eb5761002e826102e0565b602083015190926001600160401b0382116101eb570181601f820112156101eb5780519061005b826102f4565b9261006960405194856102a9565b828452602083830101116101eb575f5b82811061029457505060205f9183010152813b15610273577fa3f0ad74e5423aebfd80d3ef4346578335a9a72aeaee59ff6cb3582b35133d5080546001600160a01b0319166001600160a01b038416908117909155604051635c60da1b60e01b8152909190602081600481865afa9081156101f7575f91610239575b50803b156102195750817f1cf3b03a6cf19fa2baba4df148e9dcabedea7f8a5c07840e207e5c089be95d3e5f80a280511561020257602060049260405193848092635c60da1b60e01b82525afa9182156101f7575f926101b2575b50905f8083602061018e95519101845af43d156101aa573d91610172836102f4565b9261018060405194856102a9565b83523d5f602085013e61030f565b505b608052604051610123908161036e82396080518160180152f35b60609161030f565b91506020823d6020116101ef575b816101cd602093836102a9565b810103126101eb575f806101e361018e946102e0565b935050610150565b5f80fd5b3d91506101c0565b6040513d5f823e3d90fd5b505034156101905763b398979f60e01b5f5260045ffd5b634c9c8ce360e01b5f9081526001600160a01b0391909116600452602490fd5b90506020813d60201161026b575b81610254602093836102a9565b810103126101eb57610265906102e0565b5f6100f5565b3d9150610247565b50631933b43b60e21b5f9081526001600160a01b0391909116600452602490fd5b80602080928401015182828701015201610079565b601f909101601f19168101906001600160401b038211908210176102cc57604052565b634e487b7160e01b5f52604160045260245ffd5b51906001600160a01b03821682036101eb57565b6001600160401b0381116102cc57601f01601f191660200190565b90610333575080511561032457805190602001fd5b630a12f52160e11b5f5260045ffd5b81511580610364575b610344575090565b639996b31560e01b5f9081526001600160a01b0391909116600452602490fd5b50803b1561033c56fe60806040819052635c60da1b60e01b81526020906004817f00000000000000000000000000000000000000000000000000000000000000006001600160a01b03165afa801560a2575f901560d1575060203d602011609c575b601f19601f820116608001906080821067ffffffffffffffff83111760885760849160405260800160ad565b60d1565b634e487b7160e01b5f52604160045260245ffd5b503d6058565b6040513d5f823e3d90fd5b602090607f19011260cd576080516001600160a01b038116810360cd5790565b5f80fd5b5f8091368280378136915af43d5f803e1560e9573d5ff35b3d5ffdfea264697066735822122007093cdf920fcab71bd63b1088382f067ee9907b794386da93b88aa8e955b16864736f6c634300081c0033000000000000000000000000462668198f8a8c3a4410a0b45a47f432c77749af000000000000000000000000000000000000000000000000000000000000004000000000000000000000000000000000000000000000000000000000000001246322b513000000000000000000000000c1a8f7419c2680f4ba2a730d5a5d7abfdcc1efda00000000000000000000000082af49447d8a07e3bd95bd0d56f35241523fbab10000000000000000000000009efcc72a6c6048f2aa2096c9e65b673ca87e1a840000000000000000000000006bb03c85599f99f0542693c171cec7944e0ac563000000000000000000000000e7263f18e278ea0550fad97ddf898d134483efc600000000000000000000000000000000000000000000000053444835ec5800000000000000000000000000000000000000000000000000001bc16d674ec80000000000000000000000000000000000000000000000000000a688906bd8b00000000000000000000000000000000000000000000000000001158e460913d0000000000000000000000000000000000000000000000000000000000000",
        "nonce": "0x155",
        "chainId": "0xa4b1"
      },
      "additionalContracts": [],
      "isFixedGasLimit": false
    },
    {
      "hash": "0xfb564587238565918a26f98e80f1682bed9ac46b767e313ab7f3029358342609",
      "transactionType": "CALL",
      "contractName": "BeaconProxy",
      "contractAddress": "0x9efcc72a6c6048f2aa2096c9e65b673ca87e1a84",
      "function": null,
      "arguments": null,
      "transaction": {
        "from": "0xdafed9a0a40f810fcb5c3dfcd0cb3486036414eb",
        "to": "0x9efcc72a6c6048f2aa2096c9e65b673ca87e1a84",
        "gas": "0x8ca0",
        "value": "0x0",
        "input": "0x33a100ca000000000000000000000000a4f8334720bd7361bee63fb417ca0ee68ead0b3b",
        "nonce": "0x156",
        "chainId": "0xa4b1"
      },
      "additionalContracts": [],
      "isFixedGasLimit": false
    },
    {
      "hash": "0xdaa74cc74825e088f76825b0044986f6e2fa54e242f9e0352dc0750a8ec162fe",
      "transactionType": "CREATE",
      "contractName": "BeaconProxy",
      "contractAddress": "0xe8ed8f1276acc28cf523006a79f031db41e70a06",
      "function": null,
      "arguments": [
        "0xd530B7769eB06d2c47178dB7f7a37f9A24e46837",
        "0x77a24f36000000000000000000000000dafed9a0a40f810fcb5c3dfcd0cb3486036414eb000000000000000000000000a4f8334720bd7361bee63fb417ca0ee68ead0b3b00000000000000000000000000000000000000000000000000000000000000600000000000000000000000000000000000000000000000000000000000000003000000000000000000000000af88d065e77c8cc2239327c5edb3a432268e5831000000000000000000000000c6962004f452be9203591991d15f6b388e09e8d000000000000000000000000082af49447d8a07e3bd95bd0d56f35241523fbab1"
      ],
      "transaction": {
        "from": "0xdafed9a0a40f810fcb5c3dfcd0cb3486036414eb",
        "gas": "0xb5452",
        "value": "0x0",
        "input": "0x60a080604052610491803803809161001782856102a9565b833981016040828203126101eb5761002e826102e0565b602083015190926001600160401b0382116101eb570181601f820112156101eb5780519061005b826102f4565b9261006960405194856102a9565b828452602083830101116101eb575f5b82811061029457505060205f9183010152813b15610273577fa3f0ad74e5423aebfd80d3ef4346578335a9a72aeaee59ff6cb3582b35133d5080546001600160a01b0319166001600160a01b038416908117909155604051635c60da1b60e01b8152909190602081600481865afa9081156101f7575f91610239575b50803b156102195750817f1cf3b03a6cf19fa2baba4df148e9dcabedea7f8a5c07840e207e5c089be95d3e5f80a280511561020257602060049260405193848092635c60da1b60e01b82525afa9182156101f7575f926101b2575b50905f8083602061018e95519101845af43d156101aa573d91610172836102f4565b9261018060405194856102a9565b83523d5f602085013e61030f565b505b608052604051610123908161036e82396080518160180152f35b60609161030f565b91506020823d6020116101ef575b816101cd602093836102a9565b810103126101eb575f806101e361018e946102e0565b935050610150565b5f80fd5b3d91506101c0565b6040513d5f823e3d90fd5b505034156101905763b398979f60e01b5f5260045ffd5b634c9c8ce360e01b5f9081526001600160a01b0391909116600452602490fd5b90506020813d60201161026b575b81610254602093836102a9565b810103126101eb57610265906102e0565b5f6100f5565b3d9150610247565b50631933b43b60e21b5f9081526001600160a01b0391909116600452602490fd5b80602080928401015182828701015201610079565b601f909101601f19168101906001600160401b038211908210176102cc57604052565b634e487b7160e01b5f52604160045260245ffd5b51906001600160a01b03821682036101eb57565b6001600160401b0381116102cc57601f01601f191660200190565b90610333575080511561032457805190602001fd5b630a12f52160e11b5f5260045ffd5b81511580610364575b610344575090565b639996b31560e01b5f9081526001600160a01b0391909116600452602490fd5b50803b1561033c56fe60806040819052635c60da1b60e01b81526020906004817f00000000000000000000000000000000000000000000000000000000000000006001600160a01b03165afa801560a2575f901560d1575060203d602011609c575b601f19601f820116608001906080821067ffffffffffffffff83111760885760849160405260800160ad565b60d1565b634e487b7160e01b5f52604160045260245ffd5b503d6058565b6040513d5f823e3d90fd5b602090607f19011260cd576080516001600160a01b038116810360cd5790565b5f80fd5b5f8091368280378136915af43d5f803e1560e9573d5ff35b3d5ffdfea264697066735822122007093cdf920fcab71bd63b1088382f067ee9907b794386da93b88aa8e955b16864736f6c634300081c0033000000000000000000000000d530b7769eb06d2c47178db7f7a37f9a24e46837000000000000000000000000000000000000000000000000000000000000004000000000000000000000000000000000000000000000000000000000000000e477a24f36000000000000000000000000dafed9a0a40f810fcb5c3dfcd0cb3486036414eb000000000000000000000000a4f8334720bd7361bee63fb417ca0ee68ead0b3b00000000000000000000000000000000000000000000000000000000000000600000000000000000000000000000000000000000000000000000000000000003000000000000000000000000af88d065e77c8cc2239327c5edb3a432268e5831000000000000000000000000c6962004f452be9203591991d15f6b388e09e8d000000000000000000000000082af49447d8a07e3bd95bd0d56f35241523fbab100000000000000000000000000000000000000000000000000000000",
        "nonce": "0x157",
        "chainId": "0xa4b1"
      },
      "additionalContracts": [],
      "isFixedGasLimit": false
    },
    {
      "hash": "0x5a9d6a30c6b180e6478cc5689b72543e5f8df4e4bf7b35f3aa1d696f3e520648",
      "transactionType": "CALL",
      "contractName": "BeaconProxy",
      "contractAddress": "0xa4f8334720bd7361bee63fb417ca0ee68ead0b3b",
      "function": null,
      "arguments": null,
      "transaction": {
        "from": "0xdafed9a0a40f810fcb5c3dfcd0cb3486036414eb",
        "to": "0xa4f8334720bd7361bee63fb417ca0ee68ead0b3b",
        "gas": "0x8ca0",
        "value": "0x0",
        "input": "0x817f040a000000000000000000000000e8ed8f1276acc28cf523006a79f031db41e70a06",
        "nonce": "0x158",
        "chainId": "0xa4b1"
      },
      "additionalContracts": [],
      "isFixedGasLimit": false
    },
    {
      "hash": "0xcb6d9cd2cb240298e0b9a2100f4a31816e293b832930a636bc1d3d7b2d69a444",
      "transactionType": "CREATE",
      "contractName": "BeaconProxy",
      "contractAddress": "0xc5278d17b23d6aa73e527e6607ed10217f649fdb",
      "function": null,
      "arguments": [
        "0x8656C2b6ADF31812B3C37BAc58AdC8917c83d8f8",
        "0xfc5b5fda00000000000000000000000083845524e0f82bbdb288875ee0d14a9892b7f3b1000000000000000000000000a4f8334720bd7361bee63fb417ca0ee68ead0b3b000000000000000000000000a2a7e3a770c38aae24f175a38281f74731fe477e0000000000000000000000006bb03c85599f99f0542693c171cec7944e0ac5630000000000000000000000000000000000000000000000000000000000000000"
      ],
      "transaction": {
        "from": "0xdafed9a0a40f810fcb5c3dfcd0cb3486036414eb",
        "gas": "0x80f44",
        "value": "0x0",
        "input": "0x60a080604052610491803803809161001782856102a9565b833981016040828203126101eb5761002e826102e0565b602083015190926001600160401b0382116101eb570181601f820112156101eb5780519061005b826102f4565b9261006960405194856102a9565b828452602083830101116101eb575f5b82811061029457505060205f9183010152813b15610273577fa3f0ad74e5423aebfd80d3ef4346578335a9a72aeaee59ff6cb3582b35133d5080546001600160a01b0319166001600160a01b038416908117909155604051635c60da1b60e01b8152909190602081600481865afa9081156101f7575f91610239575b50803b156102195750817f1cf3b03a6cf19fa2baba4df148e9dcabedea7f8a5c07840e207e5c089be95d3e5f80a280511561020257602060049260405193848092635c60da1b60e01b82525afa9182156101f7575f926101b2575b50905f8083602061018e95519101845af43d156101aa573d91610172836102f4565b9261018060405194856102a9565b83523d5f602085013e61030f565b505b608052604051610123908161036e82396080518160180152f35b60609161030f565b91506020823d6020116101ef575b816101cd602093836102a9565b810103126101eb575f806101e361018e946102e0565b935050610150565b5f80fd5b3d91506101c0565b6040513d5f823e3d90fd5b505034156101905763b398979f60e01b5f5260045ffd5b634c9c8ce360e01b5f9081526001600160a01b0391909116600452602490fd5b90506020813d60201161026b575b81610254602093836102a9565b810103126101eb57610265906102e0565b5f6100f5565b3d9150610247565b50631933b43b60e21b5f9081526001600160a01b0391909116600452602490fd5b80602080928401015182828701015201610079565b601f909101601f19168101906001600160401b038211908210176102cc57604052565b634e487b7160e01b5f52604160045260245ffd5b51906001600160a01b03821682036101eb57565b6001600160401b0381116102cc57601f01601f191660200190565b90610333575080511561032457805190602001fd5b630a12f52160e11b5f5260045ffd5b81511580610364575b610344575090565b639996b31560e01b5f9081526001600160a01b0391909116600452602490fd5b50803b1561033c56fe60806040819052635c60da1b60e01b81526020906004817f00000000000000000000000000000000000000000000000000000000000000006001600160a01b03165afa801560a2575f901560d1575060203d602011609c575b601f19601f820116608001906080821067ffffffffffffffff83111760885760849160405260800160ad565b60d1565b634e487b7160e01b5f52604160045260245ffd5b503d6058565b6040513d5f823e3d90fd5b602090607f19011260cd576080516001600160a01b038116810360cd5790565b5f80fd5b5f8091368280378136915af43d5f803e1560e9573d5ff35b3d5ffdfea264697066735822122007093cdf920fcab71bd63b1088382f067ee9907b794386da93b88aa8e955b16864736f6c634300081c00330000000000000000000000008656c2b6adf31812b3c37bac58adc8917c83d8f8000000000000000000000000000000000000000000000000000000000000004000000000000000000000000000000000000000000000000000000000000000a4fc5b5fda00000000000000000000000083845524e0f82bbdb288875ee0d14a9892b7f3b1000000000000000000000000a4f8334720bd7361bee63fb417ca0ee68ead0b3b000000000000000000000000a2a7e3a770c38aae24f175a38281f74731fe477e0000000000000000000000006bb03c85599f99f0542693c171cec7944e0ac563000000000000000000000000000000000000000000000000000000000000000000000000000000000000000000000000000000000000000000000000",
        "nonce": "0x159",
        "chainId": "0xa4b1"
      },
      "additionalContracts": [],
      "isFixedGasLimit": false
    },
    {
      "hash": "0x3464acbf4fead0ac22682605c72fe4366b00614c2615226861c1ccb35dcc0233",
      "transactionType": "CALL",
      "contractName": "BeaconProxy",
      "contractAddress": "0xa4f8334720bd7361bee63fb417ca0ee68ead0b3b",
      "function": null,
      "arguments": null,
      "transaction": {
        "from": "0xdafed9a0a40f810fcb5c3dfcd0cb3486036414eb",
        "to": "0xa4f8334720bd7361bee63fb417ca0ee68ead0b3b",
        "gas": "0x8cb0",
        "value": "0x0",
        "input": "0x3d449381000000000000000000000000c5278d17b23d6aa73e527e6607ed10217f649fdb",
        "nonce": "0x15a",
        "chainId": "0xa4b1"
      },
      "additionalContracts": [],
      "isFixedGasLimit": false
    }
  ],
  "receipts": [
    {
      "status": "0x1",
      "cumulativeGasUsed": "0xf3cc",
      "logs": [
        {
          "address": "0x6bb03c85599f99f0542693c171cec7944e0ac563",
          "topics": [
            "0xa8abe0398416476db5b05737cd4da3b3cbde5012d978a6a6c3fd49d321753536"
          ],
          "data": "0x00000000000000000000000082af49447d8a07e3bd95bd0d56f35241523fbab1000000000000000000000000639fe6ab55c921f74e7fac1ee960c0b6293ba612",
          "blockHash": "0xbd48cd59d2070a34550aa8125d91b5a66f73311160c00283f17738615789716b",
          "blockNumber": "0x122acdf0",
          "transactionHash": "0x8fa8b14f5e556a6a073b252931b62cc8d737b56487b53cfdd7caff798a4a4db4",
          "transactionIndex": "0x1",
          "logIndex": "0x0",
          "removed": false
        }
      ],
      "logsBloom": "0x00000000000000000000000000000000000000000000000000000000000000000200000000000000000000000000000000000000000000000000000000000000000000000080000000000000000000000000000000000000000000000000000000000000000000000000000000000000000000000000000000000400000000000000000000000000000000000000000000000000000000000000000000000000000000000000000000000000000000000000400000000000000000000000000000000020000000000080000000000000000000000000000000000000000000000000000000000000000000000000000000000000000000000000000000000000",
      "type": "0x2",
      "transactionHash": "0x8fa8b14f5e556a6a073b252931b62cc8d737b56487b53cfdd7caff798a4a4db4",
      "transactionIndex": "0x1",
      "blockHash": "0xbd48cd59d2070a34550aa8125d91b5a66f73311160c00283f17738615789716b",
      "blockNumber": "0x122acdf0",
      "gasUsed": "0xf3cc",
      "effectiveGasPrice": "0x989680",
      "from": "0xdafed9a0a40f810fcb5c3dfcd0cb3486036414eb",
      "to": "0x6bb03c85599f99f0542693c171cec7944e0ac563",
      "contractAddress": null,
      "gasUsedForL1": "0x1fbd",
      "l1BlockNumber": "0x14cf2db"
    },
    {
      "status": "0x1",
      "cumulativeGasUsed": "0x5a127",
      "logs": [
        {
          "address": "0x6bb03c85599f99f0542693c171cec7944e0ac563",
          "topics": [
            "0xa40c4f8f3f2e752ab36e989d38062be2e56a84ed82c5541b107bb81f119bfe5e"
          ],
          "data": "0x000000000000000000000000639fe6ab55c921f74e7fac1ee960c0b6293ba6120000000000000000000000000000000000000000000000000000000000015180",
          "blockHash": "0x77fa389e1bc8ae0e08315123be101fc8526a88979d2819728af815c3f45855dc",
          "blockNumber": "0x122acdf3",
          "transactionHash": "0x3f339e0ca9b54002fccda3abdf6cea008a8b62cc6aa5b65a69c99f425f159c9e",
          "transactionIndex": "0x2",
          "logIndex": "0x5",
          "removed": false
        }
      ],
      "logsBloom": "0x00000000000000000000000000000000000000000000000000000000000000000200000000000000001000000000000000000000000000000000000000000000000000000000000000000000000000000000000000000000000000000000000000000000000000000000000000000000000000000000000000000000000000000000000000000000000000000000000000000000000000000000000000000000000000000000000000000000000000000000400000000000000000000000000000000020000000000000000000080000000000000000000000000000800000000000000000000000000000000000000000000000000000000000000000000000",
      "type": "0x2",
      "transactionHash": "0x3f339e0ca9b54002fccda3abdf6cea008a8b62cc6aa5b65a69c99f425f159c9e",
      "transactionIndex": "0x2",
      "blockHash": "0x77fa389e1bc8ae0e08315123be101fc8526a88979d2819728af815c3f45855dc",
      "blockNumber": "0x122acdf3",
      "gasUsed": "0xf08d",
      "effectiveGasPrice": "0x989680",
      "from": "0xdafed9a0a40f810fcb5c3dfcd0cb3486036414eb",
      "to": "0x6bb03c85599f99f0542693c171cec7944e0ac563",
      "contractAddress": null,
      "gasUsedForL1": "0x1ddd",
      "l1BlockNumber": "0x14cf2db"
    },
    {
      "status": "0x1",
      "cumulativeGasUsed": "0x74db7",
      "logs": [
        {
          "address": "0x9efcc72a6c6048f2aa2096c9e65b673ca87e1a84",
          "topics": [
            "0x1cf3b03a6cf19fa2baba4df148e9dcabedea7f8a5c07840e207e5c089be95d3e",
            "0x00000000000000000000000019e6dc367b4dbca5ee38de32db6c74b731ed755e"
          ],
          "data": "0x",
          "blockHash": "0xc1bf74ce7f3631c50f86fb2c3def64b4b875908790e733c9037da4cc3d223e2c",
          "blockNumber": "0x122acdf6",
          "transactionHash": "0xef780b74176227818e71bacaa85ff59c863f3ed2cc419ade1a8e4f07d8e7586f",
          "transactionIndex": "0x1",
          "logIndex": "0x0",
          "removed": false
        },
        {
          "address": "0x9efcc72a6c6048f2aa2096c9e65b673ca87e1a84",
          "topics": [
            "0x8be0079c531659141344cd1fd0a4f28419497f9722a3daafe3b4186f6b6457e0",
            "0x0000000000000000000000000000000000000000000000000000000000000000",
            "0x000000000000000000000000dafed9a0a40f810fcb5c3dfcd0cb3486036414eb"
          ],
          "data": "0x",
          "blockHash": "0xc1bf74ce7f3631c50f86fb2c3def64b4b875908790e733c9037da4cc3d223e2c",
          "blockNumber": "0x122acdf6",
          "transactionHash": "0xef780b74176227818e71bacaa85ff59c863f3ed2cc419ade1a8e4f07d8e7586f",
          "transactionIndex": "0x1",
          "logIndex": "0x1",
          "removed": false
        },
        {
          "address": "0x9efcc72a6c6048f2aa2096c9e65b673ca87e1a84",
          "topics": [
            "0x9d7a48441963aa3425b87ed3abc8ba1f46667f5b3bf7114f7ad42a2fa20973bd"
          ],
          "data": "0x000000000000000000000000dafed9a0a40f810fcb5c3dfcd0cb3486036414ebffffffffffffffffffffffffffffffffffffffffffffffffffffffffffffffff",
          "blockHash": "0xc1bf74ce7f3631c50f86fb2c3def64b4b875908790e733c9037da4cc3d223e2c",
          "blockNumber": "0x122acdf6",
          "transactionHash": "0xef780b74176227818e71bacaa85ff59c863f3ed2cc419ade1a8e4f07d8e7586f",
          "transactionIndex": "0x1",
          "logIndex": "0x2",
          "removed": false
        },
        {
          "address": "0x9efcc72a6c6048f2aa2096c9e65b673ca87e1a84",
          "topics": [
            "0x53017628b1d5666a4e56030d0acb76a88d0c802c5da8728edba2985877c30ec0"
          ],
          "data": "0x000000000000000000000000dafed9a0a40f810fcb5c3dfcd0cb3486036414ebffffffffffffffffffffffffffffffffffffffffffffffffffffffffffffffff",
          "blockHash": "0xc1bf74ce7f3631c50f86fb2c3def64b4b875908790e733c9037da4cc3d223e2c",
          "blockNumber": "0x122acdf6",
          "transactionHash": "0xef780b74176227818e71bacaa85ff59c863f3ed2cc419ade1a8e4f07d8e7586f",
          "transactionIndex": "0x1",
          "logIndex": "0x3",
          "removed": false
        },
        {
          "address": "0x9efcc72a6c6048f2aa2096c9e65b673ca87e1a84",
          "topics": [
            "0x6db5522382e049661c3415e5bc6fed59fee1054d960d07e772b763968ef1fd4e"
          ],
          "data": "0x000000000000000000000000dafed9a0a40f810fcb5c3dfcd0cb3486036414eb0000000000000000000000000000000000000000000000000011c37937e08000",
          "blockHash": "0xc1bf74ce7f3631c50f86fb2c3def64b4b875908790e733c9037da4cc3d223e2c",
          "blockNumber": "0x122acdf6",
          "transactionHash": "0xef780b74176227818e71bacaa85ff59c863f3ed2cc419ade1a8e4f07d8e7586f",
          "transactionIndex": "0x1",
          "logIndex": "0x4",
          "removed": false
        },
        {
          "address": "0x9efcc72a6c6048f2aa2096c9e65b673ca87e1a84",
          "topics": [
            "0x21e5e6d8aeffff22c50c806a26be619de7fc39d1029e6fe5ad986036bb26f0f3"
          ],
          "data": "0x000000000000000000000000dafed9a0a40f810fcb5c3dfcd0cb3486036414eb0000000000000000000000000000000000000000000000000011c37937e08000",
          "blockHash": "0xc1bf74ce7f3631c50f86fb2c3def64b4b875908790e733c9037da4cc3d223e2c",
          "blockNumber": "0x122acdf6",
          "transactionHash": "0xef780b74176227818e71bacaa85ff59c863f3ed2cc419ade1a8e4f07d8e7586f",
          "transactionIndex": "0x1",
          "logIndex": "0x5",
          "removed": false
        },
        {
          "address": "0x9efcc72a6c6048f2aa2096c9e65b673ca87e1a84",
          "topics": [
            "0xc7f505b2f371ae2175ee4913f4499e1f2633a7b5936321eed1cdaeb6115181d2"
          ],
          "data": "0x0000000000000000000000000000000000000000000000000000000000000001",
          "blockHash": "0xc1bf74ce7f3631c50f86fb2c3def64b4b875908790e733c9037da4cc3d223e2c",
          "blockNumber": "0x122acdf6",
          "transactionHash": "0xef780b74176227818e71bacaa85ff59c863f3ed2cc419ade1a8e4f07d8e7586f",
          "transactionIndex": "0x1",
          "logIndex": "0x6",
          "removed": false
        }
      ],
      "logsBloom": "0x00000000000008000000000000000400000008400000000000800000000000000000100080000000000000000000000000000000000000000000000000000000000000000001000000400000001000800001002000000010000000000000000000000000020000000000000000000800000000000000000000100000000000400000000000002400000800000000080000000000000080000002000000000000000000000000000000000000000000000000000000000000000000000000000000400000000000000000000000000000800000000004000000808001000020000000000000000000000000000100000000000000000000200000000000000000",
      "type": "0x2",
      "transactionHash": "0xef780b74176227818e71bacaa85ff59c863f3ed2cc419ade1a8e4f07d8e7586f",
      "transactionIndex": "0x1",
      "blockHash": "0xc1bf74ce7f3631c50f86fb2c3def64b4b875908790e733c9037da4cc3d223e2c",
      "blockNumber": "0x122acdf6",
      "gasUsed": "0x74db7",
      "effectiveGasPrice": "0x989680",
      "from": "0xdafed9a0a40f810fcb5c3dfcd0cb3486036414eb",
      "to": null,
      "contractAddress": "0x9efcc72a6c6048f2aa2096c9e65b673ca87e1a84",
      "gasUsedForL1": "0x8ee4",
      "l1BlockNumber": "0x14cf2db"
    },
    {
      "status": "0x1",
      "cumulativeGasUsed": "0x8d95f",
      "logs": [
        {
          "address": "0xa4f8334720bd7361bee63fb417ca0ee68ead0b3b",
          "topics": [
            "0x1cf3b03a6cf19fa2baba4df148e9dcabedea7f8a5c07840e207e5c089be95d3e",
            "0x000000000000000000000000462668198f8a8c3a4410a0b45a47f432c77749af"
          ],
          "data": "0x",
          "blockHash": "0xec8e22c1f6aa59f3be01742f931776b6e7366b0a482461bea168bfe63cdf4663",
          "blockNumber": "0x122acdf9",
          "transactionHash": "0x810541d6a721605fd41eface8c92289c7c5879efdda059c8e77c609f48596d5c",
          "transactionIndex": "0x1",
          "logIndex": "0x0",
          "removed": false
        },
        {
          "address": "0xa4f8334720bd7361bee63fb417ca0ee68ead0b3b",
          "topics": [
            "0x8be0079c531659141344cd1fd0a4f28419497f9722a3daafe3b4186f6b6457e0",
            "0x0000000000000000000000000000000000000000000000000000000000000000",
            "0x000000000000000000000000dafed9a0a40f810fcb5c3dfcd0cb3486036414eb"
          ],
          "data": "0x",
          "blockHash": "0xec8e22c1f6aa59f3be01742f931776b6e7366b0a482461bea168bfe63cdf4663",
          "blockNumber": "0x122acdf9",
          "transactionHash": "0x810541d6a721605fd41eface8c92289c7c5879efdda059c8e77c609f48596d5c",
          "transactionIndex": "0x1",
          "logIndex": "0x1",
          "removed": false
        },
        {
          "address": "0xa4f8334720bd7361bee63fb417ca0ee68ead0b3b",
          "topics": [
            "0xfbe5b6cbafb274f445d7fed869dc77a838d8243a22c460de156560e8857cad03",
            "0x000000000000000000000000dafed9a0a40f810fcb5c3dfcd0cb3486036414eb",
            "0x000000000000000000000000e7263f18e278ea0550fad97ddf898d134483efc6"
          ],
          "data": "0x",
          "blockHash": "0xec8e22c1f6aa59f3be01742f931776b6e7366b0a482461bea168bfe63cdf4663",
          "blockNumber": "0x122acdf9",
          "transactionHash": "0x810541d6a721605fd41eface8c92289c7c5879efdda059c8e77c609f48596d5c",
          "transactionIndex": "0x1",
          "logIndex": "0x2",
          "removed": false
        },
        {
          "address": "0xa4f8334720bd7361bee63fb417ca0ee68ead0b3b",
          "topics": [
            "0x19982f258a5a6333c515c00cc9c1cff71b8073634dd3514cda97a39c402b3a95",
            "0x000000000000000000000000dafed9a0a40f810fcb5c3dfcd0cb3486036414eb"
          ],
          "data": "0x00000000000000000000000000000000000000000000000053444835ec5800000000000000000000000000000000000000000000000000001bc16d674ec80000000000000000000000000000000000000000000000000000a688906bd8b00000000000000000000000000000000000000000000000000001158e460913d00000",
          "blockHash": "0xec8e22c1f6aa59f3be01742f931776b6e7366b0a482461bea168bfe63cdf4663",
          "blockNumber": "0x122acdf9",
          "transactionHash": "0x810541d6a721605fd41eface8c92289c7c5879efdda059c8e77c609f48596d5c",
          "transactionIndex": "0x1",
          "logIndex": "0x3",
          "removed": false
        },
        {
          "address": "0xa4f8334720bd7361bee63fb417ca0ee68ead0b3b",
          "topics": [
            "0xc7f505b2f371ae2175ee4913f4499e1f2633a7b5936321eed1cdaeb6115181d2"
          ],
          "data": "0x0000000000000000000000000000000000000000000000000000000000000001",
          "blockHash": "0xec8e22c1f6aa59f3be01742f931776b6e7366b0a482461bea168bfe63cdf4663",
          "blockNumber": "0x122acdf9",
          "transactionHash": "0x810541d6a721605fd41eface8c92289c7c5879efdda059c8e77c609f48596d5c",
          "transactionIndex": "0x1",
          "logIndex": "0x4",
          "removed": false
        }
      ],
      "logsBloom": "0x00000000000008000000000000000000000000040000000000800000000000000000000000200000000000000000000000000000000000000000000000000000001000000001000000000000001000000001000000000010000000000000000000000000020000000000200000000800002000000000000000000000000000400000000000800000000800000000080000010000000080000000000000002000010000000000000000000000000000000000000000000000000000000000000000000000000000000080000000000000000000000004000000800000000022000000000000000004000000000000000800000000000040000000000000000001",
      "type": "0x2",
      "transactionHash": "0x810541d6a721605fd41eface8c92289c7c5879efdda059c8e77c609f48596d5c",
      "transactionIndex": "0x1",
      "blockHash": "0xec8e22c1f6aa59f3be01742f931776b6e7366b0a482461bea168bfe63cdf4663",
      "blockNumber": "0x122acdf9",
      "gasUsed": "0x8d95f",
      "effectiveGasPrice": "0x989680",
      "from": "0xdafed9a0a40f810fcb5c3dfcd0cb3486036414eb",
      "to": null,
      "contractAddress": "0xa4f8334720bd7361bee63fb417ca0ee68ead0b3b",
      "gasUsedForL1": "0x904c",
      "l1BlockNumber": "0x14cf2db"
    },
    {
      "status": "0x1",
      "cumulativeGasUsed": "0x1c9e6",
      "logs": [
        {
          "address": "0xaf88d065e77c8cc2239327c5edb3a432268e5831",
          "topics": [
            "0x8c5be1e5ebec7d5bd14f71427d1e84f3dd0314c0f7b2291e5b200ac8c7c3b925",
            "0x0000000000000000000000009efcc72a6c6048f2aa2096c9e65b673ca87e1a84",
            "0x000000000000000000000000a4f8334720bd7361bee63fb417ca0ee68ead0b3b"
          ],
          "data": "0xffffffffffffffffffffffffffffffffffffffffffffffffffffffffffffffff",
          "blockHash": "0x541b09456280cab086257246be9c2d86a390ba50033f2925542683b6696a0bb4",
          "blockNumber": "0x122acdfc",
          "transactionHash": "0xfb564587238565918a26f98e80f1682bed9ac46b767e313ab7f3029358342609",
          "transactionIndex": "0x1",
          "logIndex": "0x0",
          "removed": false
        },
        {
          "address": "0x9efcc72a6c6048f2aa2096c9e65b673ca87e1a84",
          "topics": [
            "0xe4cec16b1a7e6b7979e923da619a8b1e5fd0f0fb6e5c1cf647f350430ee61ca9"
          ],
          "data": "0x000000000000000000000000dafed9a0a40f810fcb5c3dfcd0cb3486036414eb000000000000000000000000a4f8334720bd7361bee63fb417ca0ee68ead0b3b",
          "blockHash": "0x541b09456280cab086257246be9c2d86a390ba50033f2925542683b6696a0bb4",
          "blockNumber": "0x122acdfc",
          "transactionHash": "0xfb564587238565918a26f98e80f1682bed9ac46b767e313ab7f3029358342609",
          "transactionIndex": "0x1",
          "logIndex": "0x1",
          "removed": false
        }
      ],
      "logsBloom": "0x0080000000000000000000000000000000000800000000000000000000000000000000000000000000000000000000000000000100000000000000000020000000000000000000000000000000000080000000000000000000000000000000000000020000000000000000000000000000000000000000000000000000000000000000000000000000000000000000000284000000000000000000000000000002040000000000000000000000000000000000000000000000000000000000000000a000000000000000000000000000000000000000000000000000000000000010000000000000000000000101200000000000000020000000000000000000",
      "type": "0x2",
      "transactionHash": "0xfb564587238565918a26f98e80f1682bed9ac46b767e313ab7f3029358342609",
      "transactionIndex": "0x1",
      "blockHash": "0x541b09456280cab086257246be9c2d86a390ba50033f2925542683b6696a0bb4",
      "blockNumber": "0x122acdfc",
      "gasUsed": "0x1c9e6",
      "effectiveGasPrice": "0x989680",
      "from": "0xdafed9a0a40f810fcb5c3dfcd0cb3486036414eb",
      "to": "0x9efcc72a6c6048f2aa2096c9e65b673ca87e1a84",
      "contractAddress": null,
      "gasUsedForL1": "0x1191",
      "l1BlockNumber": "0x14cf2db"
    },
    {
      "status": "0x1",
      "cumulativeGasUsed": "0x94264",
      "logs": [
        {
          "address": "0xe8ed8f1276acc28cf523006a79f031db41e70a06",
          "topics": [
            "0x1cf3b03a6cf19fa2baba4df148e9dcabedea7f8a5c07840e207e5c089be95d3e",
            "0x000000000000000000000000d530b7769eb06d2c47178db7f7a37f9a24e46837"
          ],
          "data": "0x",
          "blockHash": "0xf87750cb43523514313fa775ae1e6b567ef248160b76a7ac0d22c50727d6842a",
          "blockNumber": "0x122acdff",
          "transactionHash": "0xdaa74cc74825e088f76825b0044986f6e2fa54e242f9e0352dc0750a8ec162fe",
          "transactionIndex": "0x1",
          "logIndex": "0x0",
          "removed": false
        },
        {
          "address": "0xe8ed8f1276acc28cf523006a79f031db41e70a06",
          "topics": [
            "0x8be0079c531659141344cd1fd0a4f28419497f9722a3daafe3b4186f6b6457e0",
            "0x0000000000000000000000000000000000000000000000000000000000000000",
            "0x000000000000000000000000dafed9a0a40f810fcb5c3dfcd0cb3486036414eb"
          ],
          "data": "0x",
          "blockHash": "0xf87750cb43523514313fa775ae1e6b567ef248160b76a7ac0d22c50727d6842a",
          "blockNumber": "0x122acdff",
          "transactionHash": "0xdaa74cc74825e088f76825b0044986f6e2fa54e242f9e0352dc0750a8ec162fe",
          "transactionIndex": "0x1",
          "logIndex": "0x1",
          "removed": false
        },
        {
          "address": "0xaf88d065e77c8cc2239327c5edb3a432268e5831",
          "topics": [
            "0x8c5be1e5ebec7d5bd14f71427d1e84f3dd0314c0f7b2291e5b200ac8c7c3b925",
            "0x000000000000000000000000e8ed8f1276acc28cf523006a79f031db41e70a06",
            "0x000000000000000000000000a4f8334720bd7361bee63fb417ca0ee68ead0b3b"
          ],
          "data": "0xffffffffffffffffffffffffffffffffffffffffffffffffffffffffffffffff",
          "blockHash": "0xf87750cb43523514313fa775ae1e6b567ef248160b76a7ac0d22c50727d6842a",
          "blockNumber": "0x122acdff",
          "transactionHash": "0xdaa74cc74825e088f76825b0044986f6e2fa54e242f9e0352dc0750a8ec162fe",
          "transactionIndex": "0x1",
          "logIndex": "0x2",
          "removed": false
        },
        {
          "address": "0xe8ed8f1276acc28cf523006a79f031db41e70a06",
          "topics": [
            "0xc7f505b2f371ae2175ee4913f4499e1f2633a7b5936321eed1cdaeb6115181d2"
          ],
          "data": "0x0000000000000000000000000000000000000000000000000000000000000001",
          "blockHash": "0xf87750cb43523514313fa775ae1e6b567ef248160b76a7ac0d22c50727d6842a",
          "blockNumber": "0x122acdff",
          "transactionHash": "0xdaa74cc74825e088f76825b0044986f6e2fa54e242f9e0352dc0750a8ec162fe",
          "transactionIndex": "0x1",
          "logIndex": "0x3",
          "removed": false
        }
      ],
      "logsBloom": "0x0000000100000800000000000000000000000000004000000080000000000000000800000000000000000000000000000000000100000000000000008020000000000000000100000000000000100000000100000000001000000000000000000000000002000000000000000000080000000000000000000000000000000040000008000000000000080000000008000000000000008000000000000010000002040000000000000000000000000000000000000000000000040000000000000000a000000000000000000000000000004000000004000000800000000020000010000000000000200000000000200000000000000020000000000000000000",
      "type": "0x2",
      "transactionHash": "0xdaa74cc74825e088f76825b0044986f6e2fa54e242f9e0352dc0750a8ec162fe",
      "transactionIndex": "0x1",
      "blockHash": "0xf87750cb43523514313fa775ae1e6b567ef248160b76a7ac0d22c50727d6842a",
      "blockNumber": "0x122acdff",
      "gasUsed": "0x94264",
      "effectiveGasPrice": "0x989680",
      "from": "0xdafed9a0a40f810fcb5c3dfcd0cb3486036414eb",
      "to": null,
      "contractAddress": "0xe8ed8f1276acc28cf523006a79f031db41e70a06",
      "gasUsedForL1": "0x8b60",
      "l1BlockNumber": "0x14cf2db"
    },
    {
      "status": "0x1",
      "cumulativeGasUsed": "0x1404f",
      "logs": [
        {
          "address": "0xa4f8334720bd7361bee63fb417ca0ee68ead0b3b",
          "topics": [
            "0xd95be3f58e228f591dc02325de1e49194cbc10cd10b209cb74ec68c4d0f5fec2",
            "0x000000000000000000000000dafed9a0a40f810fcb5c3dfcd0cb3486036414eb",
            "0x000000000000000000000000e8ed8f1276acc28cf523006a79f031db41e70a06"
          ],
          "data": "0x",
          "blockHash": "0x5beca26bdc98fa42610ea6faa0150b6bf729388c6ae437fe9e33dbd0b490dfe4",
          "blockNumber": "0x122ace02",
          "transactionHash": "0x5a9d6a30c6b180e6478cc5689b72543e5f8df4e4bf7b35f3aa1d696f3e520648",
          "transactionIndex": "0x1",
          "logIndex": "0x0",
          "removed": false
        }
      ],
      "logsBloom": "0x00000000000008000000000000000000000000000000000004000000000000000008000000000000000000000000000000000000000000000000000000000000001000000001000000000000000000000000000000000010000000000020000000000000000000000000000000000000000000000000000000000000000000000000000000000000000000000000000000000000000000000000000000100000000000000000000000000000000000000000000000000000000000000000000000000000000000000000000000000000400000000000000000000000000000000000000000000000200000000000000800000000000040000000000000000000",
      "type": "0x2",
      "transactionHash": "0x5a9d6a30c6b180e6478cc5689b72543e5f8df4e4bf7b35f3aa1d696f3e520648",
      "transactionIndex": "0x1",
      "blockHash": "0x5beca26bdc98fa42610ea6faa0150b6bf729388c6ae437fe9e33dbd0b490dfe4",
      "blockNumber": "0x122ace02",
      "gasUsed": "0x1404f",
      "effectiveGasPrice": "0x989680",
      "from": "0xdafed9a0a40f810fcb5c3dfcd0cb3486036414eb",
      "to": "0xa4f8334720bd7361bee63fb417ca0ee68ead0b3b",
      "contractAddress": null,
      "gasUsedForL1": "0x1191",
      "l1BlockNumber": "0x14cf2db"
    },
    {
      "status": "0x1",
      "cumulativeGasUsed": "0x6bae0",
      "logs": [
        {
          "address": "0xc5278d17b23d6aa73e527e6607ed10217f649fdb",
          "topics": [
            "0x1cf3b03a6cf19fa2baba4df148e9dcabedea7f8a5c07840e207e5c089be95d3e",
            "0x0000000000000000000000008656c2b6adf31812b3c37bac58adc8917c83d8f8"
          ],
          "data": "0x",
          "blockHash": "0xafe1aa1ad2a0409ef32174551a2a8b7ba207c8a9f56fcc47870a7772542938a5",
          "blockNumber": "0x122ace05",
          "transactionHash": "0xcb6d9cd2cb240298e0b9a2100f4a31816e293b832930a636bc1d3d7b2d69a444",
          "transactionIndex": "0x1",
          "logIndex": "0x0",
          "removed": false
        },
        {
          "address": "0xc5278d17b23d6aa73e527e6607ed10217f649fdb",
          "topics": [
            "0x8be0079c531659141344cd1fd0a4f28419497f9722a3daafe3b4186f6b6457e0",
            "0x0000000000000000000000000000000000000000000000000000000000000000",
            "0x000000000000000000000000dafed9a0a40f810fcb5c3dfcd0cb3486036414eb"
          ],
          "data": "0x",
          "blockHash": "0xafe1aa1ad2a0409ef32174551a2a8b7ba207c8a9f56fcc47870a7772542938a5",
          "blockNumber": "0x122ace05",
          "transactionHash": "0xcb6d9cd2cb240298e0b9a2100f4a31816e293b832930a636bc1d3d7b2d69a444",
          "transactionIndex": "0x1",
          "logIndex": "0x1",
          "removed": false
        },
        {
          "address": "0xc5278d17b23d6aa73e527e6607ed10217f649fdb",
          "topics": [
            "0xee7760cb405d3beb1072ae2e716857daa45a5dd52bc1383a21173199d32c7dee",
            "0x000000000000000000000000dafed9a0a40f810fcb5c3dfcd0cb3486036414eb",
            "0x000000000000000000000000a2a7e3a770c38aae24f175a38281f74731fe477e"
          ],
          "data": "0x",
          "blockHash": "0xafe1aa1ad2a0409ef32174551a2a8b7ba207c8a9f56fcc47870a7772542938a5",
          "blockNumber": "0x122ace05",
          "transactionHash": "0xcb6d9cd2cb240298e0b9a2100f4a31816e293b832930a636bc1d3d7b2d69a444",
          "transactionIndex": "0x1",
          "logIndex": "0x2",
          "removed": false
        },
        {
          "address": "0xaf88d065e77c8cc2239327c5edb3a432268e5831",
          "topics": [
            "0x8c5be1e5ebec7d5bd14f71427d1e84f3dd0314c0f7b2291e5b200ac8c7c3b925",
            "0x000000000000000000000000c5278d17b23d6aa73e527e6607ed10217f649fdb",
            "0x000000000000000000000000a4f8334720bd7361bee63fb417ca0ee68ead0b3b"
          ],
          "data": "0xffffffffffffffffffffffffffffffffffffffffffffffffffffffffffffffff",
          "blockHash": "0xafe1aa1ad2a0409ef32174551a2a8b7ba207c8a9f56fcc47870a7772542938a5",
          "blockNumber": "0x122ace05",
          "transactionHash": "0xcb6d9cd2cb240298e0b9a2100f4a31816e293b832930a636bc1d3d7b2d69a444",
          "transactionIndex": "0x1",
          "logIndex": "0x3",
          "removed": false
        },
        {
          "address": "0xc5278d17b23d6aa73e527e6607ed10217f649fdb",
          "topics": [
            "0xc7f505b2f371ae2175ee4913f4499e1f2633a7b5936321eed1cdaeb6115181d2"
          ],
          "data": "0x0000000000000000000000000000000000000000000000000000000000000001",
          "blockHash": "0xafe1aa1ad2a0409ef32174551a2a8b7ba207c8a9f56fcc47870a7772542938a5",
          "blockNumber": "0x122ace05",
          "transactionHash": "0xcb6d9cd2cb240298e0b9a2100f4a31816e293b832930a636bc1d3d7b2d69a444",
          "transactionIndex": "0x1",
          "logIndex": "0x4",
          "removed": false
        }
      ],
      "logsBloom": "0x0000000000004800000000000000000000000004000000000080000000000000000000000000000000000000000000000000000100000000000400000020000000000000000100000000000000100000000100000008001000000000000000001000000002000000000000000000080000000000000000000000000080000048000000000080000000080000000008000000000000008000000800000000000002040040000000000000000000000080000000000000000000000000000000000000a000000000000000000000000000000200000004000010800000000020000010000000000000000002000000200000000000000020000000000000000000",
      "type": "0x2",
      "transactionHash": "0xcb6d9cd2cb240298e0b9a2100f4a31816e293b832930a636bc1d3d7b2d69a444",
      "transactionIndex": "0x1",
      "blockHash": "0xafe1aa1ad2a0409ef32174551a2a8b7ba207c8a9f56fcc47870a7772542938a5",
      "blockNumber": "0x122ace05",
      "gasUsed": "0x6bae0",
      "effectiveGasPrice": "0x989680",
      "from": "0xdafed9a0a40f810fcb5c3dfcd0cb3486036414eb",
      "to": null,
      "contractAddress": "0xc5278d17b23d6aa73e527e6607ed10217f649fdb",
      "gasUsedForL1": "0x87bf",
      "l1BlockNumber": "0x14cf2db"
    },
    {
      "status": "0x1",
      "cumulativeGasUsed": "0x8d050",
      "logs": [
        {
          "address": "0xa4f8334720bd7361bee63fb417ca0ee68ead0b3b",
          "topics": [
            "0x0813bc74dde0091f04cdeeaae076c8731bd585a408ed95332319b650cfa48be8",
            "0x000000000000000000000000dafed9a0a40f810fcb5c3dfcd0cb3486036414eb",
            "0x000000000000000000000000c5278d17b23d6aa73e527e6607ed10217f649fdb"
          ],
          "data": "0x",
          "blockHash": "0x5ec3c49931659978b3939a3b2803e3c7522047f37420d74dce5d6d2e65f51aa7",
          "blockNumber": "0x122ace08",
          "transactionHash": "0x3464acbf4fead0ac22682605c72fe4366b00614c2615226861c1ccb35dcc0233",
          "transactionIndex": "0x2",
          "logIndex": "0x8",
          "removed": false
        }
      ],
      "logsBloom": "0x00000000000008000000000000000000000000000000000000000000000000000000000000000000000000000000000000000000000000000000000000000000001000000001000000000000000000000000000000000030000000000000000000000000000000000000000000000000000000000000000000000000000000080000000000000000000000000000000000040000000000000000000000000000000000400000000000000000000000800000000000004000000000000000000000000000000000000000000000000000000000000000000000000000000000000000000000000000000000000000000800000000000040000000000000000000",
      "type": "0x2",
      "transactionHash": "0x3464acbf4fead0ac22682605c72fe4366b00614c2615226861c1ccb35dcc0233",
      "transactionIndex": "0x2",
      "blockHash": "0x5ec3c49931659978b3939a3b2803e3c7522047f37420d74dce5d6d2e65f51aa7",
      "blockNumber": "0x122ace08",
      "gasUsed": "0x128dc",
      "effectiveGasPrice": "0x989680",
      "from": "0xdafed9a0a40f810fcb5c3dfcd0cb3486036414eb",
      "to": "0xa4f8334720bd7361bee63fb417ca0ee68ead0b3b",
      "contractAddress": null,
      "gasUsedForL1": "0x1191",
      "l1BlockNumber": "0x14cf2db"
    }
  ],
  "libraries": [],
  "pending": [],
  "returns": {},
  "timestamp": 1739238826,
  "chain": 42161,
  "commit": "241ae06"
}