{
  "transactions": [
    {
      "hash": "0x7594c14ef633052ae9df54d3c4b96775b8cbcdf6152f868659992977839c0a73",
      "transactionType": "CALL",
      "contractName": null,
      "contractAddress": "0x9ca2d751b68b325ac0d2820c2e765b1089cdd915",
      "function": "authorize(address)",
      "arguments": [
        "0x000e8054eD824ee6a257b5Bac1eCb936B4Af7A7F"
      ],
      "transaction": {
        "from": "0xdafed9a0a40f810fcb5c3dfcd0cb3486036414eb",
        "to": "0x9ca2d751b68b325ac0d2820c2e765b1089cdd915",
        "gas": "0x104b6",
        "value": "0x0",
        "input": "0xb6a5d7de000000000000000000000000000e8054ed824ee6a257b5bac1ecb936b4af7a7f",
        "nonce": "0x5d",
        "chainId": "0x38"
      },
      "additionalContracts": [],
      "isFixedGasLimit": false
    }
  ],
  "receipts": [
    {
      "status": "0x1",
      "cumulativeGasUsed": "0x10db265",
      "logs": [
        {
          "address": "0x9ca2d751b68b325ac0d2820c2e765b1089cdd915",
          "topics": [
            "0x2873eaf2ca7367f81cecd586d0d13e9ec99b66d2fda05d66e2ae88133b532e03",
            "0x000000000000000000000000dafed9a0a40f810fcb5c3dfcd0cb3486036414eb",
            "0x000000000000000000000000000e8054ed824ee6a257b5bac1ecb936b4af7a7f",
            "0x0000000000000000000000000000000000000000000000000000000000000001"
          ],
          "data": "0x",
          "blockHash": "0x802d5acd29d41602e2c7e9366bbf788c72ecacdf4b0e9361bc4f007551b2eef5",
          "blockNumber": "0x2c695a6",
          "transactionHash": "0x7594c14ef633052ae9df54d3c4b96775b8cbcdf6152f868659992977839c0a73",
          "transactionIndex": "0xad",
          "logIndex": "0x1c1",
          "removed": false
        }
      ],
      "logsBloom": "0x00000000000008000000000000000000000000000000100000000010000000000000000000000000000000000000080000000000000000000000020000040000000000000001000000000080000000000000000000040010040000000000000000000000000000000000000000000000200000000000000000000000000000000000000000000000000000000000000000000000000000000000000000000000000000000000000000000000000000000000000000000000000000000000000000000000000000000000000000000000000000000000000000000000000040000000000000000000000200040000000000000000000000000000000000000000",
      "type": "0x0",
      "transactionHash": "0x7594c14ef633052ae9df54d3c4b96775b8cbcdf6152f868659992977839c0a73",
      "transactionIndex": "0xad",
      "blockHash": "0x802d5acd29d41602e2c7e9366bbf788c72ecacdf4b0e9361bc4f007551b2eef5",
      "blockNumber": "0x2c695a6",
      "gasUsed": "0xbcc0",
      "effectiveGasPrice": "0x3b9aca00",
      "from": "0xdafed9a0a40f810fcb5c3dfcd0cb3486036414eb",
      "to": "0x9ca2d751b68b325ac0d2820c2e765b1089cdd915",
      "contractAddress": null
    }
  ],
  "libraries": [],
  "pending": [],
  "returns": {},
  "timestamp": 1739288134,
  "chain": 56,
  "commit": "aedfac0"
}