{
  "transactions": [
    {
      "hash": "0x5b21dbaf7f39832ca912a0586e24a09fe8d8c2b6c13ac8bfe0e356771e075942",
      "transactionType": "CALL",
      "contractName": null,
      "contractAddress": "0x6bb03c85599f99f0542693c171cec7944e0ac563",
      "function": "setPriceFeeds(address[],address[])",
      "arguments": [
        "[0x8dC2B211aa50FFD263DdA0453E690EFf77849ed6]",
        "[0x8dC2B211aa50FFD263DdA0453E690EFf77849ed6]"
      ],
      "transaction": {
        "from": "0xdafed9a0a40f810fcb5c3dfcd0cb3486036414eb",
        "to": "0x6bb03c85599f99f0542693c171cec7944e0ac563",
        "gas": "0x78524",
        "value": "0x0",
        "input": "0x92aeb53a0000000000000000000000000000000000000000000000000000000000000040000000000000000000000000000000000000000000000000000000000000008000000000000000000000000000000000000000000000000000000000000000010000000000000000000000008dc2b211aa50ffd263dda0453e690eff77849ed600000000000000000000000000000000000000000000000000000000000000010000000000000000000000008dc2b211aa50ffd263dda0453e690eff77849ed6",
        "nonce": "0x185",
        "chainId": "0xa4b1"
      },
      "additionalContracts": [],
      "isFixedGasLimit": false
    },
    {
      "hash": "0xd8bd96c6b3805675ce790d56a061b5feddac715b46b7d04fb4a12ee4d77d8c7a",
      "transactionType": "CALL",
      "contractName": null,
      "contractAddress": "0x6bb03c85599f99f0542693c171cec7944e0ac563",
      "function": "setHeartbeats(address[],uint256[])",
      "arguments": [
        "[0x8dC2B211aa50FFD263DdA0453E690EFf77849ed6]",
        "[86400]"
      ],
      "transaction": {
        "from": "0xdafed9a0a40f810fcb5c3dfcd0cb3486036414eb",
        "to": "0x6bb03c85599f99f0542693c171cec7944e0ac563",
        "gas": "0x79595",
        "value": "0x0",
        "input": "0x98319bd10000000000000000000000000000000000000000000000000000000000000040000000000000000000000000000000000000000000000000000000000000008000000000000000000000000000000000000000000000000000000000000000010000000000000000000000008dc2b211aa50ffd263dda0453e690eff77849ed600000000000000000000000000000000000000000000000000000000000000010000000000000000000000000000000000000000000000000000000000015180",
        "nonce": "0x186",
        "chainId": "0xa4b1"
      },
      "additionalContracts": [],
      "isFixedGasLimit": false
    },
    {
      "hash": "0x249a2010b094e020c67a756611eb39669a4c2fede88dcdf9b90e41e6a04d90dc",
      "transactionType": "CREATE",
      "contractName": "BeaconProxy",
      "contractAddress": "0x7b1e49ee1f796f3337add57edde071c49f3ca8a3",
      "function": null,
      "arguments": [
        "0x19E6Dc367b4DbCa5ee38de32DB6C74b731ed755E",
        "0xcb706309000000000000000000000000dafed9a0a40f810fcb5c3dfcd0cb3486036414eb000000000000000000000000af88d065e77c8cc2239327c5edb3a432268e583100000000000000000000000000000000000000000000000000000000000000000000000000000000000000000000000000000000000000000011c37937e080000000000000000000000000000000000000000000000000000011c37937e0800000000000000000000000000000000000000000000000000000000000000000e0000000000000000000000000000000000000000000000000000000000000014000000000000000000000000000000000000000000000000000000000000000304c6f6761726974686d20426173697320555344432d5649525455414c2048797065726c69717569642028416c706861290000000000000000000000000000000000000000000000000000000000000000000000000000000000000000000000176c6f672d622d757364632d7669727475616c2d686c2d61000000000000000000"
      ],
      "transaction": {
        "from": "0xdafed9a0a40f810fcb5c3dfcd0cb3486036414eb",
        "gas": "0x26cf60",
        "value": "0x0",
        "input": "0x60a08060405261047a80380380916100178285610292565b833981016040828203126101eb5761002e826102c9565b602083015190926001600160401b0382116101eb57019080601f830112156101eb57815161005b816102dd565b926100696040519485610292565b8184526020840192602083830101116101eb57815f926020809301855e84010152823b15610274577fa3f0ad74e5423aebfd80d3ef4346578335a9a72aeaee59ff6cb3582b35133d5080546001600160a01b0319166001600160a01b038516908117909155604051635c60da1b60e01b8152909190602081600481865afa9081156101f7575f9161023a575b50803b1561021a5750817f1cf3b03a6cf19fa2baba4df148e9dcabedea7f8a5c07840e207e5c089be95d3e5f80a282511561020257602060049260405193848092635c60da1b60e01b82525afa9182156101f7575f926101ae575b505f809161018a945190845af43d156101a6573d9161016e836102dd565b9261017c6040519485610292565b83523d5f602085013e6102f8565b505b608052604051610123908161035782396080518160180152f35b6060916102f8565b9291506020833d6020116101ef575b816101ca60209383610292565b810103126101eb575f80916101e161018a956102c9565b9394509150610150565b5f80fd5b3d91506101bd565b6040513d5f823e3d90fd5b505050341561018c5763b398979f60e01b5f5260045ffd5b634c9c8ce360e01b5f9081526001600160a01b0391909116600452602490fd5b90506020813d60201161026c575b8161025560209383610292565b810103126101eb57610266906102c9565b5f6100f5565b3d9150610248565b631933b43b60e21b5f9081526001600160a01b038416600452602490fd5b601f909101601f19168101906001600160401b038211908210176102b557604052565b634e487b7160e01b5f52604160045260245ffd5b51906001600160a01b03821682036101eb57565b6001600160401b0381116102b557601f01601f191660200190565b9061031c575080511561030d57805190602001fd5b630a12f52160e11b5f5260045ffd5b8151158061034d575b61032d575090565b639996b31560e01b5f9081526001600160a01b0391909116600452602490fd5b50803b1561032556fe60806040819052635c60da1b60e01b81526020906004817f00000000000000000000000000000000000000000000000000000000000000006001600160a01b03165afa801560a2575f901560d1575060203d602011609c575b601f19601f820116608001906080821067ffffffffffffffff83111760885760849160405260800160ad565b60d1565b634e487b7160e01b5f52604160045260245ffd5b503d6058565b6040513d5f823e3d90fd5b602090607f19011260cd576080516001600160a01b038116810360cd5790565b5f80fd5b5f8091368280378136915af43d5f803e1560e9573d5ff35b3d5ffdfea264697066735822122016432c6d532b45ad58d092e7541af8bfd22b0a8e4ae46765252136580abe03ac64736f6c634300081c003300000000000000000000000019e6dc367b4dbca5ee38de32db6c74b731ed755e00000000000000000000000000000000000000000000000000000000000000400000000000000000000000000000000000000000000000000000000000000184cb706309000000000000000000000000dafed9a0a40f810fcb5c3dfcd0cb3486036414eb000000000000000000000000af88d065e77c8cc2239327c5edb3a432268e583100000000000000000000000000000000000000000000000000000000000000000000000000000000000000000000000000000000000000000011c37937e080000000000000000000000000000000000000000000000000000011c37937e0800000000000000000000000000000000000000000000000000000000000000000e0000000000000000000000000000000000000000000000000000000000000014000000000000000000000000000000000000000000000000000000000000000304c6f6761726974686d20426173697320555344432d5649525455414c2048797065726c69717569642028416c706861290000000000000000000000000000000000000000000000000000000000000000000000000000000000000000000000176c6f672d622d757364632d7669727475616c2d686c2d6100000000000000000000000000000000000000000000000000000000000000000000000000",
        "nonce": "0x187",
        "chainId": "0xa4b1"
      },
      "additionalContracts": [],
      "isFixedGasLimit": false
    },
    {
      "hash": "0x170bb6b5d7366efe8364c1930546617fb6b021480699bcb56fb5ed13c6859c61",
      "transactionType": "CREATE",
      "contractName": "BeaconProxy",
      "contractAddress": "0xe70a75530d8ec487f69451002d7f2f283f098a18",
      "function": null,
      "arguments": [
        "0x462668198F8a8c3A4410A0b45a47f432C77749aF",
        "0x6322b513000000000000000000000000c1a8f7419c2680f4ba2a730d5a5d7abfdcc1efda0000000000000000000000008dc2b211aa50ffd263dda0453e690eff77849ed60000000000000000000000007b1e49ee1f796f3337add57edde071c49f3ca8a30000000000000000000000006bb03c85599f99f0542693c171cec7944e0ac563000000000000000000000000bd3f4f622df9690e9202d6c8d7fbdf2763d0b89f0000000000000000000000000000000000000000000000003782dace9d9000000000000000000000000000000000000000000000000000001bc16d674ec8000000000000000000000000000000000000000000000000000053444835ec5800000000000000000000000000000000000000000000000000006124fee993bc0000"
      ],
      "transaction": {
        "from": "0xdafed9a0a40f810fcb5c3dfcd0cb3486036414eb",
        "gas": "0xbe31b",
        "value": "0x0",
        "input": "0x60a08060405261047a80380380916100178285610292565b833981016040828203126101eb5761002e826102c9565b602083015190926001600160401b0382116101eb57019080601f830112156101eb57815161005b816102dd565b926100696040519485610292565b8184526020840192602083830101116101eb57815f926020809301855e84010152823b15610274577fa3f0ad74e5423aebfd80d3ef4346578335a9a72aeaee59ff6cb3582b35133d5080546001600160a01b0319166001600160a01b038516908117909155604051635c60da1b60e01b8152909190602081600481865afa9081156101f7575f9161023a575b50803b1561021a5750817f1cf3b03a6cf19fa2baba4df148e9dcabedea7f8a5c07840e207e5c089be95d3e5f80a282511561020257602060049260405193848092635c60da1b60e01b82525afa9182156101f7575f926101ae575b505f809161018a945190845af43d156101a6573d9161016e836102dd565b9261017c6040519485610292565b83523d5f602085013e6102f8565b505b608052604051610123908161035782396080518160180152f35b6060916102f8565b9291506020833d6020116101ef575b816101ca60209383610292565b810103126101eb575f80916101e161018a956102c9565b9394509150610150565b5f80fd5b3d91506101bd565b6040513d5f823e3d90fd5b505050341561018c5763b398979f60e01b5f5260045ffd5b634c9c8ce360e01b5f9081526001600160a01b0391909116600452602490fd5b90506020813d60201161026c575b8161025560209383610292565b810103126101eb57610266906102c9565b5f6100f5565b3d9150610248565b631933b43b60e21b5f9081526001600160a01b038416600452602490fd5b601f909101601f19168101906001600160401b038211908210176102b557604052565b634e487b7160e01b5f52604160045260245ffd5b51906001600160a01b03821682036101eb57565b6001600160401b0381116102b557601f01601f191660200190565b9061031c575080511561030d57805190602001fd5b630a12f52160e11b5f5260045ffd5b8151158061034d575b61032d575090565b639996b31560e01b5f9081526001600160a01b0391909116600452602490fd5b50803b1561032556fe60806040819052635c60da1b60e01b81526020906004817f00000000000000000000000000000000000000000000000000000000000000006001600160a01b03165afa801560a2575f901560d1575060203d602011609c575b601f19601f820116608001906080821067ffffffffffffffff83111760885760849160405260800160ad565b60d1565b634e487b7160e01b5f52604160045260245ffd5b503d6058565b6040513d5f823e3d90fd5b602090607f19011260cd576080516001600160a01b038116810360cd5790565b5f80fd5b5f8091368280378136915af43d5f803e1560e9573d5ff35b3d5ffdfea264697066735822122016432c6d532b45ad58d092e7541af8bfd22b0a8e4ae46765252136580abe03ac64736f6c634300081c0033000000000000000000000000462668198f8a8c3a4410a0b45a47f432c77749af000000000000000000000000000000000000000000000000000000000000004000000000000000000000000000000000000000000000000000000000000001246322b513000000000000000000000000c1a8f7419c2680f4ba2a730d5a5d7abfdcc1efda0000000000000000000000008dc2b211aa50ffd263dda0453e690eff77849ed60000000000000000000000007b1e49ee1f796f3337add57edde071c49f3ca8a30000000000000000000000006bb03c85599f99f0542693c171cec7944e0ac563000000000000000000000000bd3f4f622df9690e9202d6c8d7fbdf2763d0b89f0000000000000000000000000000000000000000000000003782dace9d9000000000000000000000000000000000000000000000000000001bc16d674ec8000000000000000000000000000000000000000000000000000053444835ec5800000000000000000000000000000000000000000000000000006124fee993bc000000000000000000000000000000000000000000000000000000000000",
        "nonce": "0x188",
        "chainId": "0xa4b1"
      },
      "additionalContracts": [],
      "isFixedGasLimit": false
    },
    {
      "hash": "0xc0ea7f2c7c9350051f0fca886a47198d20501151be6f66bea0f67cb262d64b7c",
      "transactionType": "CALL",
      "contractName": "BeaconProxy",
      "contractAddress": "0x7b1e49ee1f796f3337add57edde071c49f3ca8a3",
      "function": null,
      "arguments": null,
      "transaction": {
        "from": "0xdafed9a0a40f810fcb5c3dfcd0cb3486036414eb",
        "to": "0x7b1e49ee1f796f3337add57edde071c49f3ca8a3",
        "gas": "0x4b7ff",
        "value": "0x0",
        "input": "0x33a100ca000000000000000000000000e70a75530d8ec487f69451002d7f2f283f098a18",
        "nonce": "0x189",
        "chainId": "0xa4b1"
      },
      "additionalContracts": [],
      "isFixedGasLimit": false
    },
    {
      "hash": "0xce35ce2c5ef47613a37cd6fc8897da6e04b3ba8197c31602462be50affb2044f",
      "transactionType": "CREATE",
      "contractName": "BeaconProxy",
      "contractAddress": "0x369df603b4fb77632c38aadc0dfe5c06cc0f2b9d",
      "function": null,
      "arguments": [
        "0x7b7951A10086CF1d07A70796D00f5992eb7B4B42",
        "0xcf756fdf000000000000000000000000dafed9a0a40f810fcb5c3dfcd0cb3486036414eb000000000000000000000000e70a75530d8ec487f69451002d7f2f283f098a180000000000000000000000002bb34d36cc88c77f8057b4df1c14434bfa1176730000000000000000000000000000000000000000000000000000000000002105"
      ],
      "transaction": {
        "from": "0xdafed9a0a40f810fcb5c3dfcd0cb3486036414eb",
        "gas": "0x997a1",
        "value": "0x0",
        "input": "0x60a08060405261047a80380380916100178285610292565b833981016040828203126101eb5761002e826102c9565b602083015190926001600160401b0382116101eb57019080601f830112156101eb57815161005b816102dd565b926100696040519485610292565b8184526020840192602083830101116101eb57815f926020809301855e84010152823b15610274577fa3f0ad74e5423aebfd80d3ef4346578335a9a72aeaee59ff6cb3582b35133d5080546001600160a01b0319166001600160a01b038516908117909155604051635c60da1b60e01b8152909190602081600481865afa9081156101f7575f9161023a575b50803b1561021a5750817f1cf3b03a6cf19fa2baba4df148e9dcabedea7f8a5c07840e207e5c089be95d3e5f80a282511561020257602060049260405193848092635c60da1b60e01b82525afa9182156101f7575f926101ae575b505f809161018a945190845af43d156101a6573d9161016e836102dd565b9261017c6040519485610292565b83523d5f602085013e6102f8565b505b608052604051610123908161035782396080518160180152f35b6060916102f8565b9291506020833d6020116101ef575b816101ca60209383610292565b810103126101eb575f80916101e161018a956102c9565b9394509150610150565b5f80fd5b3d91506101bd565b6040513d5f823e3d90fd5b505050341561018c5763b398979f60e01b5f5260045ffd5b634c9c8ce360e01b5f9081526001600160a01b0391909116600452602490fd5b90506020813d60201161026c575b8161025560209383610292565b810103126101eb57610266906102c9565b5f6100f5565b3d9150610248565b631933b43b60e21b5f9081526001600160a01b038416600452602490fd5b601f909101601f19168101906001600160401b038211908210176102b557604052565b634e487b7160e01b5f52604160045260245ffd5b51906001600160a01b03821682036101eb57565b6001600160401b0381116102b557601f01601f191660200190565b9061031c575080511561030d57805190602001fd5b630a12f52160e11b5f5260045ffd5b8151158061034d575b61032d575090565b639996b31560e01b5f9081526001600160a01b0391909116600452602490fd5b50803b1561032556fe60806040819052635c60da1b60e01b81526020906004817f00000000000000000000000000000000000000000000000000000000000000006001600160a01b03165afa801560a2575f901560d1575060203d602011609c575b601f19601f820116608001906080821067ffffffffffffffff83111760885760849160405260800160ad565b60d1565b634e487b7160e01b5f52604160045260245ffd5b503d6058565b6040513d5f823e3d90fd5b602090607f19011260cd576080516001600160a01b038116810360cd5790565b5f80fd5b5f8091368280378136915af43d5f803e1560e9573d5ff35b3d5ffdfea264697066735822122016432c6d532b45ad58d092e7541af8bfd22b0a8e4ae46765252136580abe03ac64736f6c634300081c00330000000000000000000000007b7951a10086cf1d07a70796d00f5992eb7b4b4200000000000000000000000000000000000000000000000000000000000000400000000000000000000000000000000000000000000000000000000000000084cf756fdf000000000000000000000000dafed9a0a40f810fcb5c3dfcd0cb3486036414eb000000000000000000000000e70a75530d8ec487f69451002d7f2f283f098a180000000000000000000000002bb34d36cc88c77f8057b4df1c14434bfa117673000000000000000000000000000000000000000000000000000000000000210500000000000000000000000000000000000000000000000000000000",
        "nonce": "0x18a",
        "chainId": "0xa4b1"
      },
      "additionalContracts": [],
      "isFixedGasLimit": false
    },
    {
      "hash": "0x336f764155e9ae98c4cee297f425a8e452b4423dc9f2dbff51d9bb48031411f3",
      "transactionType": "CALL",
      "contractName": "BeaconProxy",
      "contractAddress": "0xe70a75530d8ec487f69451002d7f2f283f098a18",
      "function": null,
      "arguments": null,
      "transaction": {
        "from": "0xdafed9a0a40f810fcb5c3dfcd0cb3486036414eb",
        "to": "0xe70a75530d8ec487f69451002d7f2f283f098a18",
        "gas": "0x4b81f",
        "value": "0x0",
        "input": "0x817f040a000000000000000000000000369df603b4fb77632c38aadc0dfe5c06cc0f2b9d",
        "nonce": "0x18b",
        "chainId": "0xa4b1"
      },
      "additionalContracts": [],
      "isFixedGasLimit": false
    },
    {
      "hash": "0xc8ca58c06eceb4aacb72ed136208a0a257eab8085591bc88cf52fdea91fc2741",
      "transactionType": "CREATE",
      "contractName": "BeaconProxy",
      "contractAddress": "0x7fb4322b7f4fce92fbe344956386e9a0eb67e776",
      "function": null,
      "arguments": [
        "0x8656C2b6ADF31812B3C37BAc58AdC8917c83d8f8",
        "0xfc5b5fda00000000000000000000000083845524e0f82bbdb288875ee0d14a9892b7f3b1000000000000000000000000e70a75530d8ec487f69451002d7f2f283f098a180000000000000000000000000473174da33598aad43357644bfdf79f9d3167ba0000000000000000000000006bb03c85599f99f0542693c171cec7944e0ac5630000000000000000000000000000000000000000000000000000000000000000"
      ],
      "transaction": {
        "from": "0xdafed9a0a40f810fcb5c3dfcd0cb3486036414eb",
        "gas": "0x80b10",
        "value": "0x0",
        "input": "0x60a08060405261047a80380380916100178285610292565b833981016040828203126101eb5761002e826102c9565b602083015190926001600160401b0382116101eb57019080601f830112156101eb57815161005b816102dd565b926100696040519485610292565b8184526020840192602083830101116101eb57815f926020809301855e84010152823b15610274577fa3f0ad74e5423aebfd80d3ef4346578335a9a72aeaee59ff6cb3582b35133d5080546001600160a01b0319166001600160a01b038516908117909155604051635c60da1b60e01b8152909190602081600481865afa9081156101f7575f9161023a575b50803b1561021a5750817f1cf3b03a6cf19fa2baba4df148e9dcabedea7f8a5c07840e207e5c089be95d3e5f80a282511561020257602060049260405193848092635c60da1b60e01b82525afa9182156101f7575f926101ae575b505f809161018a945190845af43d156101a6573d9161016e836102dd565b9261017c6040519485610292565b83523d5f602085013e6102f8565b505b608052604051610123908161035782396080518160180152f35b6060916102f8565b9291506020833d6020116101ef575b816101ca60209383610292565b810103126101eb575f80916101e161018a956102c9565b9394509150610150565b5f80fd5b3d91506101bd565b6040513d5f823e3d90fd5b505050341561018c5763b398979f60e01b5f5260045ffd5b634c9c8ce360e01b5f9081526001600160a01b0391909116600452602490fd5b90506020813d60201161026c575b8161025560209383610292565b810103126101eb57610266906102c9565b5f6100f5565b3d9150610248565b631933b43b60e21b5f9081526001600160a01b038416600452602490fd5b601f909101601f19168101906001600160401b038211908210176102b557604052565b634e487b7160e01b5f52604160045260245ffd5b51906001600160a01b03821682036101eb57565b6001600160401b0381116102b557601f01601f191660200190565b9061031c575080511561030d57805190602001fd5b630a12f52160e11b5f5260045ffd5b8151158061034d575b61032d575090565b639996b31560e01b5f9081526001600160a01b0391909116600452602490fd5b50803b1561032556fe60806040819052635c60da1b60e01b81526020906004817f00000000000000000000000000000000000000000000000000000000000000006001600160a01b03165afa801560a2575f901560d1575060203d602011609c575b601f19601f820116608001906080821067ffffffffffffffff83111760885760849160405260800160ad565b60d1565b634e487b7160e01b5f52604160045260245ffd5b503d6058565b6040513d5f823e3d90fd5b602090607f19011260cd576080516001600160a01b038116810360cd5790565b5f80fd5b5f8091368280378136915af43d5f803e1560e9573d5ff35b3d5ffdfea264697066735822122016432c6d532b45ad58d092e7541af8bfd22b0a8e4ae46765252136580abe03ac64736f6c634300081c00330000000000000000000000008656c2b6adf31812b3c37bac58adc8917c83d8f8000000000000000000000000000000000000000000000000000000000000004000000000000000000000000000000000000000000000000000000000000000a4fc5b5fda00000000000000000000000083845524e0f82bbdb288875ee0d14a9892b7f3b1000000000000000000000000e70a75530d8ec487f69451002d7f2f283f098a180000000000000000000000000473174da33598aad43357644bfdf79f9d3167ba0000000000000000000000006bb03c85599f99f0542693c171cec7944e0ac563000000000000000000000000000000000000000000000000000000000000000000000000000000000000000000000000000000000000000000000000",
        "nonce": "0x18c",
        "chainId": "0xa4b1"
      },
      "additionalContracts": [],
      "isFixedGasLimit": false
    },
    {
      "hash": "0xa0d432cd45e1ce9404aef6879a7926fd8a34e7e08cbe2aeb630312caf6fdfd3b",
      "transactionType": "CALL",
      "contractName": "BeaconProxy",
      "contractAddress": "0xe70a75530d8ec487f69451002d7f2f283f098a18",
      "function": null,
      "arguments": null,
      "transaction": {
        "from": "0xdafed9a0a40f810fcb5c3dfcd0cb3486036414eb",
        "to": "0xe70a75530d8ec487f69451002d7f2f283f098a18",
        "gas": "0x4b81f",
        "value": "0x0",
        "input": "0x3d4493810000000000000000000000007fb4322b7f4fce92fbe344956386e9a0eb67e776",
        "nonce": "0x18d",
        "chainId": "0xa4b1"
      },
      "additionalContracts": [],
      "isFixedGasLimit": false
    }
  ],
  "receipts": [
    {
      "status": "0x1",
      "cumulativeGasUsed": "0x18190e8",
      "logs": [
        {
          "address": "0x6bb03c85599f99f0542693c171cec7944e0ac563",
          "topics": [
            "0xa8abe0398416476db5b05737cd4da3b3cbde5012d978a6a6c3fd49d321753536"
          ],
          "data": "0x0000000000000000000000008dc2b211aa50ffd263dda0453e690eff77849ed60000000000000000000000008dc2b211aa50ffd263dda0453e690eff77849ed6",
          "blockHash": "0x2c8c9d941abd107c73bbd7f78b69bcf523b2429ad30bac918791ba9160ff8056",
          "blockNumber": "0x122dae73",
          "transactionHash": "0x5b21dbaf7f39832ca912a0586e24a09fe8d8c2b6c13ac8bfe0e356771e075942",
          "transactionIndex": "0x48",
          "logIndex": "0x8c",
          "removed": false
        }
      ],
      "logsBloom": "0x00000000000000000000000000000000000000000000000000000000000000000200000000000000000000000000000000000000000000000000000000000000000000000080000000000000000000000000000000000000000000000000000000000000000000000000000000000000000000000000000000000400000000000000000000000000000000000000000000000000000000000000000000000000000000000000000000000000000000000000400000000000000000000000000000000020000000000080000000000000000000000000000000000000000000000000000000000000000000000000000000000000000000000000000000000000",
      "type": "0x2",
      "transactionHash": "0x5b21dbaf7f39832ca912a0586e24a09fe8d8c2b6c13ac8bfe0e356771e075942",
      "transactionIndex": "0x48",
      "blockHash": "0x2c8c9d941abd107c73bbd7f78b69bcf523b2429ad30bac918791ba9160ff8056",
      "blockNumber": "0x122dae73",
      "gasUsed": "0x4ceb1",
      "effectiveGasPrice": "0x989680",
      "from": "0xdafed9a0a40f810fcb5c3dfcd0cb3486036414eb",
      "to": "0x6bb03c85599f99f0542693c171cec7944e0ac563",
      "contractAddress": null,
      "gasUsedForL1": "0x4485e",
      "l1BlockNumber": "0x14d0236"
    },
    {
      "status": "0x1",
      "cumulativeGasUsed": "0x8b5ec7",
      "logs": [
        {
          "address": "0x6bb03c85599f99f0542693c171cec7944e0ac563",
          "topics": [
            "0xa40c4f8f3f2e752ab36e989d38062be2e56a84ed82c5541b107bb81f119bfe5e"
          ],
          "data": "0x0000000000000000000000008dc2b211aa50ffd263dda0453e690eff77849ed60000000000000000000000000000000000000000000000000000000000015180",
          "blockHash": "0xa771c68ad2da3e0c712a227378b640ce20cc92b3d2144686a62a55f6501ba504",
          "blockNumber": "0x122dae7b",
          "transactionHash": "0xd8bd96c6b3805675ce790d56a061b5feddac715b46b7d04fb4a12ee4d77d8c7a",
          "transactionIndex": "0x1a",
          "logIndex": "0x5c",
          "removed": false
        }
      ],
      "logsBloom": "0x00000000000000000000000000000000000000000000000000000000000000000200000000000000001000000000000000000000000000000000000000000000000000000000000000000000000000000000000000000000000000000000000000000000000000000000000000000000000000000000000000000000000000000000000000000000000000000000000000000000000000000000000000000000000000000000000000000000000000000000400000000000000000000000000000000020000000000000000000080000000000000000000000000000800000000000000000000000000000000000000000000000000000000000000000000000",
      "type": "0x2",
      "transactionHash": "0xd8bd96c6b3805675ce790d56a061b5feddac715b46b7d04fb4a12ee4d77d8c7a",
      "transactionIndex": "0x1a",
      "blockHash": "0xa771c68ad2da3e0c712a227378b640ce20cc92b3d2144686a62a55f6501ba504",
      "blockNumber": "0x122dae7b",
      "gasUsed": "0x4bc74",
      "effectiveGasPrice": "0x989680",
      "from": "0xdafed9a0a40f810fcb5c3dfcd0cb3486036414eb",
      "to": "0x6bb03c85599f99f0542693c171cec7944e0ac563",
      "contractAddress": null,
      "gasUsedForL1": "0x43780",
      "l1BlockNumber": "0x14d0236"
    },
    {
      "status": "0x1",
      "cumulativeGasUsed": "0x322fa2",
      "logs": [
        {
          "address": "0x7b1e49ee1f796f3337add57edde071c49f3ca8a3",
          "topics": [
            "0x1cf3b03a6cf19fa2baba4df148e9dcabedea7f8a5c07840e207e5c089be95d3e",
            "0x00000000000000000000000019e6dc367b4dbca5ee38de32db6c74b731ed755e"
          ],
          "data": "0x",
          "blockHash": "0xb2e66359819eca99590177045dacac3340da07f75ae1a18ce1eb777cad299ef4",
          "blockNumber": "0x122dae83",
          "transactionHash": "0x249a2010b094e020c67a756611eb39669a4c2fede88dcdf9b90e41e6a04d90dc",
          "transactionIndex": "0x3",
          "logIndex": "0x69",
          "removed": false
        },
        {
          "address": "0x7b1e49ee1f796f3337add57edde071c49f3ca8a3",
          "topics": [
            "0x8be0079c531659141344cd1fd0a4f28419497f9722a3daafe3b4186f6b6457e0",
            "0x0000000000000000000000000000000000000000000000000000000000000000",
            "0x000000000000000000000000dafed9a0a40f810fcb5c3dfcd0cb3486036414eb"
          ],
          "data": "0x",
          "blockHash": "0xb2e66359819eca99590177045dacac3340da07f75ae1a18ce1eb777cad299ef4",
          "blockNumber": "0x122dae83",
          "transactionHash": "0x249a2010b094e020c67a756611eb39669a4c2fede88dcdf9b90e41e6a04d90dc",
          "transactionIndex": "0x3",
          "logIndex": "0x6a",
          "removed": false
        },
        {
          "address": "0x7b1e49ee1f796f3337add57edde071c49f3ca8a3",
          "topics": [
            "0x9d7a48441963aa3425b87ed3abc8ba1f46667f5b3bf7114f7ad42a2fa20973bd"
          ],
          "data": "0x000000000000000000000000dafed9a0a40f810fcb5c3dfcd0cb3486036414ebffffffffffffffffffffffffffffffffffffffffffffffffffffffffffffffff",
          "blockHash": "0xb2e66359819eca99590177045dacac3340da07f75ae1a18ce1eb777cad299ef4",
          "blockNumber": "0x122dae83",
          "transactionHash": "0x249a2010b094e020c67a756611eb39669a4c2fede88dcdf9b90e41e6a04d90dc",
          "transactionIndex": "0x3",
          "logIndex": "0x6b",
          "removed": false
        },
        {
          "address": "0x7b1e49ee1f796f3337add57edde071c49f3ca8a3",
          "topics": [
            "0x53017628b1d5666a4e56030d0acb76a88d0c802c5da8728edba2985877c30ec0"
          ],
          "data": "0x000000000000000000000000dafed9a0a40f810fcb5c3dfcd0cb3486036414ebffffffffffffffffffffffffffffffffffffffffffffffffffffffffffffffff",
          "blockHash": "0xb2e66359819eca99590177045dacac3340da07f75ae1a18ce1eb777cad299ef4",
          "blockNumber": "0x122dae83",
          "transactionHash": "0x249a2010b094e020c67a756611eb39669a4c2fede88dcdf9b90e41e6a04d90dc",
          "transactionIndex": "0x3",
          "logIndex": "0x6c",
          "removed": false
        },
        {
          "address": "0x7b1e49ee1f796f3337add57edde071c49f3ca8a3",
          "topics": [
            "0x6db5522382e049661c3415e5bc6fed59fee1054d960d07e772b763968ef1fd4e"
          ],
          "data": "0x000000000000000000000000dafed9a0a40f810fcb5c3dfcd0cb3486036414eb0000000000000000000000000000000000000000000000000011c37937e08000",
          "blockHash": "0xb2e66359819eca99590177045dacac3340da07f75ae1a18ce1eb777cad299ef4",
          "blockNumber": "0x122dae83",
          "transactionHash": "0x249a2010b094e020c67a756611eb39669a4c2fede88dcdf9b90e41e6a04d90dc",
          "transactionIndex": "0x3",
          "logIndex": "0x6d",
          "removed": false
        },
        {
          "address": "0x7b1e49ee1f796f3337add57edde071c49f3ca8a3",
          "topics": [
            "0x21e5e6d8aeffff22c50c806a26be619de7fc39d1029e6fe5ad986036bb26f0f3"
          ],
          "data": "0x000000000000000000000000dafed9a0a40f810fcb5c3dfcd0cb3486036414eb0000000000000000000000000000000000000000000000000011c37937e08000",
          "blockHash": "0xb2e66359819eca99590177045dacac3340da07f75ae1a18ce1eb777cad299ef4",
          "blockNumber": "0x122dae83",
          "transactionHash": "0x249a2010b094e020c67a756611eb39669a4c2fede88dcdf9b90e41e6a04d90dc",
          "transactionIndex": "0x3",
          "logIndex": "0x6e",
          "removed": false
        },
        {
          "address": "0x7b1e49ee1f796f3337add57edde071c49f3ca8a3",
          "topics": [
            "0xc7f505b2f371ae2175ee4913f4499e1f2633a7b5936321eed1cdaeb6115181d2"
          ],
          "data": "0x0000000000000000000000000000000000000000000000000000000000000001",
          "blockHash": "0xb2e66359819eca99590177045dacac3340da07f75ae1a18ce1eb777cad299ef4",
          "blockNumber": "0x122dae83",
          "transactionHash": "0x249a2010b094e020c67a756611eb39669a4c2fede88dcdf9b90e41e6a04d90dc",
          "transactionIndex": "0x3",
          "logIndex": "0x6f",
          "removed": false
        }
      ],
      "logsBloom": "0x00000000000008000000000000000400000000400000000000800000000000000000100080000000000000000000000000000000000000000000000000000000000000000001000000400000001000000001002000000010000000000000000000000000020000000000000080000800000000000000000000100000000000400000000000002400000800000000080000000000000080000002000000000000000000000000000000000000000002000000000000000000000000000000000000400000000000000000000000000000810000000004000000808001000020000000000000000000000000000000000000000000000000200000000000000000",
      "type": "0x2",
      "transactionHash": "0x249a2010b094e020c67a756611eb39669a4c2fede88dcdf9b90e41e6a04d90dc",
      "transactionIndex": "0x3",
      "blockHash": "0xb2e66359819eca99590177045dacac3340da07f75ae1a18ce1eb777cad299ef4",
      "blockNumber": "0x122dae83",
      "gasUsed": "0x1aa824",
      "effectiveGasPrice": "0x989680",
      "from": "0xdafed9a0a40f810fcb5c3dfcd0cb3486036414eb",
      "to": null,
      "contractAddress": "0x7b1e49ee1f796f3337add57edde071c49f3ca8a3",
      "gasUsedForL1": "0x13ee54",
      "l1BlockNumber": "0x14d0238"
    },
    {
      "status": "0x1",
      "cumulativeGasUsed": "0x5d8f6e",
      "logs": [
        {
          "address": "0xe70a75530d8ec487f69451002d7f2f283f098a18",
          "topics": [
            "0x1cf3b03a6cf19fa2baba4df148e9dcabedea7f8a5c07840e207e5c089be95d3e",
            "0x000000000000000000000000462668198f8a8c3a4410a0b45a47f432c77749af"
          ],
          "data": "0x",
          "blockHash": "0x745a857ad1baaaf3d0826a0d8ab0c53c7398522da6ada2f4b62bd97ea5982109",
          "blockNumber": "0x122dae8c",
          "transactionHash": "0x170bb6b5d7366efe8364c1930546617fb6b021480699bcb56fb5ed13c6859c61",
          "transactionIndex": "0x7",
          "logIndex": "0x1e",
          "removed": false
        },
        {
          "address": "0xe70a75530d8ec487f69451002d7f2f283f098a18",
          "topics": [
            "0x8be0079c531659141344cd1fd0a4f28419497f9722a3daafe3b4186f6b6457e0",
            "0x0000000000000000000000000000000000000000000000000000000000000000",
            "0x000000000000000000000000dafed9a0a40f810fcb5c3dfcd0cb3486036414eb"
          ],
          "data": "0x",
          "blockHash": "0x745a857ad1baaaf3d0826a0d8ab0c53c7398522da6ada2f4b62bd97ea5982109",
          "blockNumber": "0x122dae8c",
          "transactionHash": "0x170bb6b5d7366efe8364c1930546617fb6b021480699bcb56fb5ed13c6859c61",
          "transactionIndex": "0x7",
          "logIndex": "0x1f",
          "removed": false
        },
        {
          "address": "0xe70a75530d8ec487f69451002d7f2f283f098a18",
          "topics": [
            "0xfbe5b6cbafb274f445d7fed869dc77a838d8243a22c460de156560e8857cad03",
            "0x000000000000000000000000dafed9a0a40f810fcb5c3dfcd0cb3486036414eb",
            "0x000000000000000000000000bd3f4f622df9690e9202d6c8d7fbdf2763d0b89f"
          ],
          "data": "0x",
          "blockHash": "0x745a857ad1baaaf3d0826a0d8ab0c53c7398522da6ada2f4b62bd97ea5982109",
          "blockNumber": "0x122dae8c",
          "transactionHash": "0x170bb6b5d7366efe8364c1930546617fb6b021480699bcb56fb5ed13c6859c61",
          "transactionIndex": "0x7",
          "logIndex": "0x20",
          "removed": false
        },
        {
          "address": "0xe70a75530d8ec487f69451002d7f2f283f098a18",
          "topics": [
            "0x19982f258a5a6333c515c00cc9c1cff71b8073634dd3514cda97a39c402b3a95",
            "0x000000000000000000000000dafed9a0a40f810fcb5c3dfcd0cb3486036414eb"
          ],
          "data": "0x0000000000000000000000000000000000000000000000003782dace9d9000000000000000000000000000000000000000000000000000001bc16d674ec8000000000000000000000000000000000000000000000000000053444835ec5800000000000000000000000000000000000000000000000000006124fee993bc0000",
          "blockHash": "0x745a857ad1baaaf3d0826a0d8ab0c53c7398522da6ada2f4b62bd97ea5982109",
          "blockNumber": "0x122dae8c",
          "transactionHash": "0x170bb6b5d7366efe8364c1930546617fb6b021480699bcb56fb5ed13c6859c61",
          "transactionIndex": "0x7",
          "logIndex": "0x21",
          "removed": false
        },
        {
          "address": "0xe70a75530d8ec487f69451002d7f2f283f098a18",
          "topics": [
            "0xc7f505b2f371ae2175ee4913f4499e1f2633a7b5936321eed1cdaeb6115181d2"
          ],
          "data": "0x0000000000000000000000000000000000000000000000000000000000000001",
          "blockHash": "0x745a857ad1baaaf3d0826a0d8ab0c53c7398522da6ada2f4b62bd97ea5982109",
          "blockNumber": "0x122dae8c",
          "transactionHash": "0x170bb6b5d7366efe8364c1930546617fb6b021480699bcb56fb5ed13c6859c61",
          "transactionIndex": "0x7",
          "logIndex": "0x22",
          "removed": false
        }
      ],
      "logsBloom": "0x00000000000008000000000000000000000000000000000000800000000000000000000000000000000000080000000000000000000000000000000000000000000000000001000000000000001000000001000000000010000000000000000000000000020000000000200000000800002000000010000000000000000000400000000000800000000800000000080000010000000080000000000000002000012000000000000000010000000000000000000000000000000000000000000000000000000000000080000200000000000000000004000000800000000022000000000000000004400000000000000000000000000000000000000000000000",
      "type": "0x2",
      "transactionHash": "0x170bb6b5d7366efe8364c1930546617fb6b021480699bcb56fb5ed13c6859c61",
      "transactionIndex": "0x7",
      "blockHash": "0x745a857ad1baaaf3d0826a0d8ab0c53c7398522da6ada2f4b62bd97ea5982109",
      "blockNumber": "0x122dae8c",
      "gasUsed": "0x1d4e37",
      "effectiveGasPrice": "0x989680",
      "from": "0xdafed9a0a40f810fcb5c3dfcd0cb3486036414eb",
      "to": null,
      "contractAddress": "0xe70a75530d8ec487f69451002d7f2f283f098a18",
      "gasUsedForL1": "0x14295d",
      "l1BlockNumber": "0x14d0238"
    },
    {
      "status": "0x1",
      "cumulativeGasUsed": "0x430ce",
      "logs": [
        {
          "address": "0xaf88d065e77c8cc2239327c5edb3a432268e5831",
          "topics": [
            "0x8c5be1e5ebec7d5bd14f71427d1e84f3dd0314c0f7b2291e5b200ac8c7c3b925",
            "0x0000000000000000000000007b1e49ee1f796f3337add57edde071c49f3ca8a3",
            "0x000000000000000000000000e70a75530d8ec487f69451002d7f2f283f098a18"
          ],
          "data": "0xffffffffffffffffffffffffffffffffffffffffffffffffffffffffffffffff",
          "blockHash": "0xe43eb6b9688914317ac2d69614eb89c7e4ab0367b7959f92f1564012536e05b7",
          "blockNumber": "0x122dae93",
          "transactionHash": "0xc0ea7f2c7c9350051f0fca886a47198d20501151be6f66bea0f67cb262d64b7c",
          "transactionIndex": "0x1",
          "logIndex": "0x0",
          "removed": false
        },
        {
          "address": "0x7b1e49ee1f796f3337add57edde071c49f3ca8a3",
          "topics": [
            "0xe4cec16b1a7e6b7979e923da619a8b1e5fd0f0fb6e5c1cf647f350430ee61ca9"
          ],
          "data": "0x000000000000000000000000dafed9a0a40f810fcb5c3dfcd0cb3486036414eb000000000000000000000000e70a75530d8ec487f69451002d7f2f283f098a18",
          "blockHash": "0xe43eb6b9688914317ac2d69614eb89c7e4ab0367b7959f92f1564012536e05b7",
          "blockNumber": "0x122dae93",
          "transactionHash": "0xc0ea7f2c7c9350051f0fca886a47198d20501151be6f66bea0f67cb262d64b7c",
          "transactionIndex": "0x1",
          "logIndex": "0x1",
          "removed": false
        }
      ],
      "logsBloom": "0x00000000000000000000000000000000000000800000000000000000000000000000000000000000000000000000000000000001000000000000000000200000000000000000000000000000000000002000000000000000000000000000000008000000000000000000000080000000000000000000000000000000000000000000000000000000000000000000000000840000000000000100000000000000020000000000000000000000000002000000000000000000002000000000000000002000000000000000000000000000010000000000000000000000000000000010000000000000000000000001200000000000000000000000002000000000",
      "type": "0x2",
      "transactionHash": "0xc0ea7f2c7c9350051f0fca886a47198d20501151be6f66bea0f67cb262d64b7c",
      "transactionIndex": "0x1",
      "blockHash": "0xe43eb6b9688914317ac2d69614eb89c7e4ab0367b7959f92f1564012536e05b7",
      "blockNumber": "0x122dae93",
      "gasUsed": "0x430ce",
      "effectiveGasPrice": "0x989680",
      "from": "0xdafed9a0a40f810fcb5c3dfcd0cb3486036414eb",
      "to": "0x7b1e49ee1f796f3337add57edde071c49f3ca8a3",
      "contractAddress": null,
      "gasUsedForL1": "0x27885",
      "l1BlockNumber": "0x14d0238"
    },
    {
      "status": "0x1",
      "cumulativeGasUsed": "0x6583af",
      "logs": [
        {
          "address": "0x369df603b4fb77632c38aadc0dfe5c06cc0f2b9d",
          "topics": [
            "0x1cf3b03a6cf19fa2baba4df148e9dcabedea7f8a5c07840e207e5c089be95d3e",
            "0x0000000000000000000000007b7951a10086cf1d07a70796d00f5992eb7b4b42"
          ],
          "data": "0x",
          "blockHash": "0x6f509217071193ef6c23aee608fba5e443e9cbc745b67b5a1e9d3ff8ff8ddc63",
          "blockNumber": "0x122dae9b",
          "transactionHash": "0xce35ce2c5ef47613a37cd6fc8897da6e04b3ba8197c31602462be50affb2044f",
          "transactionIndex": "0x10",
          "logIndex": "0x10",
          "removed": false
        },
        {
          "address": "0x369df603b4fb77632c38aadc0dfe5c06cc0f2b9d",
          "topics": [
            "0x8be0079c531659141344cd1fd0a4f28419497f9722a3daafe3b4186f6b6457e0",
            "0x0000000000000000000000000000000000000000000000000000000000000000",
            "0x000000000000000000000000dafed9a0a40f810fcb5c3dfcd0cb3486036414eb"
          ],
          "data": "0x",
          "blockHash": "0x6f509217071193ef6c23aee608fba5e443e9cbc745b67b5a1e9d3ff8ff8ddc63",
          "blockNumber": "0x122dae9b",
          "transactionHash": "0xce35ce2c5ef47613a37cd6fc8897da6e04b3ba8197c31602462be50affb2044f",
          "transactionIndex": "0x10",
          "logIndex": "0x11",
          "removed": false
        },
        {
          "address": "0x369df603b4fb77632c38aadc0dfe5c06cc0f2b9d",
          "topics": [
            "0x7e46180308b7253f713d86c518a36c6665fd9281ac7e2da76ca79707b60c88ed",
            "0x000000000000000000000000dafed9a0a40f810fcb5c3dfcd0cb3486036414eb",
            "0x00000000000000000000000000000000000000000000000000000000000f4240"
          ],
          "data": "0x",
          "blockHash": "0x6f509217071193ef6c23aee608fba5e443e9cbc745b67b5a1e9d3ff8ff8ddc63",
          "blockNumber": "0x122dae9b",
          "transactionHash": "0xce35ce2c5ef47613a37cd6fc8897da6e04b3ba8197c31602462be50affb2044f",
          "transactionIndex": "0x10",
          "logIndex": "0x12",
          "removed": false
        },
        {
          "address": "0x369df603b4fb77632c38aadc0dfe5c06cc0f2b9d",
          "topics": [
            "0xc5665bcad16bc7b18abbd8f5a8d73489e8e00560e6c6ee2e360c13456ea2c319",
            "0x000000000000000000000000dafed9a0a40f810fcb5c3dfcd0cb3486036414eb",
            "0x00000000000000000000000000000000000000000000000000000000000c3500"
          ],
          "data": "0x",
          "blockHash": "0x6f509217071193ef6c23aee608fba5e443e9cbc745b67b5a1e9d3ff8ff8ddc63",
          "blockNumber": "0x122dae9b",
          "transactionHash": "0xce35ce2c5ef47613a37cd6fc8897da6e04b3ba8197c31602462be50affb2044f",
          "transactionIndex": "0x10",
          "logIndex": "0x13",
          "removed": false
        },
        {
          "address": "0x369df603b4fb77632c38aadc0dfe5c06cc0f2b9d",
          "topics": [
            "0x2ab073a66aebb22270fcfc8f70049be3fc0bacca75c6087ec625f7aa721146ed",
            "0x000000000000000000000000dafed9a0a40f810fcb5c3dfcd0cb3486036414eb",
            "0x00000000000000000000000000000000000000000000000000000000000f4240"
          ],
          "data": "0x",
          "blockHash": "0x6f509217071193ef6c23aee608fba5e443e9cbc745b67b5a1e9d3ff8ff8ddc63",
          "blockNumber": "0x122dae9b",
          "transactionHash": "0xce35ce2c5ef47613a37cd6fc8897da6e04b3ba8197c31602462be50affb2044f",
          "transactionIndex": "0x10",
          "logIndex": "0x14",
          "removed": false
        },
        {
          "address": "0x369df603b4fb77632c38aadc0dfe5c06cc0f2b9d",
          "topics": [
            "0x0c61586c8767585830fccae17ae0d87bd9884902ed6071e169f4cf581be838e0",
            "0x000000000000000000000000dafed9a0a40f810fcb5c3dfcd0cb3486036414eb",
            "0x00000000000000000000000000000000000000000000000000000000000c3500"
          ],
          "data": "0x",
          "blockHash": "0x6f509217071193ef6c23aee608fba5e443e9cbc745b67b5a1e9d3ff8ff8ddc63",
          "blockNumber": "0x122dae9b",
          "transactionHash": "0xce35ce2c5ef47613a37cd6fc8897da6e04b3ba8197c31602462be50affb2044f",
          "transactionIndex": "0x10",
          "logIndex": "0x15",
          "removed": false
        },
        {
          "address": "0x369df603b4fb77632c38aadc0dfe5c06cc0f2b9d",
          "topics": [
            "0x4be73a2bab3c10f7049cbd6605125ca386660f1566dfff8a29be1b9fe8ec7e7b",
            "0x000000000000000000000000dafed9a0a40f810fcb5c3dfcd0cb3486036414eb",
            "0x0000000000000000000000002bb34d36cc88c77f8057b4df1c14434bfa117673"
          ],
          "data": "0x",
          "blockHash": "0x6f509217071193ef6c23aee608fba5e443e9cbc745b67b5a1e9d3ff8ff8ddc63",
          "blockNumber": "0x122dae9b",
          "transactionHash": "0xce35ce2c5ef47613a37cd6fc8897da6e04b3ba8197c31602462be50affb2044f",
          "transactionIndex": "0x10",
          "logIndex": "0x16",
          "removed": false
        },
        {
          "address": "0xaf88d065e77c8cc2239327c5edb3a432268e5831",
          "topics": [
            "0x8c5be1e5ebec7d5bd14f71427d1e84f3dd0314c0f7b2291e5b200ac8c7c3b925",
            "0x000000000000000000000000369df603b4fb77632c38aadc0dfe5c06cc0f2b9d",
            "0x000000000000000000000000e70a75530d8ec487f69451002d7f2f283f098a18"
          ],
          "data": "0xffffffffffffffffffffffffffffffffffffffffffffffffffffffffffffffff",
          "blockHash": "0x6f509217071193ef6c23aee608fba5e443e9cbc745b67b5a1e9d3ff8ff8ddc63",
          "blockNumber": "0x122dae9b",
          "transactionHash": "0xce35ce2c5ef47613a37cd6fc8897da6e04b3ba8197c31602462be50affb2044f",
          "transactionIndex": "0x10",
          "logIndex": "0x17",
          "removed": false
        },
        {
          "address": "0x369df603b4fb77632c38aadc0dfe5c06cc0f2b9d",
          "topics": [
            "0xc7f505b2f371ae2175ee4913f4499e1f2633a7b5936321eed1cdaeb6115181d2"
          ],
          "data": "0x0000000000000000000000000000000000000000000000000000000000000001",
          "blockHash": "0x6f509217071193ef6c23aee608fba5e443e9cbc745b67b5a1e9d3ff8ff8ddc63",
          "blockNumber": "0x122dae9b",
          "transactionHash": "0xce35ce2c5ef47613a37cd6fc8897da6e04b3ba8197c31602462be50affb2044f",
          "transactionIndex": "0x10",
          "logIndex": "0x18",
          "removed": false
        }
      ],
      "logsBloom": "0x00000000200008000000000000000000000000000000000000800000000000000000008000000000000000000000000000001001000000000000000000200000001000000001000000000120001014002001000000040010000000000000100000400000020000000000000000000800000402000000000400000000000000400000000000001000000a08004010090000000000000080000180000000000000020000000000000000000000000000000000000000000000000000000000004000002000100000000000820000000002000800010004000000800000000020000010800020000000080000000000200000000000000000000000202000000000",
      "type": "0x2",
      "transactionHash": "0xce35ce2c5ef47613a37cd6fc8897da6e04b3ba8197c31602462be50affb2044f",
      "transactionIndex": "0x10",
      "blockHash": "0x6f509217071193ef6c23aee608fba5e443e9cbc745b67b5a1e9d3ff8ff8ddc63",
      "blockNumber": "0x122dae9b",
      "gasUsed": "0x19f9b7",
      "effectiveGasPrice": "0x989680",
      "from": "0xdafed9a0a40f810fcb5c3dfcd0cb3486036414eb",
      "to": null,
      "contractAddress": "0x369df603b4fb77632c38aadc0dfe5c06cc0f2b9d",
      "gasUsedForL1": "0x1298c5",
      "l1BlockNumber": "0x14d0238"
    },
    {
      "status": "0x1",
      "cumulativeGasUsed": "0xe23bd",
      "logs": [
        {
          "address": "0xe70a75530d8ec487f69451002d7f2f283f098a18",
          "topics": [
            "0xd95be3f58e228f591dc02325de1e49194cbc10cd10b209cb74ec68c4d0f5fec2",
            "0x000000000000000000000000dafed9a0a40f810fcb5c3dfcd0cb3486036414eb",
            "0x000000000000000000000000369df603b4fb77632c38aadc0dfe5c06cc0f2b9d"
          ],
          "data": "0x",
          "blockHash": "0x14fe7193ac7e0369d0f036b234758bb9128687f23c3e2aec9cfcfd6a2a46846e",
          "blockNumber": "0x122daea2",
          "transactionHash": "0x336f764155e9ae98c4cee297f425a8e452b4423dc9f2dbff51d9bb48031411f3",
          "transactionIndex": "0x2",
          "logIndex": "0x6",
          "removed": false
        }
      ],
      "logsBloom": "0x00000000000008000000000000000000000000000000000004000000000000000000000000000000000000080000000000000000000000000000000000000000000000000001000000000000000004000000000000000010000000000020000000000000000000000000000000000000000000000000000000000000000000000000000000000000000208000000000000000000000000000000000000000000002000000000000000000000000000000000000000000000000000000000000000000000000000000000000200000000400000000000000000000000000000000000000000000000000000000000000000000000000000000000000000000000",
      "type": "0x2",
      "transactionHash": "0x336f764155e9ae98c4cee297f425a8e452b4423dc9f2dbff51d9bb48031411f3",
      "transactionIndex": "0x2",
      "blockHash": "0x14fe7193ac7e0369d0f036b234758bb9128687f23c3e2aec9cfcfd6a2a46846e",
      "blockNumber": "0x122daea2",
      "gasUsed": "0x3a87c",
      "effectiveGasPrice": "0x989680",
      "from": "0xdafed9a0a40f810fcb5c3dfcd0cb3486036414eb",
      "to": "0xe70a75530d8ec487f69451002d7f2f283f098a18",
      "contractAddress": null,
      "gasUsedForL1": "0x27885",
      "l1BlockNumber": "0x14d0238"
    },
    {
      "status": "0x1",
      "cumulativeGasUsed": "0x39099d",
      "logs": [
        {
          "address": "0x7fb4322b7f4fce92fbe344956386e9a0eb67e776",
          "topics": [
            "0x1cf3b03a6cf19fa2baba4df148e9dcabedea7f8a5c07840e207e5c089be95d3e",
            "0x0000000000000000000000008656c2b6adf31812b3c37bac58adc8917c83d8f8"
          ],
          "data": "0x",
          "blockHash": "0x09637347470f3c4d3bdaf19df0a8f88aeb04110c2d37f530e144cda405fd3b1e",
          "blockNumber": "0x122daeaa",
          "transactionHash": "0xc8ca58c06eceb4aacb72ed136208a0a257eab8085591bc88cf52fdea91fc2741",
          "transactionIndex": "0x6",
          "logIndex": "0x11",
          "removed": false
        },
        {
          "address": "0x7fb4322b7f4fce92fbe344956386e9a0eb67e776",
          "topics": [
            "0x8be0079c531659141344cd1fd0a4f28419497f9722a3daafe3b4186f6b6457e0",
            "0x0000000000000000000000000000000000000000000000000000000000000000",
            "0x000000000000000000000000dafed9a0a40f810fcb5c3dfcd0cb3486036414eb"
          ],
          "data": "0x",
          "blockHash": "0x09637347470f3c4d3bdaf19df0a8f88aeb04110c2d37f530e144cda405fd3b1e",
          "blockNumber": "0x122daeaa",
          "transactionHash": "0xc8ca58c06eceb4aacb72ed136208a0a257eab8085591bc88cf52fdea91fc2741",
          "transactionIndex": "0x6",
          "logIndex": "0x12",
          "removed": false
        },
        {
          "address": "0x7fb4322b7f4fce92fbe344956386e9a0eb67e776",
          "topics": [
            "0xee7760cb405d3beb1072ae2e716857daa45a5dd52bc1383a21173199d32c7dee",
            "0x000000000000000000000000dafed9a0a40f810fcb5c3dfcd0cb3486036414eb",
            "0x0000000000000000000000000473174da33598aad43357644bfdf79f9d3167ba"
          ],
          "data": "0x",
          "blockHash": "0x09637347470f3c4d3bdaf19df0a8f88aeb04110c2d37f530e144cda405fd3b1e",
          "blockNumber": "0x122daeaa",
          "transactionHash": "0xc8ca58c06eceb4aacb72ed136208a0a257eab8085591bc88cf52fdea91fc2741",
          "transactionIndex": "0x6",
          "logIndex": "0x13",
          "removed": false
        },
        {
          "address": "0xaf88d065e77c8cc2239327c5edb3a432268e5831",
          "topics": [
            "0x8c5be1e5ebec7d5bd14f71427d1e84f3dd0314c0f7b2291e5b200ac8c7c3b925",
            "0x0000000000000000000000007fb4322b7f4fce92fbe344956386e9a0eb67e776",
            "0x000000000000000000000000e70a75530d8ec487f69451002d7f2f283f098a18"
          ],
          "data": "0xffffffffffffffffffffffffffffffffffffffffffffffffffffffffffffffff",
          "blockHash": "0x09637347470f3c4d3bdaf19df0a8f88aeb04110c2d37f530e144cda405fd3b1e",
          "blockNumber": "0x122daeaa",
          "transactionHash": "0xc8ca58c06eceb4aacb72ed136208a0a257eab8085591bc88cf52fdea91fc2741",
          "transactionIndex": "0x6",
          "logIndex": "0x14",
          "removed": false
        },
        {
          "address": "0x7fb4322b7f4fce92fbe344956386e9a0eb67e776",
          "topics": [
            "0xc7f505b2f371ae2175ee4913f4499e1f2633a7b5936321eed1cdaeb6115181d2"
          ],
          "data": "0x0000000000000000000000000000000000000000000000000000000000000001",
          "blockHash": "0x09637347470f3c4d3bdaf19df0a8f88aeb04110c2d37f530e144cda405fd3b1e",
          "blockNumber": "0x122daeaa",
          "transactionHash": "0xc8ca58c06eceb4aacb72ed136208a0a257eab8085591bc88cf52fdea91fc2741",
          "transactionIndex": "0x6",
          "logIndex": "0x15",
          "removed": false
        }
      ],
      "logsBloom": "0x00000000000008000002000000000000000000040000000000800000000000000000000000000000000000000000000000400001000000000000000000202000000000000003000000000000001000002001000000000010000000000000000000000000022000000000000000000800000000000000000000000800800000400002000000800000000800000000080000000000000080000108000000000000020000000000200000000000000000000000000000000000000000000000000000002000000000000000000000000000000000000004000000800100000020000010000000000000000002000000200000000000000000000000002000000000",
      "type": "0x2",
      "transactionHash": "0xc8ca58c06eceb4aacb72ed136208a0a257eab8085591bc88cf52fdea91fc2741",
      "transactionIndex": "0x6",
      "blockHash": "0x09637347470f3c4d3bdaf19df0a8f88aeb04110c2d37f530e144cda405fd3b1e",
      "blockNumber": "0x122daeaa",
      "gasUsed": "0x191059",
      "effectiveGasPrice": "0x989680",
      "from": "0xdafed9a0a40f810fcb5c3dfcd0cb3486036414eb",
      "to": null,
      "contractAddress": "0x7fb4322b7f4fce92fbe344956386e9a0eb67e776",
      "gasUsedForL1": "0x12e074",
      "l1BlockNumber": "0x14d0238"
    },
    {
      "status": "0x1",
      "cumulativeGasUsed": "0x1ebfdb",
      "logs": [
        {
          "address": "0xe70a75530d8ec487f69451002d7f2f283f098a18",
          "topics": [
            "0x0813bc74dde0091f04cdeeaae076c8731bd585a408ed95332319b650cfa48be8",
            "0x000000000000000000000000dafed9a0a40f810fcb5c3dfcd0cb3486036414eb",
            "0x0000000000000000000000007fb4322b7f4fce92fbe344956386e9a0eb67e776"
          ],
          "data": "0x",
          "blockHash": "0x2f2ab7f6ea95da6901154736f07a0db8551b48796c8c4521d2bfe9163053946a",
          "blockNumber": "0x122daeb0",
          "transactionHash": "0xa0d432cd45e1ce9404aef6879a7926fd8a34e7e08cbe2aeb630312caf6fdfd3b",
          "transactionIndex": "0x6",
          "logIndex": "0x14",
          "removed": false
        }
      ],
      "logsBloom": "0x00000000000008000002000000000000000000000000000000000000000000000000000000000000000000080000000000000000000000000000000000000000000000000003000000000000000000000000000000000030000000000000000000000000000000000000000000000000000000000000000000000000000000000000000000000000000000000000000000040000000000000000000000000000002000000000000000000000000000000000000000004000000000000000000000000000000000000000000200000000000000000000000000000100000000000000000000000000000000000000000000000000000000000000000000000000",
      "type": "0x2",
      "transactionHash": "0xa0d432cd45e1ce9404aef6879a7926fd8a34e7e08cbe2aeb630312caf6fdfd3b",
      "transactionIndex": "0x6",
      "blockHash": "0x2f2ab7f6ea95da6901154736f07a0db8551b48796c8c4521d2bfe9163053946a",
      "blockNumber": "0x122daeb0",
      "gasUsed": "0x38fd0",
      "effectiveGasPrice": "0x989680",
      "from": "0xdafed9a0a40f810fcb5c3dfcd0cb3486036414eb",
      "to": "0xe70a75530d8ec487f69451002d7f2f283f098a18",
      "contractAddress": null,
      "gasUsedForL1": "0x27885",
      "l1BlockNumber": "0x14d0238"
    }
  ],
  "libraries": [],
  "pending": [],
  "returns": {},
  "timestamp": 1739286384,
  "chain": 42161,
  "commit": "aedfac0"
}