{
  "transactions": [
    {
      "hash": "0x669cf2ddc1f85124ab36b801257d827c3830a41e6d0496c627f8aa027ddad082",
      "transactionType": "CALL",
      "contractName": null,
      "contractAddress": "0x369df603b4fb77632c38aadc0dfe5c06cc0f2b9d",
      "function": "setSwapper(bytes32)",
      "arguments": [
        "0x000000000000000000000000ff39c5eeeeff8e119e26065c4b5df15416a1b61f"
      ],
      "transaction": {
        "from": "0xdafed9a0a40f810fcb5c3dfcd0cb3486036414eb",
        "to": "0x369df603b4fb77632c38aadc0dfe5c06cc0f2b9d",
        "gas": "0xaf1ba",
        "value": "0x0",
        "input": "0x4ac453d7000000000000000000000000ff39c5eeeeff8e119e26065c4b5df15416a1b61f",
        "nonce": "0x18e",
        "chainId": "0xa4b1"
      },
      "additionalContracts": [],
      "isFixedGasLimit": false
    }
  ],
  "receipts": [
    {
      "status": "0x1",
      "cumulativeGasUsed": "0x366160",
      "logs": [
        {
          "address": "0x369df603b4fb77632c38aadc0dfe5c06cc0f2b9d",
          "topics": [
            "0x078f76cd71441bafe26bc5339bd180e09c64d06601b717fec01f85db47da5e99",
            "0x000000000000000000000000dafed9a0a40f810fcb5c3dfcd0cb3486036414eb",
            "0x000000000000000000000000ff39c5eeeeff8e119e26065c4b5df15416a1b61f"
          ],
          "data": "0x",
          "blockHash": "0x57d052a9eb9a0ae6efd7456d003430e2db519d450794e86faf7336d7133cddc2",
          "blockNumber": "0x122dbb81",
          "transactionHash": "0x669cf2ddc1f85124ab36b801257d827c3830a41e6d0496c627f8aa027ddad082",
          "transactionIndex": "0x3",
          "logIndex": "0xd",
          "removed": false
        }
      ],
      "logsBloom": "0x00000000040008000000000000000000000000000000000000000000000000020000000000000000000000000000000000000000000000000000000000000000001000000001000000000000000000000000000000000010000000000000000000000800002000000000000000000000000000000000000000000000000000000000000000000000000000004000000000000000000000000000000000000002000000000000000000000000000000000000000000000010000000000000004000000000000000000000000000000000000000000000000000000000000000000000000000000000000000000000000000000000000000000000000000000000",
      "type": "0x2",
      "transactionHash": "0x669cf2ddc1f85124ab36b801257d827c3830a41e6d0496c627f8aa027ddad082",
      "transactionIndex": "0x3",
      "blockHash": "0x57d052a9eb9a0ae6efd7456d003430e2db519d450794e86faf7336d7133cddc2",
      "blockNumber": "0x122dbb81",
      "gasUsed": "0x6436e",
      "effectiveGasPrice": "0xa008c0",
      "from": "0xdafed9a0a40f810fcb5c3dfcd0cb3486036414eb",
      "to": "0x369df603b4fb77632c38aadc0dfe5c06cc0f2b9d",
      "contractAddress": null,
      "gasUsedForL1": "0x56a4f",
      "l1BlockNumber": "0x14d027c"
    }
  ],
  "libraries": [],
  "pending": [],
  "returns": {},
  "timestamp": 1739287203,
  "chain": 42161,
  "commit": "aedfac0"
}