{
  "transactions": [
    {
      "hash": "0x0a562782bc721e410f570a2d3385ae824282e4697a06c97cf3843820f17a7f8b",
      "transactionType": "CALL",
      "contractName": null,
      "contractAddress": "0x6bb03c85599f99f0542693c171cec7944e0ac563",
      "function": "setPriceFeeds(address[],address[])",
      "arguments": [
        "[0x9A7FB1b3950837a8D9b40517626E11D4127C098C]",
        "[0x9A7FB1b3950837a8D9b40517626E11D4127C098C]"
      ],
      "transaction": {
        "from": "0xdafed9a0a40f810fcb5c3dfcd0cb3486036414eb",
        "to": "0x6bb03c85599f99f0542693c171cec7944e0ac563",
        "gas": "0x1f679",
        "value": "0x0",
        "input": "0x92aeb53a0000000000000000000000000000000000000000000000000000000000000040000000000000000000000000000000000000000000000000000000000000008000000000000000000000000000000000000000000000000000000000000000010000000000000000000000009a7fb1b3950837a8d9b40517626e11d4127c098c00000000000000000000000000000000000000000000000000000000000000010000000000000000000000009a7fb1b3950837a8d9b40517626e11d4127c098c",
        "nonce": "0x16b",
        "chainId": "0xa4b1"
      },
      "additionalContracts": [],
      "isFixedGasLimit": false
    },
    {
      "hash": "0xf6473dec4358171d5a5b90cfed06f20ef5c1bd64e633cca4961b131db5074452",
      "transactionType": "CALL",
      "contractName": null,
      "contractAddress": "0x6bb03c85599f99f0542693c171cec7944e0ac563",
      "function": "setHeartbeats(address[],uint256[])",
      "arguments": [
        "[0x9A7FB1b3950837a8D9b40517626E11D4127C098C]",
        "[86400]"
      ],
      "transaction": {
        "from": "0xdafed9a0a40f810fcb5c3dfcd0cb3486036414eb",
        "to": "0x6bb03c85599f99f0542693c171cec7944e0ac563",
        "gas": "0x1f8b3",
        "value": "0x0",
        "input": "0x98319bd10000000000000000000000000000000000000000000000000000000000000040000000000000000000000000000000000000000000000000000000000000008000000000000000000000000000000000000000000000000000000000000000010000000000000000000000009a7fb1b3950837a8d9b40517626e11d4127c098c00000000000000000000000000000000000000000000000000000000000000010000000000000000000000000000000000000000000000000000000000015180",
        "nonce": "0x16c",
        "chainId": "0xa4b1"
      },
      "additionalContracts": [],
      "isFixedGasLimit": false
    },
    {
      "hash": "0xcd482becdcb1789f38757c7d6bf212368d85155e0b146316f9da5c7f8f4ccf6f",
      "transactionType": "CREATE",
      "contractName": "BeaconProxy",
      "contractAddress": "0xa4885f18cb744ac5e48bc8932fe4829b0022df84",
      "function": null,
      "arguments": [
        "0x19E6Dc367b4DbCa5ee38de32DB6C74b731ed755E",
        "0xcb706309000000000000000000000000dafed9a0a40f810fcb5c3dfcd0cb3486036414eb000000000000000000000000af88d065e77c8cc2239327c5edb3a432268e583100000000000000000000000000000000000000000000000000000000000000000000000000000000000000000000000000000000000000000011c37937e080000000000000000000000000000000000000000000000000000011c37937e0800000000000000000000000000000000000000000000000000000000000000000e00000000000000000000000000000000000000000000000000000000000000140000000000000000000000000000000000000000000000000000000000000002d4c6f6761726974686d20426173697320555344432d444f47452048797065726c69717569642028416c706861290000000000000000000000000000000000000000000000000000000000000000000000000000000000000000000000000000146c6f672d622d757364632d646f67652d686c2d61000000000000000000000000"
      ],
      "transaction": {
        "from": "0xdafed9a0a40f810fcb5c3dfcd0cb3486036414eb",
        "gas": "0xcd648",
        "value": "0x0",
        "input": "0x60a080604052610491803803809161001782856102a9565b833981016040828203126101eb5761002e826102e0565b602083015190926001600160401b0382116101eb570181601f820112156101eb5780519061005b826102f4565b9261006960405194856102a9565b828452602083830101116101eb575f5b82811061029457505060205f9183010152813b15610273577fa3f0ad74e5423aebfd80d3ef4346578335a9a72aeaee59ff6cb3582b35133d5080546001600160a01b0319166001600160a01b038416908117909155604051635c60da1b60e01b8152909190602081600481865afa9081156101f7575f91610239575b50803b156102195750817f1cf3b03a6cf19fa2baba4df148e9dcabedea7f8a5c07840e207e5c089be95d3e5f80a280511561020257602060049260405193848092635c60da1b60e01b82525afa9182156101f7575f926101b2575b50905f8083602061018e95519101845af43d156101aa573d91610172836102f4565b9261018060405194856102a9565b83523d5f602085013e61030f565b505b608052604051610123908161036e82396080518160180152f35b60609161030f565b91506020823d6020116101ef575b816101cd602093836102a9565b810103126101eb575f806101e361018e946102e0565b935050610150565b5f80fd5b3d91506101c0565b6040513d5f823e3d90fd5b505034156101905763b398979f60e01b5f5260045ffd5b634c9c8ce360e01b5f9081526001600160a01b0391909116600452602490fd5b90506020813d60201161026b575b81610254602093836102a9565b810103126101eb57610265906102e0565b5f6100f5565b3d9150610247565b50631933b43b60e21b5f9081526001600160a01b0391909116600452602490fd5b80602080928401015182828701015201610079565b601f909101601f19168101906001600160401b038211908210176102cc57604052565b634e487b7160e01b5f52604160045260245ffd5b51906001600160a01b03821682036101eb57565b6001600160401b0381116102cc57601f01601f191660200190565b90610333575080511561032457805190602001fd5b630a12f52160e11b5f5260045ffd5b81511580610364575b610344575090565b639996b31560e01b5f9081526001600160a01b0391909116600452602490fd5b50803b1561033c56fe60806040819052635c60da1b60e01b81526020906004817f00000000000000000000000000000000000000000000000000000000000000006001600160a01b03165afa801560a2575f901560d1575060203d602011609c575b601f19601f820116608001906080821067ffffffffffffffff83111760885760849160405260800160ad565b60d1565b634e487b7160e01b5f52604160045260245ffd5b503d6058565b6040513d5f823e3d90fd5b602090607f19011260cd576080516001600160a01b038116810360cd5790565b5f80fd5b5f8091368280378136915af43d5f803e1560e9573d5ff35b3d5ffdfea264697066735822122007093cdf920fcab71bd63b1088382f067ee9907b794386da93b88aa8e955b16864736f6c634300081c003300000000000000000000000019e6dc367b4dbca5ee38de32db6c74b731ed755e00000000000000000000000000000000000000000000000000000000000000400000000000000000000000000000000000000000000000000000000000000184cb706309000000000000000000000000dafed9a0a40f810fcb5c3dfcd0cb3486036414eb000000000000000000000000af88d065e77c8cc2239327c5edb3a432268e583100000000000000000000000000000000000000000000000000000000000000000000000000000000000000000000000000000000000000000011c37937e080000000000000000000000000000000000000000000000000000011c37937e0800000000000000000000000000000000000000000000000000000000000000000e00000000000000000000000000000000000000000000000000000000000000140000000000000000000000000000000000000000000000000000000000000002d4c6f6761726974686d20426173697320555344432d444f47452048797065726c69717569642028416c706861290000000000000000000000000000000000000000000000000000000000000000000000000000000000000000000000000000146c6f672d622d757364632d646f67652d686c2d6100000000000000000000000000000000000000000000000000000000000000000000000000000000",
        "nonce": "0x16d",
        "chainId": "0xa4b1"
      },
      "additionalContracts": [],
      "isFixedGasLimit": false
    },
    {
      "hash": "0xf7b126251dc0a0efc77828885631acd7ed3ce17dbfa5cd12dce149929aba8355",
      "transactionType": "CREATE",
      "contractName": "BeaconProxy",
      "contractAddress": "0x7f4335c1adaf30567fb3cc03fab9a3e865a97e0a",
      "function": null,
      "arguments": [
        "0x462668198F8a8c3A4410A0b45a47f432C77749aF",
        "0x6322b513000000000000000000000000c1a8f7419c2680f4ba2a730d5a5d7abfdcc1efda0000000000000000000000009a7fb1b3950837a8d9b40517626e11d4127c098c000000000000000000000000a4885f18cb744ac5e48bc8932fe4829b0022df840000000000000000000000006bb03c85599f99f0542693c171cec7944e0ac563000000000000000000000000c3acb9df13095e7a27919d78ad8323cf7717bb1600000000000000000000000000000000000000000000000053444835ec5800000000000000000000000000000000000000000000000000001bc16d674ec80000000000000000000000000000000000000000000000000000a688906bd8b00000000000000000000000000000000000000000000000000000f9ccd8a1c5080000"
      ],
      "transaction": {
        "from": "0xdafed9a0a40f810fcb5c3dfcd0cb3486036414eb",
        "gas": "0xa8da0",
        "value": "0x0",
        "input": "0x60a080604052610491803803809161001782856102a9565b833981016040828203126101eb5761002e826102e0565b602083015190926001600160401b0382116101eb570181601f820112156101eb5780519061005b826102f4565b9261006960405194856102a9565b828452602083830101116101eb575f5b82811061029457505060205f9183010152813b15610273577fa3f0ad74e5423aebfd80d3ef4346578335a9a72aeaee59ff6cb3582b35133d5080546001600160a01b0319166001600160a01b038416908117909155604051635c60da1b60e01b8152909190602081600481865afa9081156101f7575f91610239575b50803b156102195750817f1cf3b03a6cf19fa2baba4df148e9dcabedea7f8a5c07840e207e5c089be95d3e5f80a280511561020257602060049260405193848092635c60da1b60e01b82525afa9182156101f7575f926101b2575b50905f8083602061018e95519101845af43d156101aa573d91610172836102f4565b9261018060405194856102a9565b83523d5f602085013e61030f565b505b608052604051610123908161036e82396080518160180152f35b60609161030f565b91506020823d6020116101ef575b816101cd602093836102a9565b810103126101eb575f806101e361018e946102e0565b935050610150565b5f80fd5b3d91506101c0565b6040513d5f823e3d90fd5b505034156101905763b398979f60e01b5f5260045ffd5b634c9c8ce360e01b5f9081526001600160a01b0391909116600452602490fd5b90506020813d60201161026b575b81610254602093836102a9565b810103126101eb57610265906102e0565b5f6100f5565b3d9150610247565b50631933b43b60e21b5f9081526001600160a01b0391909116600452602490fd5b80602080928401015182828701015201610079565b601f909101601f19168101906001600160401b038211908210176102cc57604052565b634e487b7160e01b5f52604160045260245ffd5b51906001600160a01b03821682036101eb57565b6001600160401b0381116102cc57601f01601f191660200190565b90610333575080511561032457805190602001fd5b630a12f52160e11b5f5260045ffd5b81511580610364575b610344575090565b639996b31560e01b5f9081526001600160a01b0391909116600452602490fd5b50803b1561033c56fe60806040819052635c60da1b60e01b81526020906004817f00000000000000000000000000000000000000000000000000000000000000006001600160a01b03165afa801560a2575f901560d1575060203d602011609c575b601f19601f820116608001906080821067ffffffffffffffff83111760885760849160405260800160ad565b60d1565b634e487b7160e01b5f52604160045260245ffd5b503d6058565b6040513d5f823e3d90fd5b602090607f19011260cd576080516001600160a01b038116810360cd5790565b5f80fd5b5f8091368280378136915af43d5f803e1560e9573d5ff35b3d5ffdfea264697066735822122007093cdf920fcab71bd63b1088382f067ee9907b794386da93b88aa8e955b16864736f6c634300081c0033000000000000000000000000462668198f8a8c3a4410a0b45a47f432c77749af000000000000000000000000000000000000000000000000000000000000004000000000000000000000000000000000000000000000000000000000000001246322b513000000000000000000000000c1a8f7419c2680f4ba2a730d5a5d7abfdcc1efda0000000000000000000000009a7fb1b3950837a8d9b40517626e11d4127c098c000000000000000000000000a4885f18cb744ac5e48bc8932fe4829b0022df840000000000000000000000006bb03c85599f99f0542693c171cec7944e0ac563000000000000000000000000c3acb9df13095e7a27919d78ad8323cf7717bb1600000000000000000000000000000000000000000000000053444835ec5800000000000000000000000000000000000000000000000000001bc16d674ec80000000000000000000000000000000000000000000000000000a688906bd8b00000000000000000000000000000000000000000000000000000f9ccd8a1c508000000000000000000000000000000000000000000000000000000000000",
        "nonce": "0x16e",
        "chainId": "0xa4b1"
      },
      "additionalContracts": [],
      "isFixedGasLimit": false
    },
    {
      "hash": "0x870d33a6bfae0e045f75f3ba9c4175376d7643a29eb373097e88137e5fbd5dba",
      "transactionType": "CALL",
      "contractName": "BeaconProxy",
      "contractAddress": "0xa4885f18cb744ac5e48bc8932fe4829b0022df84",
      "function": null,
      "arguments": null,
      "transaction": {
        "from": "0xdafed9a0a40f810fcb5c3dfcd0cb3486036414eb",
        "to": "0xa4885f18cb744ac5e48bc8932fe4829b0022df84",
        "gas": "0xfccb",
        "value": "0x0",
        "input": "0x33a100ca0000000000000000000000007f4335c1adaf30567fb3cc03fab9a3e865a97e0a",
        "nonce": "0x16f",
        "chainId": "0xa4b1"
      },
      "additionalContracts": [],
      "isFixedGasLimit": false
    },
    {
      "hash": "0x6089ca232712b123df5c97881a94101b056b597c245bb0e8785b974dd17c27ef",
      "transactionType": "CREATE",
      "contractName": "BeaconProxy",
      "contractAddress": "0xe6317bb95fc9f69f72a0bde8abe23a01f76fc413",
      "function": null,
      "arguments": [
        "0x7b7951A10086CF1d07A70796D00f5992eb7B4B42",
        "0xcf756fdf000000000000000000000000dafed9a0a40f810fcb5c3dfcd0cb3486036414eb0000000000000000000000007f4335c1adaf30567fb3cc03fab9a3e865a97e0a0000000000000000000000002bb34d36cc88c77f8057b4df1c14434bfa1176730000000000000000000000000000000000000000000000000000000000000038"
      ],
      "transaction": {
        "from": "0xdafed9a0a40f810fcb5c3dfcd0cb3486036414eb",
        "gas": "0x9b720",
        "value": "0x0",
        "input": "0x60a080604052610491803803809161001782856102a9565b833981016040828203126101eb5761002e826102e0565b602083015190926001600160401b0382116101eb570181601f820112156101eb5780519061005b826102f4565b9261006960405194856102a9565b828452602083830101116101eb575f5b82811061029457505060205f9183010152813b15610273577fa3f0ad74e5423aebfd80d3ef4346578335a9a72aeaee59ff6cb3582b35133d5080546001600160a01b0319166001600160a01b038416908117909155604051635c60da1b60e01b8152909190602081600481865afa9081156101f7575f91610239575b50803b156102195750817f1cf3b03a6cf19fa2baba4df148e9dcabedea7f8a5c07840e207e5c089be95d3e5f80a280511561020257602060049260405193848092635c60da1b60e01b82525afa9182156101f7575f926101b2575b50905f8083602061018e95519101845af43d156101aa573d91610172836102f4565b9261018060405194856102a9565b83523d5f602085013e61030f565b505b608052604051610123908161036e82396080518160180152f35b60609161030f565b91506020823d6020116101ef575b816101cd602093836102a9565b810103126101eb575f806101e361018e946102e0565b935050610150565b5f80fd5b3d91506101c0565b6040513d5f823e3d90fd5b505034156101905763b398979f60e01b5f5260045ffd5b634c9c8ce360e01b5f9081526001600160a01b0391909116600452602490fd5b90506020813d60201161026b575b81610254602093836102a9565b810103126101eb57610265906102e0565b5f6100f5565b3d9150610247565b50631933b43b60e21b5f9081526001600160a01b0391909116600452602490fd5b80602080928401015182828701015201610079565b601f909101601f19168101906001600160401b038211908210176102cc57604052565b634e487b7160e01b5f52604160045260245ffd5b51906001600160a01b03821682036101eb57565b6001600160401b0381116102cc57601f01601f191660200190565b90610333575080511561032457805190602001fd5b630a12f52160e11b5f5260045ffd5b81511580610364575b610344575090565b639996b31560e01b5f9081526001600160a01b0391909116600452602490fd5b50803b1561033c56fe60806040819052635c60da1b60e01b81526020906004817f00000000000000000000000000000000000000000000000000000000000000006001600160a01b03165afa801560a2575f901560d1575060203d602011609c575b601f19601f820116608001906080821067ffffffffffffffff83111760885760849160405260800160ad565b60d1565b634e487b7160e01b5f52604160045260245ffd5b503d6058565b6040513d5f823e3d90fd5b602090607f19011260cd576080516001600160a01b038116810360cd5790565b5f80fd5b5f8091368280378136915af43d5f803e1560e9573d5ff35b3d5ffdfea264697066735822122007093cdf920fcab71bd63b1088382f067ee9907b794386da93b88aa8e955b16864736f6c634300081c00330000000000000000000000007b7951a10086cf1d07a70796d00f5992eb7b4b4200000000000000000000000000000000000000000000000000000000000000400000000000000000000000000000000000000000000000000000000000000084cf756fdf000000000000000000000000dafed9a0a40f810fcb5c3dfcd0cb3486036414eb0000000000000000000000007f4335c1adaf30567fb3cc03fab9a3e865a97e0a0000000000000000000000002bb34d36cc88c77f8057b4df1c14434bfa117673000000000000000000000000000000000000000000000000000000000000003800000000000000000000000000000000000000000000000000000000",
        "nonce": "0x170",
        "chainId": "0xa4b1"
      },
      "additionalContracts": [],
      "isFixedGasLimit": false
    },
    {
      "hash": "0xcfd44e33d0fd67a5ed1d062f8ddd1754911646f58a03fe0ac1da2c340b125ca8",
      "transactionType": "CALL",
      "contractName": "BeaconProxy",
      "contractAddress": "0x7f4335c1adaf30567fb3cc03fab9a3e865a97e0a",
      "function": null,
      "arguments": null,
      "transaction": {
        "from": "0xdafed9a0a40f810fcb5c3dfcd0cb3486036414eb",
        "to": "0x7f4335c1adaf30567fb3cc03fab9a3e865a97e0a",
        "gas": "0xfcda",
        "value": "0x0",
        "input": "0x817f040a000000000000000000000000e6317bb95fc9f69f72a0bde8abe23a01f76fc413",
        "nonce": "0x171",
        "chainId": "0xa4b1"
      },
      "additionalContracts": [],
      "isFixedGasLimit": false
    },
    {
      "hash": "0x349419ea4e9e8ce62531a12ad68c5ef179bdaf4267c52b0cc464a4e6806fc1aa",
      "transactionType": "CREATE",
      "contractName": "BeaconProxy",
      "contractAddress": "0x2ce0527b4426dd9ca19d4c5667dd1b74c35dbad8",
      "function": null,
      "arguments": [
        "0x8656C2b6ADF31812B3C37BAc58AdC8917c83d8f8",
        "0xfc5b5fda00000000000000000000000083845524e0f82bbdb288875ee0d14a9892b7f3b10000000000000000000000007f4335c1adaf30567fb3cc03fab9a3e865a97e0a000000000000000000000000a184231aae8de21e7fcd962746ef350cbb650fbd0000000000000000000000006bb03c85599f99f0542693c171cec7944e0ac5630000000000000000000000000000000000000000000000000000000000000000"
      ],
      "transaction": {
        "from": "0xdafed9a0a40f810fcb5c3dfcd0cb3486036414eb",
        "gas": "0x80f44",
        "value": "0x0",
        "input": "0x60a080604052610491803803809161001782856102a9565b833981016040828203126101eb5761002e826102e0565b602083015190926001600160401b0382116101eb570181601f820112156101eb5780519061005b826102f4565b9261006960405194856102a9565b828452602083830101116101eb575f5b82811061029457505060205f9183010152813b15610273577fa3f0ad74e5423aebfd80d3ef4346578335a9a72aeaee59ff6cb3582b35133d5080546001600160a01b0319166001600160a01b038416908117909155604051635c60da1b60e01b8152909190602081600481865afa9081156101f7575f91610239575b50803b156102195750817f1cf3b03a6cf19fa2baba4df148e9dcabedea7f8a5c07840e207e5c089be95d3e5f80a280511561020257602060049260405193848092635c60da1b60e01b82525afa9182156101f7575f926101b2575b50905f8083602061018e95519101845af43d156101aa573d91610172836102f4565b9261018060405194856102a9565b83523d5f602085013e61030f565b505b608052604051610123908161036e82396080518160180152f35b60609161030f565b91506020823d6020116101ef575b816101cd602093836102a9565b810103126101eb575f806101e361018e946102e0565b935050610150565b5f80fd5b3d91506101c0565b6040513d5f823e3d90fd5b505034156101905763b398979f60e01b5f5260045ffd5b634c9c8ce360e01b5f9081526001600160a01b0391909116600452602490fd5b90506020813d60201161026b575b81610254602093836102a9565b810103126101eb57610265906102e0565b5f6100f5565b3d9150610247565b50631933b43b60e21b5f9081526001600160a01b0391909116600452602490fd5b80602080928401015182828701015201610079565b601f909101601f19168101906001600160401b038211908210176102cc57604052565b634e487b7160e01b5f52604160045260245ffd5b51906001600160a01b03821682036101eb57565b6001600160401b0381116102cc57601f01601f191660200190565b90610333575080511561032457805190602001fd5b630a12f52160e11b5f5260045ffd5b81511580610364575b610344575090565b639996b31560e01b5f9081526001600160a01b0391909116600452602490fd5b50803b1561033c56fe60806040819052635c60da1b60e01b81526020906004817f00000000000000000000000000000000000000000000000000000000000000006001600160a01b03165afa801560a2575f901560d1575060203d602011609c575b601f19601f820116608001906080821067ffffffffffffffff83111760885760849160405260800160ad565b60d1565b634e487b7160e01b5f52604160045260245ffd5b503d6058565b6040513d5f823e3d90fd5b602090607f19011260cd576080516001600160a01b038116810360cd5790565b5f80fd5b5f8091368280378136915af43d5f803e1560e9573d5ff35b3d5ffdfea264697066735822122007093cdf920fcab71bd63b1088382f067ee9907b794386da93b88aa8e955b16864736f6c634300081c00330000000000000000000000008656c2b6adf31812b3c37bac58adc8917c83d8f8000000000000000000000000000000000000000000000000000000000000004000000000000000000000000000000000000000000000000000000000000000a4fc5b5fda00000000000000000000000083845524e0f82bbdb288875ee0d14a9892b7f3b10000000000000000000000007f4335c1adaf30567fb3cc03fab9a3e865a97e0a000000000000000000000000a184231aae8de21e7fcd962746ef350cbb650fbd0000000000000000000000006bb03c85599f99f0542693c171cec7944e0ac563000000000000000000000000000000000000000000000000000000000000000000000000000000000000000000000000000000000000000000000000",
        "nonce": "0x172",
        "chainId": "0xa4b1"
      },
      "additionalContracts": [],
      "isFixedGasLimit": false
    },
    {
      "hash": "0xd408bd4819b05ce9fbe304bfa43e6847b7e179a8019bec98191d9a1b5ecdedfe",
      "transactionType": "CALL",
      "contractName": "BeaconProxy",
      "contractAddress": "0x7f4335c1adaf30567fb3cc03fab9a3e865a97e0a",
      "function": null,
      "arguments": null,
      "transaction": {
        "from": "0xdafed9a0a40f810fcb5c3dfcd0cb3486036414eb",
        "to": "0x7f4335c1adaf30567fb3cc03fab9a3e865a97e0a",
        "gas": "0xfcda",
        "value": "0x0",
        "input": "0x3d4493810000000000000000000000002ce0527b4426dd9ca19d4c5667dd1b74c35dbad8",
        "nonce": "0x173",
        "chainId": "0xa4b1"
      },
      "additionalContracts": [],
      "isFixedGasLimit": false
    }
  ],
  "receipts": [
    {
      "status": "0x1",
      "cumulativeGasUsed": "0x74c29",
      "logs": [
        {
          "address": "0x6bb03c85599f99f0542693c171cec7944e0ac563",
          "topics": [
            "0xa8abe0398416476db5b05737cd4da3b3cbde5012d978a6a6c3fd49d321753536"
          ],
          "data": "0x0000000000000000000000009a7fb1b3950837a8d9b40517626e11d4127c098c0000000000000000000000009a7fb1b3950837a8d9b40517626e11d4127c098c",
          "blockHash": "0xc2ff8600aa82ee1013e649dfb2f9b7d4c3f1a503076e3135dfdee59c3a3f29a3",
          "blockNumber": "0x122cdba0",
          "transactionHash": "0x0a562782bc721e410f570a2d3385ae824282e4697a06c97cf3843820f17a7f8b",
          "transactionIndex": "0x3",
          "logIndex": "0x6",
          "removed": false
        }
      ],
      "logsBloom": "0x00000000000000000000000000000000000000000000000000000000000000000200000000000000000000000000000000000000000000000000000000000000000000000080000000000000000000000000000000000000000000000000000000000000000000000000000000000000000000000000000000000400000000000000000000000000000000000000000000000000000000000000000000000000000000000000000000000000000000000000400000000000000000000000000000000020000000000080000000000000000000000000000000000000000000000000000000000000000000000000000000000000000000000000000000000000",
      "type": "0x2",
      "transactionHash": "0x0a562782bc721e410f570a2d3385ae824282e4697a06c97cf3843820f17a7f8b",
      "transactionIndex": "0x3",
      "blockHash": "0xc2ff8600aa82ee1013e649dfb2f9b7d4c3f1a503076e3135dfdee59c3a3f29a3",
      "blockNumber": "0x122cdba0",
      "gasUsed": "0x16330",
      "effectiveGasPrice": "0x989680",
      "from": "0xdafed9a0a40f810fcb5c3dfcd0cb3486036414eb",
      "to": "0x6bb03c85599f99f0542693c171cec7944e0ac563",
      "contractAddress": null,
      "gasUsedForL1": "0x8f21",
      "l1BlockNumber": "0x14cfdd6"
    },
    {
      "status": "0x1",
      "cumulativeGasUsed": "0x30042e",
      "logs": [
        {
          "address": "0x6bb03c85599f99f0542693c171cec7944e0ac563",
          "topics": [
            "0xa40c4f8f3f2e752ab36e989d38062be2e56a84ed82c5541b107bb81f119bfe5e"
          ],
          "data": "0x0000000000000000000000009a7fb1b3950837a8d9b40517626e11d4127c098c0000000000000000000000000000000000000000000000000000000000015180",
          "blockHash": "0xb87017d0d20184ea76c87fd1392fdd25a008e1dde423d13a4a8fd0f4bb934c36",
          "blockNumber": "0x122cdba3",
          "transactionHash": "0xf6473dec4358171d5a5b90cfed06f20ef5c1bd64e633cca4961b131db5074452",
          "transactionIndex": "0x14",
          "logIndex": "0x2d",
          "removed": false
        }
      ],
      "logsBloom": "0x00000000000000000000000000000000000000000000000000000000000000000200000000000000001000000000000000000000000000000000000000000000000000000000000000000000000000000000000000000000000000000000000000000000000000000000000000000000000000000000000000000000000000000000000000000000000000000000000000000000000000000000000000000000000000000000000000000000000000000000400000000000000000000000000000000020000000000000000000080000000000000000000000000000800000000000000000000000000000000000000000000000000000000000000000000000",
      "type": "0x2",
      "transactionHash": "0xf6473dec4358171d5a5b90cfed06f20ef5c1bd64e633cca4961b131db5074452",
      "transactionIndex": "0x14",
      "blockHash": "0xb87017d0d20184ea76c87fd1392fdd25a008e1dde423d13a4a8fd0f4bb934c36",
      "blockNumber": "0x122cdba3",
      "gasUsed": "0x16143",
      "effectiveGasPrice": "0x989680",
      "from": "0xdafed9a0a40f810fcb5c3dfcd0cb3486036414eb",
      "to": "0x6bb03c85599f99f0542693c171cec7944e0ac563",
      "contractAddress": null,
      "gasUsedForL1": "0x8e93",
      "l1BlockNumber": "0x14cfdd6"
    },
    {
      "status": "0x1",
      "cumulativeGasUsed": "0xf12bb",
      "logs": [
        {
          "address": "0xa4885f18cb744ac5e48bc8932fe4829b0022df84",
          "topics": [
            "0x1cf3b03a6cf19fa2baba4df148e9dcabedea7f8a5c07840e207e5c089be95d3e",
            "0x00000000000000000000000019e6dc367b4dbca5ee38de32db6c74b731ed755e"
          ],
          "data": "0x",
          "blockHash": "0x76caf51886cda56369c3b793796b90b6b0c1f5771af44e01726dfb67b8971f3c",
          "blockNumber": "0x122cdbac",
          "transactionHash": "0xcd482becdcb1789f38757c7d6bf212368d85155e0b146316f9da5c7f8f4ccf6f",
          "transactionIndex": "0x7",
          "logIndex": "0x0",
          "removed": false
        },
        {
          "address": "0xa4885f18cb744ac5e48bc8932fe4829b0022df84",
          "topics": [
            "0x8be0079c531659141344cd1fd0a4f28419497f9722a3daafe3b4186f6b6457e0",
            "0x0000000000000000000000000000000000000000000000000000000000000000",
            "0x000000000000000000000000dafed9a0a40f810fcb5c3dfcd0cb3486036414eb"
          ],
          "data": "0x",
          "blockHash": "0x76caf51886cda56369c3b793796b90b6b0c1f5771af44e01726dfb67b8971f3c",
          "blockNumber": "0x122cdbac",
          "transactionHash": "0xcd482becdcb1789f38757c7d6bf212368d85155e0b146316f9da5c7f8f4ccf6f",
          "transactionIndex": "0x7",
          "logIndex": "0x1",
          "removed": false
        },
        {
          "address": "0xa4885f18cb744ac5e48bc8932fe4829b0022df84",
          "topics": [
            "0x9d7a48441963aa3425b87ed3abc8ba1f46667f5b3bf7114f7ad42a2fa20973bd"
          ],
          "data": "0x000000000000000000000000dafed9a0a40f810fcb5c3dfcd0cb3486036414ebffffffffffffffffffffffffffffffffffffffffffffffffffffffffffffffff",
          "blockHash": "0x76caf51886cda56369c3b793796b90b6b0c1f5771af44e01726dfb67b8971f3c",
          "blockNumber": "0x122cdbac",
          "transactionHash": "0xcd482becdcb1789f38757c7d6bf212368d85155e0b146316f9da5c7f8f4ccf6f",
          "transactionIndex": "0x7",
          "logIndex": "0x2",
          "removed": false
        },
        {
          "address": "0xa4885f18cb744ac5e48bc8932fe4829b0022df84",
          "topics": [
            "0x53017628b1d5666a4e56030d0acb76a88d0c802c5da8728edba2985877c30ec0"
          ],
          "data": "0x000000000000000000000000dafed9a0a40f810fcb5c3dfcd0cb3486036414ebffffffffffffffffffffffffffffffffffffffffffffffffffffffffffffffff",
          "blockHash": "0x76caf51886cda56369c3b793796b90b6b0c1f5771af44e01726dfb67b8971f3c",
          "blockNumber": "0x122cdbac",
          "transactionHash": "0xcd482becdcb1789f38757c7d6bf212368d85155e0b146316f9da5c7f8f4ccf6f",
          "transactionIndex": "0x7",
          "logIndex": "0x3",
          "removed": false
        },
        {
          "address": "0xa4885f18cb744ac5e48bc8932fe4829b0022df84",
          "topics": [
            "0x6db5522382e049661c3415e5bc6fed59fee1054d960d07e772b763968ef1fd4e"
          ],
          "data": "0x000000000000000000000000dafed9a0a40f810fcb5c3dfcd0cb3486036414eb0000000000000000000000000000000000000000000000000011c37937e08000",
          "blockHash": "0x76caf51886cda56369c3b793796b90b6b0c1f5771af44e01726dfb67b8971f3c",
          "blockNumber": "0x122cdbac",
          "transactionHash": "0xcd482becdcb1789f38757c7d6bf212368d85155e0b146316f9da5c7f8f4ccf6f",
          "transactionIndex": "0x7",
          "logIndex": "0x4",
          "removed": false
        },
        {
          "address": "0xa4885f18cb744ac5e48bc8932fe4829b0022df84",
          "topics": [
            "0x21e5e6d8aeffff22c50c806a26be619de7fc39d1029e6fe5ad986036bb26f0f3"
          ],
          "data": "0x000000000000000000000000dafed9a0a40f810fcb5c3dfcd0cb3486036414eb0000000000000000000000000000000000000000000000000011c37937e08000",
          "blockHash": "0x76caf51886cda56369c3b793796b90b6b0c1f5771af44e01726dfb67b8971f3c",
          "blockNumber": "0x122cdbac",
          "transactionHash": "0xcd482becdcb1789f38757c7d6bf212368d85155e0b146316f9da5c7f8f4ccf6f",
          "transactionIndex": "0x7",
          "logIndex": "0x5",
          "removed": false
        },
        {
          "address": "0xa4885f18cb744ac5e48bc8932fe4829b0022df84",
          "topics": [
            "0xc7f505b2f371ae2175ee4913f4499e1f2633a7b5936321eed1cdaeb6115181d2"
          ],
          "data": "0x0000000000000000000000000000000000000000000000000000000000000001",
          "blockHash": "0x76caf51886cda56369c3b793796b90b6b0c1f5771af44e01726dfb67b8971f3c",
          "blockNumber": "0x122cdbac",
          "transactionHash": "0xcd482becdcb1789f38757c7d6bf212368d85155e0b146316f9da5c7f8f4ccf6f",
          "transactionIndex": "0x7",
          "logIndex": "0x6",
          "removed": false
        }
      ],
      "logsBloom": "0x00000000000008000000000000000400000000400000000000800000000000000000100080000000000000000000000000000000000000000000000000000000000000000001000000400000001000000001002000000010000000000000000000000000028000000000000000000c00000000000000000000100000000000400000000000002400000800000000080000000000000080000002000000000000000000000000000000000000000000000000000000000000000000000000000000400000000000000020000000000000800000000004000000808001000020000000000000000000000000000000000000000000000000200000000000000000",
      "type": "0x2",
      "transactionHash": "0xcd482becdcb1789f38757c7d6bf212368d85155e0b146316f9da5c7f8f4ccf6f",
      "transactionIndex": "0x7",
      "blockHash": "0x76caf51886cda56369c3b793796b90b6b0c1f5771af44e01726dfb67b8971f3c",
      "blockNumber": "0x122cdbac",
      "gasUsed": "0x95ed1",
      "effectiveGasPrice": "0x989680",
      "from": "0xdafed9a0a40f810fcb5c3dfcd0cb3486036414eb",
      "to": null,
      "contractAddress": "0xa4885f18cb744ac5e48bc8932fe4829b0022df84",
      "gasUsedForL1": "0x29ffe",
      "l1BlockNumber": "0x14cfdd6"
    },
    {
      "status": "0x1",
      "cumulativeGasUsed": "0x200107",
      "logs": [
        {
          "address": "0x7f4335c1adaf30567fb3cc03fab9a3e865a97e0a",
          "topics": [
            "0x1cf3b03a6cf19fa2baba4df148e9dcabedea7f8a5c07840e207e5c089be95d3e",
            "0x000000000000000000000000462668198f8a8c3a4410a0b45a47f432c77749af"
          ],
          "data": "0x",
          "blockHash": "0xbb4ab389347dc43aab546435c1f499b9ec682b4d6fd339a2b33468862fc00356",
          "blockNumber": "0x122cdbaf",
          "transactionHash": "0xf7b126251dc0a0efc77828885631acd7ed3ce17dbfa5cd12dce149929aba8355",
          "transactionIndex": "0x8",
          "logIndex": "0x6",
          "removed": false
        },
        {
          "address": "0x7f4335c1adaf30567fb3cc03fab9a3e865a97e0a",
          "topics": [
            "0x8be0079c531659141344cd1fd0a4f28419497f9722a3daafe3b4186f6b6457e0",
            "0x0000000000000000000000000000000000000000000000000000000000000000",
            "0x000000000000000000000000dafed9a0a40f810fcb5c3dfcd0cb3486036414eb"
          ],
          "data": "0x",
          "blockHash": "0xbb4ab389347dc43aab546435c1f499b9ec682b4d6fd339a2b33468862fc00356",
          "blockNumber": "0x122cdbaf",
          "transactionHash": "0xf7b126251dc0a0efc77828885631acd7ed3ce17dbfa5cd12dce149929aba8355",
          "transactionIndex": "0x8",
          "logIndex": "0x7",
          "removed": false
        },
        {
          "address": "0x7f4335c1adaf30567fb3cc03fab9a3e865a97e0a",
          "topics": [
            "0xfbe5b6cbafb274f445d7fed869dc77a838d8243a22c460de156560e8857cad03",
            "0x000000000000000000000000dafed9a0a40f810fcb5c3dfcd0cb3486036414eb",
            "0x000000000000000000000000c3acb9df13095e7a27919d78ad8323cf7717bb16"
          ],
          "data": "0x",
          "blockHash": "0xbb4ab389347dc43aab546435c1f499b9ec682b4d6fd339a2b33468862fc00356",
          "blockNumber": "0x122cdbaf",
          "transactionHash": "0xf7b126251dc0a0efc77828885631acd7ed3ce17dbfa5cd12dce149929aba8355",
          "transactionIndex": "0x8",
          "logIndex": "0x8",
          "removed": false
        },
        {
          "address": "0x7f4335c1adaf30567fb3cc03fab9a3e865a97e0a",
          "topics": [
            "0x19982f258a5a6333c515c00cc9c1cff71b8073634dd3514cda97a39c402b3a95",
            "0x000000000000000000000000dafed9a0a40f810fcb5c3dfcd0cb3486036414eb"
          ],
          "data": "0x00000000000000000000000000000000000000000000000053444835ec5800000000000000000000000000000000000000000000000000001bc16d674ec80000000000000000000000000000000000000000000000000000a688906bd8b00000000000000000000000000000000000000000000000000000f9ccd8a1c5080000",
          "blockHash": "0xbb4ab389347dc43aab546435c1f499b9ec682b4d6fd339a2b33468862fc00356",
          "blockNumber": "0x122cdbaf",
          "transactionHash": "0xf7b126251dc0a0efc77828885631acd7ed3ce17dbfa5cd12dce149929aba8355",
          "transactionIndex": "0x8",
          "logIndex": "0x9",
          "removed": false
        },
        {
          "address": "0x7f4335c1adaf30567fb3cc03fab9a3e865a97e0a",
          "topics": [
            "0xc7f505b2f371ae2175ee4913f4499e1f2633a7b5936321eed1cdaeb6115181d2"
          ],
          "data": "0x0000000000000000000000000000000000000000000000000000000000000001",
          "blockHash": "0xbb4ab389347dc43aab546435c1f499b9ec682b4d6fd339a2b33468862fc00356",
          "blockNumber": "0x122cdbaf",
          "transactionHash": "0xf7b126251dc0a0efc77828885631acd7ed3ce17dbfa5cd12dce149929aba8355",
          "transactionIndex": "0x8",
          "logIndex": "0xa",
          "removed": false
        }
      ],
      "logsBloom": "0x00000000000008000000200000000000000000000000000000800000000000000000000000000000000000000000000000000000000000000000000000000000000000000001000000000000001000000001000000000010000000000000000000000400020000000000200000000880002000000000000000000000000000400000000000800000000800000000080000010000000080800000000000002000010000000000000000000000000000000200000000000000080000000000000000000000000000000080000000000000000000000004000000800000000022000000000000000004000000000000000000000000000000000000000000000000",
      "type": "0x2",
      "transactionHash": "0xf7b126251dc0a0efc77828885631acd7ed3ce17dbfa5cd12dce149929aba8355",
      "transactionIndex": "0x8",
      "blockHash": "0xbb4ab389347dc43aab546435c1f499b9ec682b4d6fd339a2b33468862fc00356",
      "blockNumber": "0x122cdbaf",
      "gasUsed": "0xac703",
      "effectiveGasPrice": "0x989680",
      "from": "0xdafed9a0a40f810fcb5c3dfcd0cb3486036414eb",
      "to": null,
      "contractAddress": "0x7f4335c1adaf30567fb3cc03fab9a3e865a97e0a",
      "gasUsedForL1": "0x2a8d6",
      "l1BlockNumber": "0x14cfdd6"
    },
    {
      "status": "0x1",
      "cumulativeGasUsed": "0x1a2e1a",
      "logs": [
        {
          "address": "0xaf88d065e77c8cc2239327c5edb3a432268e5831",
          "topics": [
            "0x8c5be1e5ebec7d5bd14f71427d1e84f3dd0314c0f7b2291e5b200ac8c7c3b925",
            "0x000000000000000000000000a4885f18cb744ac5e48bc8932fe4829b0022df84",
            "0x0000000000000000000000007f4335c1adaf30567fb3cc03fab9a3e865a97e0a"
          ],
          "data": "0xffffffffffffffffffffffffffffffffffffffffffffffffffffffffffffffff",
          "blockHash": "0x5b56d886becb3f3e1d2890be1bccb9a8a23348908518e66909da977cd46699b2",
          "blockNumber": "0x122cdbb2",
          "transactionHash": "0x870d33a6bfae0e045f75f3ba9c4175376d7643a29eb373097e88137e5fbd5dba",
          "transactionIndex": "0x5",
          "logIndex": "0x4",
          "removed": false
        },
        {
          "address": "0xa4885f18cb744ac5e48bc8932fe4829b0022df84",
          "topics": [
            "0xe4cec16b1a7e6b7979e923da619a8b1e5fd0f0fb6e5c1cf647f350430ee61ca9"
          ],
          "data": "0x000000000000000000000000dafed9a0a40f810fcb5c3dfcd0cb3486036414eb0000000000000000000000007f4335c1adaf30567fb3cc03fab9a3e865a97e0a",
          "blockHash": "0x5b56d886becb3f3e1d2890be1bccb9a8a23348908518e66909da977cd46699b2",
          "blockNumber": "0x122cdbb2",
          "transactionHash": "0x870d33a6bfae0e045f75f3ba9c4175376d7643a29eb373097e88137e5fbd5dba",
          "transactionIndex": "0x5",
          "logIndex": "0x5",
          "removed": false
        }
      ],
      "logsBloom": "0x00000000000000000000000000000000000000000000000000000000000000000000000000000000000000000000000000040001000000000000000000200000000000000400000000000000000000000000000000000000000000000000000000000000008000000000000000000400000000000000000000000000000000000000000000000000000004000000000100840000000000000000000000000000020000000000000000000000000000000000000000000000000000000000000000002000080000000020000000000000000000000000000000000000000000000010000000010000000000000001200000000000000000000000000000000000",
      "type": "0x2",
      "transactionHash": "0x870d33a6bfae0e045f75f3ba9c4175376d7643a29eb373097e88137e5fbd5dba",
      "transactionIndex": "0x5",
      "blockHash": "0x5b56d886becb3f3e1d2890be1bccb9a8a23348908518e66909da977cd46699b2",
      "blockNumber": "0x122cdbb2",
      "gasUsed": "0x20b39",
      "effectiveGasPrice": "0x989680",
      "from": "0xdafed9a0a40f810fcb5c3dfcd0cb3486036414eb",
      "to": "0xa4885f18cb744ac5e48bc8932fe4829b0022df84",
      "contractAddress": null,
      "gasUsedForL1": "0x52e4",
      "l1BlockNumber": "0x14cfdd6"
    },
    {
      "status": "0x1",
      "cumulativeGasUsed": "0xbfbd8",
      "logs": [
        {
          "address": "0xe6317bb95fc9f69f72a0bde8abe23a01f76fc413",
          "topics": [
            "0x1cf3b03a6cf19fa2baba4df148e9dcabedea7f8a5c07840e207e5c089be95d3e",
            "0x0000000000000000000000007b7951a10086cf1d07a70796d00f5992eb7b4b42"
          ],
          "data": "0x",
          "blockHash": "0x4b7e3741bba90ed354303783627c00de7ff893332d68c4817e2d5a734c714334",
          "blockNumber": "0x122cdbbb",
          "transactionHash": "0x6089ca232712b123df5c97881a94101b056b597c245bb0e8785b974dd17c27ef",
          "transactionIndex": "0x2",
          "logIndex": "0x1",
          "removed": false
        },
        {
          "address": "0xe6317bb95fc9f69f72a0bde8abe23a01f76fc413",
          "topics": [
            "0x8be0079c531659141344cd1fd0a4f28419497f9722a3daafe3b4186f6b6457e0",
            "0x0000000000000000000000000000000000000000000000000000000000000000",
            "0x000000000000000000000000dafed9a0a40f810fcb5c3dfcd0cb3486036414eb"
          ],
          "data": "0x",
          "blockHash": "0x4b7e3741bba90ed354303783627c00de7ff893332d68c4817e2d5a734c714334",
          "blockNumber": "0x122cdbbb",
          "transactionHash": "0x6089ca232712b123df5c97881a94101b056b597c245bb0e8785b974dd17c27ef",
          "transactionIndex": "0x2",
          "logIndex": "0x2",
          "removed": false
        },
        {
          "address": "0xe6317bb95fc9f69f72a0bde8abe23a01f76fc413",
          "topics": [
            "0x7e46180308b7253f713d86c518a36c6665fd9281ac7e2da76ca79707b60c88ed",
            "0x000000000000000000000000dafed9a0a40f810fcb5c3dfcd0cb3486036414eb",
            "0x00000000000000000000000000000000000000000000000000000000000f4240"
          ],
          "data": "0x",
          "blockHash": "0x4b7e3741bba90ed354303783627c00de7ff893332d68c4817e2d5a734c714334",
          "blockNumber": "0x122cdbbb",
          "transactionHash": "0x6089ca232712b123df5c97881a94101b056b597c245bb0e8785b974dd17c27ef",
          "transactionIndex": "0x2",
          "logIndex": "0x3",
          "removed": false
        },
        {
          "address": "0xe6317bb95fc9f69f72a0bde8abe23a01f76fc413",
          "topics": [
            "0xc5665bcad16bc7b18abbd8f5a8d73489e8e00560e6c6ee2e360c13456ea2c319",
            "0x000000000000000000000000dafed9a0a40f810fcb5c3dfcd0cb3486036414eb",
            "0x00000000000000000000000000000000000000000000000000000000000c3500"
          ],
          "data": "0x",
          "blockHash": "0x4b7e3741bba90ed354303783627c00de7ff893332d68c4817e2d5a734c714334",
          "blockNumber": "0x122cdbbb",
          "transactionHash": "0x6089ca232712b123df5c97881a94101b056b597c245bb0e8785b974dd17c27ef",
          "transactionIndex": "0x2",
          "logIndex": "0x4",
          "removed": false
        },
        {
          "address": "0xe6317bb95fc9f69f72a0bde8abe23a01f76fc413",
          "topics": [
            "0x2ab073a66aebb22270fcfc8f70049be3fc0bacca75c6087ec625f7aa721146ed",
            "0x000000000000000000000000dafed9a0a40f810fcb5c3dfcd0cb3486036414eb",
            "0x00000000000000000000000000000000000000000000000000000000000f4240"
          ],
          "data": "0x",
          "blockHash": "0x4b7e3741bba90ed354303783627c00de7ff893332d68c4817e2d5a734c714334",
          "blockNumber": "0x122cdbbb",
          "transactionHash": "0x6089ca232712b123df5c97881a94101b056b597c245bb0e8785b974dd17c27ef",
          "transactionIndex": "0x2",
          "logIndex": "0x5",
          "removed": false
        },
        {
          "address": "0xe6317bb95fc9f69f72a0bde8abe23a01f76fc413",
          "topics": [
            "0x0c61586c8767585830fccae17ae0d87bd9884902ed6071e169f4cf581be838e0",
            "0x000000000000000000000000dafed9a0a40f810fcb5c3dfcd0cb3486036414eb",
            "0x00000000000000000000000000000000000000000000000000000000000c3500"
          ],
          "data": "0x",
          "blockHash": "0x4b7e3741bba90ed354303783627c00de7ff893332d68c4817e2d5a734c714334",
          "blockNumber": "0x122cdbbb",
          "transactionHash": "0x6089ca232712b123df5c97881a94101b056b597c245bb0e8785b974dd17c27ef",
          "transactionIndex": "0x2",
          "logIndex": "0x6",
          "removed": false
        },
        {
          "address": "0xe6317bb95fc9f69f72a0bde8abe23a01f76fc413",
          "topics": [
            "0x4be73a2bab3c10f7049cbd6605125ca386660f1566dfff8a29be1b9fe8ec7e7b",
            "0x000000000000000000000000dafed9a0a40f810fcb5c3dfcd0cb3486036414eb",
            "0x0000000000000000000000002bb34d36cc88c77f8057b4df1c14434bfa117673"
          ],
          "data": "0x",
          "blockHash": "0x4b7e3741bba90ed354303783627c00de7ff893332d68c4817e2d5a734c714334",
          "blockNumber": "0x122cdbbb",
          "transactionHash": "0x6089ca232712b123df5c97881a94101b056b597c245bb0e8785b974dd17c27ef",
          "transactionIndex": "0x2",
          "logIndex": "0x7",
          "removed": false
        },
        {
          "address": "0xaf88d065e77c8cc2239327c5edb3a432268e5831",
          "topics": [
            "0x8c5be1e5ebec7d5bd14f71427d1e84f3dd0314c0f7b2291e5b200ac8c7c3b925",
            "0x000000000000000000000000e6317bb95fc9f69f72a0bde8abe23a01f76fc413",
            "0x0000000000000000000000007f4335c1adaf30567fb3cc03fab9a3e865a97e0a"
          ],
          "data": "0xffffffffffffffffffffffffffffffffffffffffffffffffffffffffffffffff",
          "blockHash": "0x4b7e3741bba90ed354303783627c00de7ff893332d68c4817e2d5a734c714334",
          "blockNumber": "0x122cdbbb",
          "transactionHash": "0x6089ca232712b123df5c97881a94101b056b597c245bb0e8785b974dd17c27ef",
          "transactionIndex": "0x2",
          "logIndex": "0x8",
          "removed": false
        },
        {
          "address": "0xe6317bb95fc9f69f72a0bde8abe23a01f76fc413",
          "topics": [
            "0xc7f505b2f371ae2175ee4913f4499e1f2633a7b5936321eed1cdaeb6115181d2"
          ],
          "data": "0x0000000000000000000000000000000000000000000000000000000000000001",
          "blockHash": "0x4b7e3741bba90ed354303783627c00de7ff893332d68c4817e2d5a734c714334",
          "blockNumber": "0x122cdbbb",
          "transactionHash": "0x6089ca232712b123df5c97881a94101b056b597c245bb0e8785b974dd17c27ef",
          "transactionIndex": "0x2",
          "logIndex": "0x9",
          "removed": false
        }
      ],
      "logsBloom": "0x00000000200008000000000000000000000000000000000000800000000000000000008000000000000000000000000000001001000000002000000000200000000000000001000000000120001010000001002000040010000000000000100000400000020000000000000000000800000402000000000400000000000000400000000000001000000804000010090000000000000080000080000000000000020000000000000000000000000002000000000001000000002000000000000000002000180000000000820000000002000800010004000000800000000020000010800020010000080000000000200000000000000000000000200000000000",
      "type": "0x2",
      "transactionHash": "0x6089ca232712b123df5c97881a94101b056b597c245bb0e8785b974dd17c27ef",
      "transactionIndex": "0x2",
      "blockHash": "0x4b7e3741bba90ed354303783627c00de7ff893332d68c4817e2d5a734c714334",
      "blockNumber": "0x122cdbbb",
      "gasUsed": "0x9ebdb",
      "effectiveGasPrice": "0x989680",
      "from": "0xdafed9a0a40f810fcb5c3dfcd0cb3486036414eb",
      "to": null,
      "contractAddress": "0xe6317bb95fc9f69f72a0bde8abe23a01f76fc413",
      "gasUsedForL1": "0x272ae",
      "l1BlockNumber": "0x14cfdd6"
    },
    {
      "status": "0x1",
      "cumulativeGasUsed": "0x182db",
      "logs": [
        {
          "address": "0x7f4335c1adaf30567fb3cc03fab9a3e865a97e0a",
          "topics": [
            "0xd95be3f58e228f591dc02325de1e49194cbc10cd10b209cb74ec68c4d0f5fec2",
            "0x000000000000000000000000dafed9a0a40f810fcb5c3dfcd0cb3486036414eb",
            "0x000000000000000000000000e6317bb95fc9f69f72a0bde8abe23a01f76fc413"
          ],
          "data": "0x",
          "blockHash": "0xae149fee25de4b2281e77218859ee3c0c7f8284047f81342bf45209c333aa1ea",
          "blockNumber": "0x122cdbbe",
          "transactionHash": "0xcfd44e33d0fd67a5ed1d062f8ddd1754911646f58a03fe0ac1da2c340b125ca8",
          "transactionIndex": "0x1",
          "logIndex": "0x0",
          "removed": false
        }
      ],
      "logsBloom": "0x00000000000008000000000000000000000000000000000004000000000000000000000000000000000000000000000000000000000000002000000000000000000000000001000000000000000000000000002000000010000000000020000000000400000000000000000000000080000000000000000000000000000000000000000000000000000000000000000000000000000000800000000000000000000000000000000000000000000002000000000000000000000000000000000000000000000000000000000000000000400000000000000000000000000000000000000000000000000000000000000000000000000000000000000000000000",
      "type": "0x2",
      "transactionHash": "0xcfd44e33d0fd67a5ed1d062f8ddd1754911646f58a03fe0ac1da2c340b125ca8",
      "transactionIndex": "0x1",
      "blockHash": "0xae149fee25de4b2281e77218859ee3c0c7f8284047f81342bf45209c333aa1ea",
      "blockNumber": "0x122cdbbe",
      "gasUsed": "0x182db",
      "effectiveGasPrice": "0x989680",
      "from": "0xdafed9a0a40f810fcb5c3dfcd0cb3486036414eb",
      "to": "0x7f4335c1adaf30567fb3cc03fab9a3e865a97e0a",
      "contractAddress": null,
      "gasUsedForL1": "0x52e4",
      "l1BlockNumber": "0x14cfdd6"
    },
    {
      "status": "0x1",
      "cumulativeGasUsed": "0x2df97d",
      "logs": [
        {
          "address": "0x2ce0527b4426dd9ca19d4c5667dd1b74c35dbad8",
          "topics": [
            "0x1cf3b03a6cf19fa2baba4df148e9dcabedea7f8a5c07840e207e5c089be95d3e",
            "0x0000000000000000000000008656c2b6adf31812b3c37bac58adc8917c83d8f8"
          ],
          "data": "0x",
          "blockHash": "0xb62719ae371c328a5a793ef3d53efc520ca98fff6597507a999961331f19a35c",
          "blockNumber": "0x122cdbc1",
          "transactionHash": "0x349419ea4e9e8ce62531a12ad68c5ef179bdaf4267c52b0cc464a4e6806fc1aa",
          "transactionIndex": "0x7",
          "logIndex": "0x29",
          "removed": false
        },
        {
          "address": "0x2ce0527b4426dd9ca19d4c5667dd1b74c35dbad8",
          "topics": [
            "0x8be0079c531659141344cd1fd0a4f28419497f9722a3daafe3b4186f6b6457e0",
            "0x0000000000000000000000000000000000000000000000000000000000000000",
            "0x000000000000000000000000dafed9a0a40f810fcb5c3dfcd0cb3486036414eb"
          ],
          "data": "0x",
          "blockHash": "0xb62719ae371c328a5a793ef3d53efc520ca98fff6597507a999961331f19a35c",
          "blockNumber": "0x122cdbc1",
          "transactionHash": "0x349419ea4e9e8ce62531a12ad68c5ef179bdaf4267c52b0cc464a4e6806fc1aa",
          "transactionIndex": "0x7",
          "logIndex": "0x2a",
          "removed": false
        },
        {
          "address": "0x2ce0527b4426dd9ca19d4c5667dd1b74c35dbad8",
          "topics": [
            "0xee7760cb405d3beb1072ae2e716857daa45a5dd52bc1383a21173199d32c7dee",
            "0x000000000000000000000000dafed9a0a40f810fcb5c3dfcd0cb3486036414eb",
            "0x000000000000000000000000a184231aae8de21e7fcd962746ef350cbb650fbd"
          ],
          "data": "0x",
          "blockHash": "0xb62719ae371c328a5a793ef3d53efc520ca98fff6597507a999961331f19a35c",
          "blockNumber": "0x122cdbc1",
          "transactionHash": "0x349419ea4e9e8ce62531a12ad68c5ef179bdaf4267c52b0cc464a4e6806fc1aa",
          "transactionIndex": "0x7",
          "logIndex": "0x2b",
          "removed": false
        },
        {
          "address": "0xaf88d065e77c8cc2239327c5edb3a432268e5831",
          "topics": [
            "0x8c5be1e5ebec7d5bd14f71427d1e84f3dd0314c0f7b2291e5b200ac8c7c3b925",
            "0x0000000000000000000000002ce0527b4426dd9ca19d4c5667dd1b74c35dbad8",
            "0x0000000000000000000000007f4335c1adaf30567fb3cc03fab9a3e865a97e0a"
          ],
          "data": "0xffffffffffffffffffffffffffffffffffffffffffffffffffffffffffffffff",
          "blockHash": "0xb62719ae371c328a5a793ef3d53efc520ca98fff6597507a999961331f19a35c",
          "blockNumber": "0x122cdbc1",
          "transactionHash": "0x349419ea4e9e8ce62531a12ad68c5ef179bdaf4267c52b0cc464a4e6806fc1aa",
          "transactionIndex": "0x7",
          "logIndex": "0x2c",
          "removed": false
        },
        {
          "address": "0x2ce0527b4426dd9ca19d4c5667dd1b74c35dbad8",
          "topics": [
            "0xc7f505b2f371ae2175ee4913f4499e1f2633a7b5936321eed1cdaeb6115181d2"
          ],
          "data": "0x0000000000000000000000000000000000000000000000000000000000000001",
          "blockHash": "0xb62719ae371c328a5a793ef3d53efc520ca98fff6597507a999961331f19a35c",
          "blockNumber": "0x122cdbc1",
          "transactionHash": "0x349419ea4e9e8ce62531a12ad68c5ef179bdaf4267c52b0cc464a4e6806fc1aa",
          "transactionIndex": "0x7",
          "logIndex": "0x2d",
          "removed": false
        }
      ],
      "logsBloom": "0x00000000000008000000000000000000000000040100000040800000000000000000000000080800000000000000000000000001000000200000000000200000000000000001000000000000001000000001000000000010000000000000000000000000020000000000000000000800000800000000000000000000800000400000000000800000000804000000080000000000000080000008000000000000020000000000000000000000000000000000000000000000000000000000000000002000080000000080000000000040000000000004000000800000000020000010000000010000000002000000200000000004000000000000000000000000",
      "type": "0x2",
      "transactionHash": "0x349419ea4e9e8ce62531a12ad68c5ef179bdaf4267c52b0cc464a4e6806fc1aa",
      "transactionIndex": "0x7",
      "blockHash": "0xb62719ae371c328a5a793ef3d53efc520ca98fff6597507a999961331f19a35c",
      "blockNumber": "0x122cdbc1",
      "gasUsed": "0x8b77e",
      "effectiveGasPrice": "0x989680",
      "from": "0xdafed9a0a40f810fcb5c3dfcd0cb3486036414eb",
      "to": null,
      "contractAddress": "0x2ce0527b4426dd9ca19d4c5667dd1b74c35dbad8",
      "gasUsedForL1": "0x2845d",
      "l1BlockNumber": "0x14cfdd6"
    },
    {
      "status": "0x1",
      "cumulativeGasUsed": "0x16a2f",
      "logs": [
        {
          "address": "0x7f4335c1adaf30567fb3cc03fab9a3e865a97e0a",
          "topics": [
            "0x0813bc74dde0091f04cdeeaae076c8731bd585a408ed95332319b650cfa48be8",
            "0x000000000000000000000000dafed9a0a40f810fcb5c3dfcd0cb3486036414eb",
            "0x0000000000000000000000002ce0527b4426dd9ca19d4c5667dd1b74c35dbad8"
          ],
          "data": "0x",
          "blockHash": "0x36514075c1363ca317b52b14ad8ab803a2285b5e729a854d6a1b0d4a117a023c",
          "blockNumber": "0x122cdbc9",
          "transactionHash": "0xd408bd4819b05ce9fbe304bfa43e6847b7e179a8019bec98191d9a1b5ecdedfe",
          "transactionIndex": "0x1",
          "logIndex": "0x0",
          "removed": false
        }
      ],
      "logsBloom": "0x00000000000008000000000000000000000000000100000040000000000000000000000000000000000000000000000000000000000000000000000000000000000000000001000000000000000000000000000000000030000000000000000000000400000000000000000000000080000000000000000000000000000000000000000000000000000000000000000000040000000000800000000000000000000000000000000000000000000000000000000000004000000000000000000000000000000000000080000000000000000000000000000000000000000000000000000000000000000000000000000000000000000000000000000000000000",
      "type": "0x2",
      "transactionHash": "0xd408bd4819b05ce9fbe304bfa43e6847b7e179a8019bec98191d9a1b5ecdedfe",
      "transactionIndex": "0x1",
      "blockHash": "0x36514075c1363ca317b52b14ad8ab803a2285b5e729a854d6a1b0d4a117a023c",
      "blockNumber": "0x122cdbc9",
      "gasUsed": "0x16a2f",
      "effectiveGasPrice": "0x989680",
      "from": "0xdafed9a0a40f810fcb5c3dfcd0cb3486036414eb",
      "to": "0x7f4335c1adaf30567fb3cc03fab9a3e865a97e0a",
      "contractAddress": null,
      "gasUsedForL1": "0x52e4",
      "l1BlockNumber": "0x14cfdd6"
    }
  ],
  "libraries": [],
  "pending": [],
  "returns": {},
  "timestamp": 1739272725,
  "chain": 42161,
  "commit": "a0781fb"
}