{
  "transactions": [
    {
      "hash": "0x428a1bb6d21aa8c3c84c6aa3413199260fb677e1cb81529961906ac195bf6a68",
      "transactionType": "CALL",
      "contractName": null,
      "contractAddress": "0xe6317bb95fc9f69f72a0bde8abe23a01f76fc413",
      "function": "setSwapper(bytes32)",
      "arguments": [
        "0x000000000000000000000000000e8054ed824ee6a257b5bac1ecb936b4af7a7f"
      ],
      "transaction": {
        "from": "0xdafed9a0a40f810fcb5c3dfcd0cb3486036414eb",
        "to": "0xe6317bb95fc9f69f72a0bde8abe23a01f76fc413",
        "gas": "0x1bed6",
        "value": "0x0",
        "input": "0x4ac453d7000000000000000000000000000e8054ed824ee6a257b5bac1ecb936b4af7a7f",
        "nonce": "0x174",
        "chainId": "0xa4b1"
      },
      "additionalContracts": [],
      "isFixedGasLimit": false
    }
  ],
  "receipts": [
    {
      "status": "0x1",
      "cumulativeGasUsed": "0x2548b",
      "logs": [
        {
          "address": "0xe6317bb95fc9f69f72a0bde8abe23a01f76fc413",
          "topics": [
            "0x078f76cd71441bafe26bc5339bd180e09c64d06601b717fec01f85db47da5e99",
            "0x000000000000000000000000dafed9a0a40f810fcb5c3dfcd0cb3486036414eb",
            "0x000000000000000000000000000e8054ed824ee6a257b5bac1ecb936b4af7a7f"
          ],
          "data": "0x",
          "blockHash": "0x50113c4fbab30ed26c8a03b25175875437249b743b6c07b599c887f7d3474937",
          "blockNumber": "0x122ce3ae",
          "transactionHash": "0x428a1bb6d21aa8c3c84c6aa3413199260fb677e1cb81529961906ac195bf6a68",
          "transactionIndex": "0x2",
          "logIndex": "0x1",
          "removed": false
        }
      ],
      "logsBloom": "0x00000000040008000000000000000000000000000000100000000000000000000000000000000000000000000000000000000000000000000000020000000000000000000001000000000080000000000000000000000010000000000000000000000800000000000000000000000000000000000000000000000000000000000000000000000000000000000000000000000000000000000000000000000000000000000000000000000000000000000000000001000010002000000000000000000000000000000000000000000000000000000000000000000000000000000000000000000000000000000000000000000000000000000000000000000000",
      "type": "0x2",
      "transactionHash": "0x428a1bb6d21aa8c3c84c6aa3413199260fb677e1cb81529961906ac195bf6a68",
      "transactionIndex": "0x2",
      "blockHash": "0x50113c4fbab30ed26c8a03b25175875437249b743b6c07b599c887f7d3474937",
      "blockNumber": "0x122ce3ae",
      "gasUsed": "0x13667",
      "effectiveGasPrice": "0x989680",
      "from": "0xdafed9a0a40f810fcb5c3dfcd0cb3486036414eb",
      "to": "0xe6317bb95fc9f69f72a0bde8abe23a01f76fc413",
      "contractAddress": null,
      "gasUsedForL1": "0x5d54",
      "l1BlockNumber": "0x14cfe00"
    }
  ],
  "libraries": [],
  "pending": [],
  "returns": {},
  "timestamp": 1739273231,
  "chain": 42161,
  "commit": "a0781fb"
}